:020000040800F2
:1000000000280020F51200084513000845130008D9
:1000100045130008451300084513000800000000C0
:100020000000000000000000000000004513000870
:1000300045130008000000004513000839120008AD
:100040004513000845130008451300084513000830
:1000500045130008451300080D040008310400088A
:1000600055040008790400089D04000845130008A1
:100070004513000845130008451300084513000800
:1000800045130008451300084513000845130008F0
:10009000451300084513000845130008C104000873
:1000A00045130008451300084513000845130008D0
:1000B000451300084513000845130008C50D000846
:1000C000451300084513000845130008E110000817
:1000D000391100088512000899120008AD120008B5
:1000E00071050008451300080000000045130008D2
:1000F0004513000845130008451300084513000880
:10010000451300084513000845130008451300086F
:10011000451300084513000845130008451300085F
:10012000451300084513000845130008451300084F
:1001300010B5054C237833B9044B13B10448AFF321
:1001400000800123237010BD180000200000000073
:100150009013000808B5034B1BB103490348AFF3E4
:10016000008008BD000000001C0000209013000863
:1001700080B58CB000AFF860B9607A607B801E4AB1
:10018000FB6813601D4ABB6813601D4A7B681360DF
:100190001C4A7B8813801C4B3B610023BB610023FE
:1001A0007B614FF48063BB620023FB6200237B62B0
:1001B0000023FB830023BB83786800F085FC07F1F4
:1001C00010037968184600F085FB00F0E1FF32204B
:1001D00000F0F2FF282000F019F8062000F016F8D1
:1001E000802000F013F80F2000F010F800F0A4F8C1
:1001F00000BF3037BD4680BD380000203C000020E5
:100200004000002044000020A086010080B586B098
:1002100002AF0346FB71FB7923F00F03FB73FB79FD
:100220001B01BB73FB7B43F00C03DBB23B72FB7B1C
:1002300043F00803DBB27B72BB7B43F00C03DBB201
:10024000BB72BB7B43F00803DBB2FB72094B18683F
:10025000094B198807F10802002301930123009339
:10026000042300F073FC0A2000F0A6FF00BF103743
:10027000BD4680BD400000204400002080B586B00F
:1002800002AF0346FB71FB7923F00F03FB73FB798D
:100290001B01BB73FB7B43F00D03DBB23B72FB7BAB
:1002A00043F00903DBB27B72BB7B43F00D03DBB28F
:1002B000BB72BB7B43F00903DBB2FB72194B1868BE
:1002C000194B198807F108020023019301230093B9
:1002D000042300F03BFC154B1A68154B1B689A422F
:1002E00004D10021012000F02FF812E0104B1B6810
:1002F000104A126803FB02F20C4B1B689A4208D1A9
:1003000000F01AF80021002000F01EF8074B002230
:100310001A60064B1B680133044A136000BF103794
:10032000BD4680BD40000020440000203400002075
:10033000380000203C00002080B500AF0120FFF70E
:1003400065FF00BF80BD000080B582B000AF0346EE
:100350000A46FB711346BB71BA790E4B1B689A4271
:1003600013DAFB79002B02D0012B07D00EE0BB790A
:10037000803BDBB21846FFF749FF07E0BB79403B03
:10038000DBB21846FFF742FF00E000BF0837BD466A
:1003900080BD00BF3800002080B584B000AF786019
:1003A0000023FB6024E0FB680133FB607B685A1C80
:1003B0007A601B781846FFF761FF124B1B68FA68DA
:1003C0009A4204D100210120FFF7BEFF10E00D4B3F
:1003D0001B680D4A126802FB03F3FA689A4207D1C0
:1003E000FFF7AAFF00210020FFF7AEFF0023FB600C
:1003F0007B681B78002BD6D100BF00BF1037BD46ED
:1004000080BD00BF380000203C00002080B500AF58
:10041000054B5B69044A43F001035361034B1B68BE
:10042000984700BF80BD00BF000401404800002085
:1004300080B500AF054B5B69044A43F0020353618A
:10044000034B5B68984700BF80BD00BF00040140BC
:100450004800002080B500AF054B5B69044A43F0BB
:1004600004035361034B9B68984700BF80BD00BFE6
:10047000000401404800002080B500AF054B5B69D7
:10048000044A43F008035361034BDB68984700BFFD
:1004900080BD00BF000401404800002080B500AFCF
:1004A000054B5B69044A43F010035361034B1B691E
:1004B000984700BF80BD00BF0004014048000020F5
:1004C00080B500AF284B5B6903F02003002B09D0F7
:1004D000254B5B69244A43F020035361234B5B693E
:1004E00098473EE0204B5B6903F04003002B09D0A6
:1004F0001D4B5B691C4A43F0400353611B4B9B69D6
:1005000098472EE0184B5B6903F08003002B09D05D
:10051000154B5B69144A43F080035361134BDB694D
:1005200098471EE0104B5B6903F48073002B09D0E1
:100530000D4B5B690C4A43F4807353610B4B1B6A90
:1005400098470EE0084B5B6903F40073002B08D05A
:10055000054B5B69044A43F400735361034B5B6AC8
:10056000984700BF80BD00BF000401404800002044
:1005700080B500AF304B5B6903F48063002B09D07A
:100580002D4B5B692C4A43F4806353612B4B9B6A70
:1005900098474EE0284B5B6903F40063002B09D0B9
:1005A000254B5B69244A43F400635361234BDB6AA8
:1005B00098473EE0204B5B6903F48053002B09D041
:1005C0001D4B5B691C4A43F4805353611B4B1B6BEF
:1005D00098472EE0184B5B6903F40053002B09D0B9
:1005E000154B5B69144A43F400535361134B5B6B27
:1005F00098471EE0104B5B6903F48043002B09D041
:100600000D4B5B690C4A43F4804353610B4B9B6B6E
:1006100098470EE0084B5B6903F40043002B08D0B9
:10062000054B5B69044A43F400435361034BDB6BA6
:10063000984700BF80BD00BF000401404800002073
:1006400080B485B000AF0346FB800023FB73FB88BA
:10065000B3F5004F00F0B880B3F5004F00F3B7805A
:10066000B3F5804F00F0AD80B3F5804F00F3AF805D
:10067000B3F5005F00F0A280B3F5005F00F3A78040
:10068000B3F5805F00F09780B3F5805F00F39F8043
:10069000B3F5006F00F08C80B3F5006F00F3978026
:1006A000B3F5806F00F08180B3F5806F00F38F8029
:1006B000B3F5007F76D0B3F5007F00F38880B3F503
:1006C000807F6CD0B3F5807F00F38180802B63D076
:1006D000802B7CDC202B47DC002B78DD013B1F2BA3
:1006E00075D801A252F823F06F07000875070008BB
:1006F000CF0700087B070008CF070008CF070008D6
:10070000CF07000881070008CF070008CF070008BF
:10071000CF070008CF070008CF070008CF07000861
:10072000CF07000887070008CF070008CF07000899
:10073000CF070008CF070008CF070008CF07000841
:10074000CF070008CF070008CF070008CF07000831
:10075000CF070008CF070008CF070008CF07000821
:10076000CF0700088D070008402B12D02FE0002390
:10077000FB732CE00423FB7329E00823FB7326E0C2
:100780000C23FB7323E01023FB7320E01423FB7383
:100790001DE01823FB731AE01C23FB7317E00023F2
:1007A000FB7314E00423FB7311E00823FB730EE0DA
:1007B0000C23FB730BE01023FB7308E01423FB7383
:1007C00005E01823FB7302E01C23FB7300BFFB7BD7
:1007D00018461437BD4680BC704700BF80B586B050
:1007E00000AF7860396000233B613B681B88FF2BBA
:1007F00001D87B6801E07B6804333B613B681B8860
:100800001846FFF71DFF0346FB733B691B68FA7B25
:100810000F2101FA02F2D2431A403B691A60002309
:10082000FB753B689B78072B0BD03B689B78062BAE
:1008300007D03B689B78042B03D03B689B78052B43
:100840000ED13B689B78043B9B005AB23B68DB7837
:100850005BB213435BB2DBB203F00F03FB752CE01A
:100860003B689B78012B03D03B689B78002B07D11A
:100870003B689B789B00DBB203F00F03FB751CE029
:100880003B689B78102B02D10423FB7515E00823ED
:10089000FB753B689B78022B07D17B68DB683A6865
:1008A00012881A437B68DA6007E07B68DB683A6885
:1008B0001288D2431A407B68DA603B691B68F97D75
:1008C000FA7B01FA02F21A433B691A6000BF18373B
:1008D000BD4680BDB0B586B000AF786039600023FA
:1008E000FB820023BB8200237B82714BFB603B6851
:1008F00000221A603B6800225A603B680022DA61DD
:100900003B6800229A603B680022DA603B68694AD3
:1009100093420ED1684A7B6814461D460FCD0FC422
:1009200095E80F0084E80F001521002000F09EFBE1
:1009300012E03B68614A93420ED15F4B7A6803F143
:10094000200415460FCD0FC495E80F0084E80F0072
:100950001621002000F08AFB7B689B68002B7DD16C
:100960003B685B68FB82FB8A23F03F03FB8200F05D
:1009700055FBF860FB68524AA2FB03239B0CBB8229
:10098000FA8ABB8A1343FB82FA8A3B685A603B6847
:100990001B6823F001023B681A600023FB827B681E
:1009A0001B68484A934204D07B681B68B3F5A02FAC
:1009B00012D17B681B685B00FA68B2FBF3F37B82A1
:1009C000FA8A7B8A1343FB82FA8A3B68DA61BB8A24
:1009D00001331A463B681A620023FB823B681B689E
:1009E000FB827B689B699AB27B685B689BB213430E
:1009F0009AB27B689B689BB213439AB2FB8A1343FB
:100A0000FB82FA8A3B681A600023FB827B689B8921
:100A1000002B0FD0FB8A43F00103FB827B681B8A0B
:100A20005B001AB2B7F9163013431BB2FB82FA8A85
:100A30003B68DA600023FB827B68DB895B001AB2CB
:100A4000B7F9163013431BB2FB827B685B699AB21D
:100A5000FB8A1343FB82FA8A3B689A607B68DB69F6
:100A6000002B1AD03B685B6843F4E0623B685A6035
:100A70003B68104A934206D11F2000F07DFA2020E7
:100A800000F07AFA09E03B680C4A934205D11F2036
:100A900000F072FA202000F06FFA3B681B6843F008
:100AA00001023B681A6000BF1837BD46B0BD00BFE9
:100AB00000127A00005400408800002000580040D6
:100AC00083DE1B43A086010080B584B000AF786050
:100AD0007B681B4A934214D10723BB730123FB732A
:100AE0004023BB8107F10C0319461648FFF776FE39
:100AF0008023BB8107F10C0319461248FFF76EFEF5
:100B000019E07B68104A934215D10723BB73012378
:100B1000FB734FF40063BB8107F10C0319460948CE
:100B2000FFF75CFE4FF48063BB8107F10C031946AD
:100B30000448FFF753FE00BF1037BD4680BD00BF1D
:100B400000540040000C01400058004080B586B0C1
:100B500000AFF8607A603B600B467B8197F82430E9
:100B600000221946F86800F043F800BF0121F86838
:100B700000F080F80346002BF8D07B89002219464C
:100B8000F86800F0EFF800BF0221F86800F072F892
:100B90000346002BF8D000BF0621F86800F06AF881
:100BA0000346002BF8D00023FB7511E0FB7D7A682B
:100BB00013441B781A46FB681A6100BF0421F868C9
:100BC00000F058F80346002BF8D0FB7D0133FB758D
:100BD000FB7D3A689A42E9D897F82030012B03D17F
:100BE0000021F86800F02BF800BF1837BD4680BD23
:100BF00080B582B000AF78600B46FB701346BB70C7
:100C0000FB78012B07D000BF0021786800F032F894
:100C10000346002BF8D1BB78012B06D07B681B68FC
:100C200043F480727B681A6005E07B681B6823F4DC
:100C300080727B681A6000BF0837BD4680BD80B4F3
:100C400083B000AF78600B46FB70FB78012B06D0B9
:100C50007B681B6843F400727B681A6005E07B6860
:100C60001B6823F400727B681A6000BF0C37BD4616
:100C700080BC704780B485B000AF78600B46FB70D5
:100C80000023FB730023BB60FB78062B64D801A212
:100C900052F823F0B10C0008C70C0008DD0C000866
:100CA000F30C0008F30C0008430D0008090D0008C0
:100CB0007B689B6903F00203002B14BF0123002310
:100CC000DBB2FB7348E07B685B6903F00103002B38
:100CD00014BF01230023DBB2FB733DE07B685B693B
:100CE00003F00203002B14BF01230023DBB2FB73CC
:100CF00032E07B685B6903F08003002B14BF0123A3
:100D00000023DBB2FB7327E07B685B6903F08003A1
:100D1000002B13D07B689B6903F00203002B0DD0DE
:100D20007B689B6903F00103002B07D07B689B69FC
:100D300003F00403002B01D0012300E00023FB7328
:100D40000AE07B685B6903F04003002B14BF0123BA
:100D50000023DBB2FB7300BFFB7B18461437BD4694
:100D600080BC704780B485B000AF78600B467B8054
:100D700013467B707B68114A934214BF0123002302
:100D8000DBB2FB73FB7B0E4A5B01134414331B681D
:100D9000002B0ED17B78002B04D17B8803F0FE035F
:100DA0007B8003E07B8843F001037B807A887B684B
:100DB0001A6100BF1437BD4680BC70470054004024
:100DC0008800002080B586B000AF00237B60374BE1
:100DD0007B617B695B6803F400733B617B695B68E3
:100DE00003F48063FB607B695B6903F48073BB6021
:100DF0003B69002B0AD0BB68002B07D07B691A68BF
:100E00007B691A600021786900F052F87B695B69A0
:100E100003F00203BB603B69002B12D0BB68002BC0
:100E20000FD07B699B6903F00103002B09D17B691B
:100E30005B697B607B699B697B600221786900F05C
:100E400037F87B695B6903F08003BB603B69002B6B
:100E50000FD0FB68002B0CD0BB68002B09D07B693E
:100E60009B6903F00103002B03D10321786900F093
:100E70001FF87B695B6903F04003BB603B69002B93
:100E80000FD0FB68002B0CD0BB68002B09D07B690E
:100E90009B6903F00103002B03D10421786900F062
:100EA00007F800BF1837BD4680BD00BF00540040A2
:100EB00080B584B000AF78600B46FB707B682C4A2D
:100EC000934214BF01230023DBB2FB73FB78042B96
:100ED0004AD801A252F823F0F30E0008ED0E0008E4
:100EE000110F0008230F0008410F00087B689B6961
:100EF0003AE07B689B6903F00403002B2FD0FB7B57
:100F00001C4A5B0113441C331B680020984726E0F1
:100F1000FB7B184A5B0113441C331B680220984773
:100F200022E07B689B6903F00403002B19D0FB7B54
:100F3000104A5B0113441C331B680320984710E0E0
:100F40007B689B6903F00403002B0CD1FB7B094AEF
:100F50005B0113441C331B680420984703E000BF67
:100F600002E000BF00E000BF00BF1037BD4680BDFB
:100F7000005400408800002080B483B000AF0346D6
:100F8000FB71FB791F2B09D80F4B1A68FB790121E4
:100F900001FA03F30C4913430B600FE0FB791F2B9D
:100FA0000CD9FB793B2B09D8084B1A68FB79203BFD
:100FB000012101FA03F3054913430B6000BF0C370D
:100FC000BD4680BC704700BF00E100E004E100E0E6
:100FD00080B483B000AF0E4B5B689B08DBB203F0BC
:100FE0000303FB71FB79022B0AD0022B0ADC002BD6
:100FF00002D0012B02D005E0064B04E0064B02E0D4
:10100000054B00E0002318460C37BD4680BC7047F6
:101010000010024000127A000024F40080B500AFF6
:1010200000F010F80246054B5B681B0A03F007034B
:101030000349CB5C22FA03F3184680BD001002403E
:101040000000002080B500AFFFF7C2FF0246054B4D
:101050005B681B0903F00F030349CB5C22FA03F31F
:10106000184680BD001002400800002080B483B004
:1010700000AF03460A46FB711346BB71FB79022B96
:101080001CD0022B25DC002B02D0012B0BD020E042
:10109000124BDB69BA79012101FA02F211460F4ABB
:1010A0000B43D36115E00D4B9B69BA79012101FA1D
:1010B00002F21146094A0B4393610AE0074B5B6950
:1010C000BA79012101FA02F21146044A0B43536135
:1010D00000BF00BF0C37BD4680BC70470010024007
:1010E00080B582B000AF124B9B685B0803F0010330
:1010F000DAB23B7962F300033B710D4B9B6803F05E
:101100000103DAB23B7962F341033B71084B9B6800
:101110001B0903F00103DAB23B7962F382033B71EE
:10112000044B5B693879984700BF0837BD4680BDDE
:1011300000300140C800002080B582B000AF124BE3
:101140009B685B0803F00103DAB23B7962F30003AA
:101150003B710D4B9B6803F00103DAB23B7962F3FC
:1011600041033B71084B9B681B0903F00103DAB292
:101170003B7962F382033B71044BDB6A3879984711
:1011800000BF0837BD4680BD00380040C8000020C1
:1011900080B400AF064B1B68054A23F004031360BC
:1011A000044B01221A6000BFBD4680BC704700BFDF
:1011B00010E000E0F800002080B485B000AF786057
:1011C0000023FB6029E01A4B1B681A4A4FF47A711E
:1011D00001FB03F35360174B1B68164A23F002030D
:1011E0001360144B1B68134A43F00103136000BFE4
:1011F000104B1B6803F48033002BF9D00D4B0022F9
:101200005A600C4B00229A600A4B1B68094A23F073
:1012100001031360FB680133FB60FA687B689A4244
:10122000D1D300BF00BF1437BD4680BC704700BF9C
:10123000F800002010E000E080B582B000AF00238D
:10124000FB710E4B00225A600C4B00229A600B4B34
:101250001B680A4A23F001031360084B1B68074A06
:1012600023F002031360064B1B689847034B1B686F
:101270000023FB7100BF0837BD4680BD10E000E0D1
:10128000FC00002080B500AF024B1B69984700BFEF
:1012900080BD00BF0001002080B500AF024B5B6A3B
:1012A000984700BF80BD00BF0001002080B500AF9F
:1012B000024B9B6B984700BF80BD00BF0001002020
:1012C00080B500AF03210120FFF7D0FE4E23074A6F
:1012D00002211020FEF74CFFFFF72EF80448FFF71D
:1012E0005BF805210120FFF72FF8FEE700540040CE
:1012F000A81300080D488546AFF300800C480D493F
:101300000D4A002302E0D458C4500433C4188C4260
:10131000F9D30A4A0A4C002301E013600432A242C6
:10132000FBD300F011F8FFF7CBFFFEE70028002009
:101330000000002018000020C01300081800002042
:101340003C010020FEE7000070B500260C4D0D4C5E
:10135000641BA410A64209D100F01AF800260A4D19
:101360000A4C641BA410A64205D170BD55F8043B7D
:1013700098470136EEE755F8043B98470136F2E707
:10138000B8130008B8130008B8130008BC1300080D
:10139000F8B500BFF8BC08BC9E467047F8B500BF62
:0813A000F8BC08BC9E46704732
:1013A80048656C6C6F20576F726C642100000000F8
:0413B80055010008D3
:0413BC0031010008F3
:1013C0000000000001020304000000000000000013
:0813D0000102030406070809ED
:04000005080012F5E8
:00000001FF
