:020000040800F2
:1000000000280020E10D0008310E0008310E000824
:10001000310E0008310E0008310E0008000000000B
:10002000000000000000000000000000310E000889
:10003000310E000800000000310E0008DD0C000841
:10004000310E0008310E0008310E0008310E000894
:10005000310E0008310E00087101000895010008FA
:10006000B9010008DD01000801020008310E000896
:10007000310E0008310E0008310E0008310E000864
:10008000310E0008310E0008310E0008310E000854
:10009000310E0008310E0008310E0008250200085C
:1000A000310E0008310E0008310E0008310E000834
:1000B000310E0008310E0008310E0008C505000899
:1000C000310E0008310E0008310E00082D0C00081A
:1000D000850C0008290D00083D0D0008510D000891
:1000E000D5020008310E000800000000310E0008A3
:1000F000310E0008310E0008310E0008310E0008E4
:10010000310E0008310E0008310E0008310E0008D3
:10011000310E0008310E0008310E0008310E0008C3
:10012000310E0008310E0008310E0008310E0008B3
:1001300010B5054C237833B9044B13B10448AFF321
:1001400000800123237010BD00000020000000008B
:100150007C0E000808B5034B1BB103490348AFF3FD
:10016000008008BD00000000040000207C0E000894
:1001700080B500AF054B5B69044A43F0010353614E
:10018000034B1B68984700BF80BD00BF00040140BF
:10019000C800002080B500AF054B5B69044A43F0FE
:1001A00002035361034B5B68984700BF80BD00BFEB
:1001B00000040140C800002080B500AF054B5B691A
:1001C000044A43F004035361034B9B68984700BF04
:1001D00080BD00BF00040140C800002080B500AF12
:1001E000054B5B69044A43F008035361034BDB682A
:1001F000984700BF80BD00BF00040140C800002038
:1002000080B500AF054B5B69044A43F010035361AE
:10021000034B1B69984700BF80BD00BF000401402D
:10022000C800002080B500AF284B5B6903F02003B5
:10023000002B09D0254B5B69244A43F0200353610E
:10024000234B5B6998473EE0204B5B6903F040031A
:10025000002B09D01D4B5B691C4A43F040035361DE
:100260001B4B9B6998472EE0184B5B6903F080039A
:10027000002B09D0154B5B69144A43F0800353618E
:10028000134BDB6998471EE0104B5B6903F48073E6
:10029000002B09D00D4B5B690C4A43F4807353610A
:1002A0000B4B1B6A98470EE0084B5B6903F4007325
:1002B000002B08D0054B5B69044A43F4007353617B
:1002C000034B5B6A984700BF80BD00BF000401403C
:1002D000C800002080B500AF304B5B6903F4806339
:1002E000002B09D02D4B5B692C4A43F4806353618A
:1002F0002B4B9B6A98474EE0284B5B6903F40063E5
:10030000002B09D0254B5B69244A43F400635361F9
:10031000234BDB6A98473EE0204B5B6903F4805334
:10032000002B09D01D4B5B691C4A43F48053536179
:100330001B4B1B6B98472EE0184B5B6903F4005373
:10034000002B09D0154B5B69144A43F400535361E9
:10035000134B5B6B98471EE0104B5B6903F48043C3
:10036000002B09D00D4B5B690C4A43F48043536169
:100370000B4B9B6B98470EE0084B5B6903F4004303
:10038000002B08D0054B5B69044A43F400435361DA
:10039000034BDB6B984700BF80BD00BF00040140EA
:1003A000C800002080B485B000AF0346FB80002366
:1003B000FB73FB88802B49D0802B11DC082B39D0B4
:1003C000082B06DC022B2FD0042B30D0012B28D099
:1003D00057E0202B34D0402B35D0102B2DD050E0BF
:1003E000B3F5006F3ED0B3F5006F09DCB3F5007FC5
:1003F00032D0B3F5806F32D0B3F5807F29D040E0A2
:10040000B3F5005F34D0B3F5005F03DCB3F5805F74
:100410002BD036E0B3F5804F2DD0B3F5004F2DD063
:100420002FE00023FB732CE00423FB7329E0082357
:10043000FB7326E00C23FB7323E01023FB7320E007
:100440001423FB731DE01823FB731AE01C23FB73BA
:1004500017E00023FB7314E00423FB7311E008236F
:10046000FB730EE00C23FB730BE01023FB7308E01F
:100470001423FB7305E01823FB7302E01C23FB73BA
:1004800000BFFB7B18461437BD4680BC704780B563
:1004900086B000AF7860396000233B613B681B8801
:1004A000FF2B01D87B6801E07B6804333B613B682C
:1004B0001B881846FFF776FF0346FB733B691B68F2
:1004C000FA7B0F2101FA02F2D2431A403B691A600B
:1004D0000023FB753B689B78072B0BD03B689B7810
:1004E000062B07D03B689B78042B03D03B689B7896
:1004F000052B0ED13B689B78043B9B005AB23B68AE
:10050000DB785BB213435BB2DBB203F00F03FB7526
:100510002CE03B689B78012B03D03B689B78002B39
:1005200007D13B689B789B00DBB203F00F03FB75A0
:100530001CE03B689B78102B02D10423FB7515E06F
:100540000823FB753B689B78022B07D17B68DB682F
:100550003A6812881A437B68DA6007E07B68DB68D8
:100560003A681288D2431A407B68DA603B691B689C
:10057000F97DFA7B01FA02F21A433B691A6000BF67
:100580001837BD4680BD80B483B000AF78600B469D
:100590007B8013467B707B78002B06D07B68DA6803
:1005A0007B881A437B68DA6006E07B68DA687B88C0
:1005B000DB431A407B68DA6000BF0C37BD4680BC65
:1005C0007047000080B586B000AF00237B60374BDA
:1005D0007B617B695B6803F400733B617B695B68EB
:1005E00003F48063FB607B695B6903F48073BB6029
:1005F0003B69002B0AD0BB68002B07D07B691A68C7
:100600007B691A600021786900F052F87B695B69A8
:1006100003F00203BB603B69002B12D0BB68002BC8
:100620000FD07B699B6903F00103002B09D17B6923
:100630005B697B607B699B697B600221786900F064
:1006400037F87B695B6903F08003BB603B69002B73
:100650000FD0FB68002B0CD0BB68002B09D07B6946
:100660009B6903F00103002B03D10321786900F09B
:100670001FF87B695B6903F04003BB603B69002B9B
:100680000FD0FB68002B0CD0BB68002B09D07B6916
:100690009B6903F00103002B03D10421786900F06A
:1006A00007F800BF1837BD4680BD00BF00540040AA
:1006B00080B584B000AF78600B46FB707B682C4A35
:1006C000934214BF01230023DBB2FB73FB78042B9E
:1006D0004AD801A252F823F0F3060008ED060008FC
:1006E0001107000823070008410700087B689B6981
:1006F0003AE07B689B6903F00403002B2FD0FB7B5F
:100700001C4A5B0113441C331B680020984726E0F9
:10071000FB7B184A5B0113441C331B68022098477B
:1007200022E07B689B6903F00403002B19D0FB7B5C
:10073000104A5B0113441C331B680320984710E0E8
:100740007B689B6903F00403002B0CD1FB7B094AF7
:100750005B0113441C331B680420984703E000BF6F
:1007600002E000BF00E000BF00BF1037BD4680BD03
:10077000005400401C00002080B483B000AF03464A
:10078000FB71FB791F2B09D80F4B1A68FB790121EC
:1007900001FA03F30C4913430B600FE0FB791F2BA5
:1007A0000CD9FB793B2B09D8084B1A68FB79203B05
:1007B000012101FA03F3054913430B6000BF0C3715
:1007C000BD4680BC704700BF00E100E004E100E0EE
:1007D00080B483B000AF0346FB71FB791F2B09D8AF
:1007E0000F4B1A68FB79012101FA03F30C491343FB
:1007F0000B600FE0FB791F2B0CD9FB793B2B09D841
:10080000084B1A68FB79203B012101FA03F30549E3
:1008100013430B6000BF0C37BD4680BC704700BF60
:1008200080E100E084E100E080B483B000AF0346E3
:100830000A46FB711346BB71FB79012B0FD0022BCB
:1008400018D0002B00D020E0124BDB69BA790121CF
:1008500001FA02F211460F4A0B43D36115E00D4B2A
:100860009B69BA79012101FA02F21146094A0B4348
:1008700093610AE0074B5B69BA79012101FA02F240
:100880001146044A0B43536100BF00BF0C37BD46FD
:1008900080BC704700100240B0B584B000AF7860F3
:1008A00039600023FB810023BB813B684F4A9342A0
:1008B0000ED14F4A7B6814461D460FCD0FC495E8F4
:1008C000030084E803000C210120FFF7ADFF12E0D4
:1008D0003B68484A93420ED1454B7A6803F11804AD
:1008E00015460FCD0FC495E8030084E803000E21E0
:1008F0000020FFF799FFFB8943F04003FB817B68F1
:100900001A88FB891343FB817B685A88FB89134350
:10091000FB817B689A88FB891343FB817B68DA88BB
:10092000FB891343FB817B681A89FB891343FB8195
:100930007B685B89042B05D17B685A89BB8913438B
:10094000BB810EE07B685B89002B05D17B685A89EF
:10095000BB891340BB8104E07B685A89FB89134340
:10096000FB817B689A89FB891343FB817B68DA8969
:10097000FB891343FB817B681B8A002B14D07B68A7
:100980001A8ABB891343BB813B68184A934203D13F
:100990002320FFF7F1FE16E03B68164A934212D17E
:1009A0002420FFF7E9FE0EE03B68104A934203D192
:1009B0002320FFF70DFF06E03B680E4A934202D169
:1009C0002420FFF705FFFA893B681A60BA893B6863
:1009D0005A603B68DB6923F400623B68DA613B687C
:1009E00000221A6100BF1037BD46B0BD0030014083
:1009F0005C0000200038004080B584B000AF786013
:100A00007B68704A934266D16F4B1B88042B33D1AD
:100A10006D4B5B89042B0CD10623BB730123FB7345
:100A20001023BB8107F10C0319466848FFF72FFD1F
:100A300000BF0623BB730123FB732023BB8107F197
:100A40000C0319466148FFF722FD0623BB730123FF
:100A5000FB738023BB8107F10C0319465B48FFF74A
:100A600016FD0123BB734023BB8107F10C0319461C
:100A70005648FFF70CFDA0E0534B1B88002B09D113
:100A80000123BB731023BB8107F10C0319464F48A8
:100A9000FFF7FDFC0123BB732023BB8107F10C038F
:100AA00019464A48FFF7F3FC0123BB738023BB813F
:100AB00007F10C0319464548FFF7E9FC0623BB7311
:100AC0000123FB734023BB8107F10C0319463F4808
:100AD000FFF7DDFC71E07B683D4A93426DD13A4BF4
:100AE0001B8B042B37D1384B5B8C042B0DD1062389
:100AF000BB730123FB734FF48053BB8107F10C03DD
:100B000019463448FFF7C3FC00BF0623BB7301231B
:100B1000FB734FF40053BB8107F10C0319462D48BA
:100B2000FFF7B5FC0623BB730123FB734FF40043AF
:100B3000BB8107F10C0319462648FFF7A8FC0123E7
:100B4000BB734FF48043BB8107F10C031946214866
:100B5000FFF79DFC31E01C4B1B8B002B0AD10123BE
:100B6000BB734FF48053BB8107F10C03194619483E
:100B7000FFF78DFC0123BB734FF40053BB8107F1DA
:100B80000C0319461348FFF782FC0123BB734FF493
:100B90000043BB8107F10C0319460E48FFF777FCB1
:100BA0000623BB730123FB734FF48043BB8107F122
:100BB0000C0319460748FFF76AFC00BF1037BD4613
:100BC00080BD00BF003001405C00002000080140F3
:100BD00000380040000C014080B485B000AFF860E0
:100BE000B9601346FB71FB79002B06D100BFFB688F
:100BF0009B6803F00203002BF9D0BB681B881A46E0
:100C0000FB68DA60FB79002B06D100BFFB689B68AC
:100C100003F00103002BF9D0FB68DB689AB2BB68D4
:100C20001A8000BF1437BD4680BC704780B582B0C3
:100C300000AF124B9B685B0803F00103DAB23B790B
:100C400062F300033B710D4B9B6803F00103DAB2C2
:100C50003B7962F341033B71084B9B681B0903F02E
:100C60000103DAB23B7962F382033B71044B5B69A7
:100C70003879984700BF0837BD4680BD0030014035
:100C80005C00002080B582B000AF124B9B685B080F
:100C900003F00103DAB23B7962F300033B710D4BC1
:100CA0009B6803F00103DAB23B7962F341033B71C5
:100CB000084B9B681B0903F00103DAB23B7962F32E
:100CC00082033B71044BDB6A3879984700BF0837D1
:100CD000BD4680BD003800405C00002080B582B079
:100CE00000AF0023FB710E4B00225A600C4B002218
:100CF0009A600B4B1B680A4A23F001031360084BF0
:100D00001B68074A23F002031360064B1B689847D1
:100D1000034B1B680023FB7100BF0837BD4680BD35
:100D200010E000E00801002080B500AF024B1B6915
:100D3000984700BF80BD00BF8C00002080B500AF89
:100D4000024B5B6A984700BF80BD00BF8C0000204B
:100D500080B500AF024B9B6B984700BF80BD00BFC2
:100D60008C00002080B588B000AF00237B81002379
:100D7000BB810023FB8110233B820023BB82002325
:100D8000FB8204233B814FF440737B8200233B832F
:100D90000023FB610423BB710123FB711023BB8083
:100DA0003B1D19460B48FFF772FB01221021094831
:100DB000FFF7E9FB07F1080307491846FFF76CFD49
:100DC0000548FFF719FE002204490348FFF704FF16
:100DD000F9E700BF00080140003001400C0100208D
:100DE0000D488546AFF300800C480D490D4A00239D
:100DF00002E0D458C4500433C4188C42F9D30A4AD0
:100E00000A4C002301E013600432A242FBD300F03D
:100E100011F8FFF7A7FFFEE70028002000000020E0
:100E2000000000209C0E000800000020100100209F
:100E3000FEE7000070B500250C4E0D4CA41BA4105D
:100E4000A54209D100F01AF800250A4E0A4CA41B4D
:100E5000A410A54205D170BD56F82530984701353C
:100E6000EEE756F8253098470135F2E7940E000872
:100E7000940E0008940E0008980E0008F8B500BF04
:100E8000F8BC08BC9E467047F8B500BFF8BC08BC6B
:040E90009E467047C3
:040E940055010008FC
:040E9800310100081C
:0400000508000DE101
:00000001FF
