:020000040800F2
:100000000028002011140008611400086114000881
:100010006114000861140008611400080000000069
:100020000000000000000000000000006114000853
:100030006114000800000000611400088D1200081F
:1000400061140008611400086114000861140008BC
:100050006114000861140008C10A0008E50A0008DC
:10006000090B00082D0B0008510B00086114000853
:10007000611400086114000861140008611400088C
:10008000611400086114000861140008611400087C
:10009000611400086114000861140008750B000861
:1000A000611400086114000861140008611400085C
:1000B000611400086114000861140008150F00089D
:1000C0006114000861140008611400083911000867
:1000D00091110008D9120008ED1200080113000860
:1000E000250C0008611400080000000061140008DD
:1000F000611400086114000861140008611400080C
:1001000061140008611400086114000861140008FB
:1001100061140008611400086114000861140008EB
:1001200061140008611400086114000861140008DB
:1001300010B5054C237833B9044B13B10448AFF321
:1001400000800123237010BD680000200000000023
:10015000DC1C000808B5034B1BB103490348AFF38F
:10016000008008BD000000006C000020DC1C0008BE
:1001700080B584B000AF78604C4A7B6813604B4B0D
:100180001B681B78002B06D1494B10221A70494B73
:1001900002221A7016E0454B1B681B78022B06D111
:1001A000434B10221A70434B04221A700AE03F4B53
:1001B0001B681B78012B05D13D4B14221A703D4B57
:1001C00004221A7001F010F8142001F021F8002325
:1001D000FB6017E0354B1B68FA68083233F81220D1
:1001E000354B1A80344B04229A70334B0122DA705B
:1001F0002E4B1B685B683049184600F0F0FDFB6829
:100200000133FB60FB68032BE4DD2B4B04229A7067
:10021000264B1B689A89284B1A80274B0122DA70DB
:10022000224B1B689B682449184600F0D8FD1F4BE1
:100230001B6898681D4B1B689B890022194600F0BB
:100240004AFE1D4B04229A70184B1B68DA891A4B20
:100250001A80194B0122DA70144B1B689B681649EF
:10026000184600F0BCFD114B1B6898680F4B1B68CB
:10027000DB890022194600F02EFE0F2000F0C8FF97
:1002800000F04AFA022000F019F8282000F016F8D1
:10029000062000F013F8802000F010F80F2000F086
:1002A0000DF800BF1037BD4680BD00BF48010020DB
:1002B00000000020010000204401002080B582B031
:1002C00000AF0346FB71404B1B6898683E4B1B68B0
:1002D000DB890022194600F0FEFD3B4B1B68586885
:1002E000394B1B68198AFB7903F01003DBB21A46FD
:1002F00000F0F1FD344B1B685868334B1B68598A7A
:10030000FB7903F02003DBB21A4600F0E4FD2E4B2C
:100310001B6858682C4B1B68998AFB7903F04003D3
:10032000DBB21A4600F0D7FD274B1B685868264BF6
:100330001B68D98AFB7923F07F03DBB21A4600F0F1
:10034000CAFD012000F064FF00F008FA1E4B1B6894
:1003500058681D4B1B68198AFB7903F00103DBB257
:100360001A4600F0B8FD184B1B685868164B1B68FE
:10037000598AFB7903F00203DBB21A4600F0ABFDA9
:10038000114B1B685868104B1B68998AFB7903F066
:100390000403DBB21A4600F09EFD0B4B1B68586845
:1003A000094B1B68D98AFB7903F00803DBB21A46B4
:1003B00000F091FD012000F02BFF00F0CFF900BF0D
:1003C0000837BD4680BD00BF4801002080B582B01F
:1003D00000AF0346FB71644B1B689868624B1B6857
:1003E000DB890122194600F076FD5F4B1B685868D7
:1003F0005D4B1B68198AFB7903F01003DBB21A46C8
:1004000000F069FD584B1B685868574B1B68598AA8
:10041000FB7903F02003DBB21A4600F05CFD524B7F
:100420001B685868504B1B68998AFB7903F040039E
:10043000DBB21A4600F04FFD4B4B1B6858684A4B25
:100440001B68D98AFB7923F07F03DBB21A4600F0E0
:1004500042FD012000F0DCFE00F080F9424B1B68F9
:100460005868414B1B68198AFB7903F00103DBB222
:100470001A4600F030FD3C4B1B6858683A4B1B682D
:10048000598AFB7903F00203DBB21A4600F023FD20
:10049000354B1B685868344B1B68998AFB7903F00D
:1004A0000403DBB21A4600F016FD2F4B1B68586898
:1004B0002D4B1B68D98AFB7903F00803DBB21A467F
:1004C00000F009FD012000F0A3FE00F047F9274BE2
:1004D0001B781A46264B1B689A4204D10021012042
:1004E00000F0A8F813E0214B1B781A46214B1B782B
:1004F00003FB02F21E4B1B689A4208D100F00CF974
:100500000021002000F096F8194B00221A60164BCB
:100510001B681B78012B04D0134B1B681B78022B24
:1005200019D1124B1B785A00114B1B689A4204D107
:100530000021022000F07EF80DE00C4B1B781A46DB
:1005400013465B001A440A4B1B689A4203D10021F0
:10055000032000F06FF8064B1B680133044A136058
:1005600000BF0837BD4680BD4801002000000020C4
:10057000840000200100002080B584B000AF7860C6
:100580000023FB6048E0FB680133FB607B685A1C7A
:100590007A601B781846FFF719FF234B1B781A4621
:1005A000FB68934204D10021012000F043F811E0E0
:1005B0001D4B1B781A461D4B1B7803FB02F3FA6890
:1005C0009A4207D100F0A8F80021002000F032F88C
:1005D0000023FB60164B1B681B78012B04D0144BC7
:1005E0001B681B78022B17D10F4B1B785B00FA6836
:1005F0009A4204D10021022000F01CF80CE00A4BC2
:100600001B781A4613465B001344FA689A4203D1DA
:100610000021032000F00EF87B681B78002BB2D17C
:1006200000BF1037BD4680BD000000200100002043
:100630004801002080B582B000AF03460A46FB7136
:100640001346BB71FB79002B0BD1314B1B78BA7968
:100650009A4214D2BB79803BDBB21846FFF72EFEDC
:100660000DE0FB79012B0AD1294B1B78BA799A420C
:1006700005D2BB79403BDBB21846FFF71FFE254B86
:100680001B681B78012B1DD1FB79022B0BD1204B52
:100690001B78BA799A4237D2BB796C3BDBB21846E9
:1006A000FFF70CFE30E0FB79032B2DD1184B1B78A4
:1006B000BA799A4228D2BB792C3BDBB21846FFF7B5
:1006C000FDFD21E0134B1B681B78022B1CD1FB792D
:1006D000022B0BD10E4B1B78BA799A4214D2BB79FC
:1006E000703BDBB21846FFF7E9FD0DE0FB79032B09
:1006F0000AD1074B1B78BA799A4205D2BB79303BB5
:10070000DBB21846FFF7DAFD00BF0837BD4680BDF3
:10071000000000204801002080B500AF0120FFF755
:10072000CDFD024B00221A6000BF80BD8400002076
:1007300080B584B000AF786007F108037A68064995
:10074000184600F0B9FE07F108031846FFF714FF3A
:1007500000BF1037BD4680BDF41C000880B500AF57
:100760000C4B1B6898680B4B1B689B890122194630
:1007700000F0B1FB322000F04BFD064B1B6898687F
:10078000044B1B689B890022194600F0A4FB00BFA4
:1007900080BD00BF4801002080B582B000AF786006
:1007A000786800F02FF800BF0837BD4680BD000014
:1007B00080B584B000AF78600B46FB70FB781946BB
:1007C000786800F04DF80346FB81FB8940F6E4426F
:1007D00002FB03F3094A82FB03121A44D212DB170D
:1007E000D31ABB81BB89064AA2FB0323DB087B81AA
:1007F0007B8918461037BD4680BD00BF8100088048
:10080000CDCCCCCC80B582B000AF78607B68114A8B
:10081000934204D10921012000F056FC10E07B68CE
:100820000D4A934204D10A21012000F04DFC07E05B
:100830007B680A4A934203D10F21012000F044FC57
:100840007B689B6843F001027B689A6000BF0837B1
:10085000BD4680BD0024014000280140003C01400D
:1008600080B584B000AF78600B46FB700023BB738B
:10087000FB780F2B00F2F48001A252F823F000BFA6
:10088000C1080008DB080008F50800080F09000887
:1008900029090008430900085D09000877090008D4
:1008A00091090008AB090008C5090008DF09000824
:1008B000F9090008130A00082D0A0008470A000871
:1008C0000221012000F000FC0123BB8107F10C0391
:1008D0001946784800F083FAC2E00221012000F0B6
:1008E000F3FB0223BB8107F10C031946714800F0AA
:1008F00076FAB5E00221012000F0E6FB0423BB817B
:1009000007F10C0319466B4800F069FAA8E00221D0
:10091000012000F0D9FB0823BB8107F10C03194625
:10092000644800F05CFA9BE00221012000F0CCFB5F
:100930001023BB8107F10C0319465E4800F04FFA03
:100940008EE00221012000F0BFFB2023BB8107F1D4
:100950000C031946574800F042FA81E002210120B9
:1009600000F0B2FB4023BB8107F10C03194651484C
:1009700000F035FA74E00221012000F0A5FB80238D
:10098000BB8107F10C0319464A4800F028FA67E0DA
:100990000321012000F098FB0123BB8107F10C0328
:1009A0001946454800F01BFA5AE00321012000F0E7
:1009B0008BFB0223BB8107F10C0319463E4800F074
:1009C0000EFA4DE00421012000F07EFB0123BB81E3
:1009D00007F10C031946394800F001FA40E0042100
:1009E000012000F071FB0223BB8107F10C031946C3
:1009F000324800F0F4F933E00421012000F064FBF8
:100A00000423BB8107F10C0319462C4800F0E7F9D9
:100A100026E00421012000F057FB0823BB8107F1E9
:100A20000C031946254800F0DAF919E004210120E9
:100A300000F04AFB1023BB8107F10C0319461F4845
:100A400000F0CDF90CE00421012000F03DFB202353
:100A5000BB8107F10C031946184800F0C0F900BF2C
:100A60007B68DB6AFA78013A12051A437B68DA621E
:100A70007B685B6B23F01F02FB781A437B685A6329
:100A80007B689B6843F001027B689A607B689B6887
:100A900043F480027B689A6000BF7B681B6803F0A8
:100AA0000203002BF9D07B68DB6C9BB21846103731
:100AB000BD4680BD00080140000C0140001001400F
:100AC00080B500AF054B5B69044A43F001035361F5
:100AD000034B1B68984700BF80BD00BF0004014066
:100AE0004C01002080B500AF054B5B69044A43F020
:100AF00002035361034B5B68984700BF80BD00BF92
:100B0000000401404C01002080B500AF054B5B693B
:100B1000044A43F004035361034B9B68984700BFAA
:100B200080BD00BF000401404C01002080B500AF33
:100B3000054B5B69044A43F008035361034BDB68D0
:100B4000984700BF80BD00BF000401404C01002059
:100B500080B500AF054B5B69044A43F01003536155
:100B6000034B1B69984700BF80BD00BF00040140D4
:100B70004C01002080B500AF284B5B6903F02003D7
:100B8000002B09D0254B5B69244A43F020035361B5
:100B9000234B5B6998473EE0204B5B6903F04003C1
:100BA000002B09D01D4B5B691C4A43F04003536185
:100BB0001B4B9B6998472EE0184B5B6903F0800341
:100BC000002B09D0154B5B69144A43F08003536135
:100BD000134BDB6998471EE0104B5B6903F480738D
:100BE000002B09D00D4B5B690C4A43F480735361B1
:100BF0000B4B1B6A98470EE0084B5B6903F40073CC
:100C0000002B08D0054B5B69044A43F40073536121
:100C1000034B5B6A984700BF80BD00BF00040140E2
:100C20004C01002080B500AF304B5B6903F480635A
:100C3000002B09D02D4B5B692C4A43F48063536130
:100C40002B4B9B6A98474EE0284B5B6903F400638B
:100C5000002B09D0254B5B69244A43F400635361A0
:100C6000234BDB6A98473EE0204B5B6903F48053DB
:100C7000002B09D01D4B5B691C4A43F48053536120
:100C80001B4B1B6B98472EE0184B5B6903F400531A
:100C9000002B09D0154B5B69144A43F40053536190
:100CA000134B5B6B98471EE0104B5B6903F480436A
:100CB000002B09D00D4B5B690C4A43F48043536110
:100CC0000B4B9B6B98470EE0084B5B6903F40043AA
:100CD000002B08D0054B5B69044A43F40043536181
:100CE000034BDB6B984700BF80BD00BF0004014091
:100CF0004C01002080B485B000AF0346FB80002388
:100D0000FB73FB88802B49D0802B11DC082B39D05A
:100D1000082B06DC022B2FD0042B30D0012B28D03F
:100D200057E0202B34D0402B35D0102B2DD050E065
:100D3000B3F5006F3ED0B3F5006F09DCB3F5007F6B
:100D400032D0B3F5806F32D0B3F5807F29D040E048
:100D5000B3F5005F34D0B3F5005F03DCB3F5805F1B
:100D60002BD036E0B3F5804F2DD0B3F5004F2DD00A
:100D70002FE00023FB732CE00423FB7329E00823FE
:100D8000FB7326E00C23FB7323E01023FB7320E0AE
:100D90001423FB731DE01823FB731AE01C23FB7361
:100DA00017E00023FB7314E00423FB7311E0082316
:100DB000FB730EE00C23FB730BE01023FB7308E0C6
:100DC0001423FB7305E01823FB7302E01C23FB7361
:100DD00000BFFB7B18461437BD4680BC704780B50A
:100DE00086B000AF7860396000233B613B681B88A8
:100DF000FF2B01D87B6801E07B6804333B613B68D3
:100E00001B881846FFF776FF0346FB733B691B6898
:100E1000FA7B0F2101FA02F2D2431A403B691A60B1
:100E20000023FB753B689B78072B0BD03B689B78B6
:100E3000062B07D03B689B78042B03D03B689B783C
:100E4000052B0ED13B689B78043B9B005AB23B6854
:100E5000DB785BB213435BB2DBB203F00F03FB75CD
:100E60002CE03B689B78012B03D03B689B78002BE0
:100E700007D13B689B789B00DBB203F00F03FB7547
:100E80001CE03B689B78102B02D10423FB7515E016
:100E90000823FB753B689B78022B07D17B68DB68D6
:100EA0003A6812881A437B68DA6007E07B68DB687F
:100EB0003A681288D2431A407B68DA603B691B6843
:100EC000F97DFA7B01FA02F21A433B691A6000BF0E
:100ED0001837BD4680BD80B483B000AF78600B4644
:100EE0007B8013467B707B78002B06D07B68DA68AA
:100EF0007B881A437B68DA6006E07B68DA687B8867
:100F0000DB431A407B68DA6000BF0C37BD4680BC0B
:100F10007047000080B586B000AF00237B60374B80
:100F20007B617B695B6803F400733B617B695B6891
:100F300003F48063FB607B695B6903F48073BB60CF
:100F40003B69002B0AD0BB68002B07D07B691A686D
:100F50007B691A600021786900F052F87B695B694F
:100F600003F00203BB603B69002B12D0BB68002B6F
:100F70000FD07B699B6903F00103002B09D17B69CA
:100F80005B697B607B699B697B600221786900F00B
:100F900037F87B695B6903F08003BB603B69002B1A
:100FA0000FD0FB68002B0CD0BB68002B09D07B69ED
:100FB0009B6903F00103002B03D10321786900F042
:100FC0001FF87B695B6903F04003BB603B69002B42
:100FD0000FD0FB68002B0CD0BB68002B09D07B69BD
:100FE0009B6903F00103002B03D10421786900F011
:100FF00007F800BF1837BD4680BD00BF0054004051
:1010000080B584B000AF78600B46FB707B682C4ADB
:10101000934214BF01230023DBB2FB73FB78042B44
:101020004AD801A252F823F0431000083D100008EE
:101030006110000873100008911000087B689B691C
:101040003AE07B689B6903F00403002B2FD0FB7B05
:101050001C4A5B0113441C331B680020984726E0A0
:10106000FB7B184A5B0113441C331B680220984722
:1010700022E07B689B6903F00403002B19D0FB7B03
:10108000104A5B0113441C331B680320984710E08F
:101090007B689B6903F00403002B0CD1FB7B094A9E
:1010A0005B0113441C331B680420984703E000BF16
:1010B00002E000BF00E000BF00BF1037BD4680BDAA
:1010C000005400408800002080B483B000AF034685
:1010D0000A46FB711346BB71FB79012B0FD0022B23
:1010E00018D0002B00D020E0124BDB69BA79012127
:1010F00001FA02F211460F4A0B43D36115E00D4B82
:101100009B69BA79012101FA02F21146094A0B439F
:1011100093610AE0074B5B69BA79012101FA02F297
:101120001146044A0B43536100BF00BF0C37BD4654
:1011300080BC70470010024080B582B000AF124BF7
:101140009B685B0803F00103DAB23B7962F30003AA
:101150003B710D4B9B6803F00103DAB23B7962F3FC
:1011600041033B71084B9B681B0903F00103DAB292
:101170003B7962F382033B71044B5B693879984792
:1011800000BF0837BD4680BD00300140C8000020C8
:1011900080B582B000AF124B9B685B0803F001037F
:1011A000DAB23B7962F300033B710D4B9B6803F0AD
:1011B0000103DAB23B7962F341033B71084B9B6850
:1011C0001B0903F00103DAB23B7962F382033B713E
:1011D000044BDB6A3879984700BF0837BD4680BDAD
:1011E00000380040C800002080B400AF064B1B68E8
:1011F000054A23F004031360044B01221A6000BF68
:10120000BD4680BC704700BF10E000E0F800002041
:1012100080B485B000AF78600023FB6029E0194BF3
:101220001B68194A4FF47A7101FB03F35360164BA4
:101230001B68154A23F002031360134B1B68124A04
:1012400043F00103136000BF0F4B1B6803F48033AE
:10125000002BF9D00C4B00225A600B4B00229A60F5
:10126000094B1B68084A23F001031360FB68013334
:10127000FB60FA687B689A42D1D300BF1437BD4641
:1012800080BC7047F800002010E000E080B582B01C
:1012900000AF0023FB710E4B00225A600C4B002262
:1012A0009A600B4B1B680A4A23F001031360084B3A
:1012B0001B68074A23F002031360064B1B6898471C
:1012C000034B1B680023FB7100BF0837BD4680BD80
:1012D00010E000E08C01002080B500AF024B1B69DC
:1012E000984700BF80BD00BFFC00002080B500AF64
:1012F000024B5B6A984700BF80BD00BFFC00002026
:1013000080B500AF024B9B6B984700BF80BD00BF0C
:10131000FC000020B0B586B000AF02210120FFF72D
:10132000D3FE1A4B3C461D460FCD0FC495E8030073
:1013300084E803003B461846FEF71AFFFFF754FF08
:101340001348FFF729FAFFF7E7F91248FFF714F9F6
:101350004FF47A70FFF75CFFFFF7DEF900210C48CD
:10136000FFF726FA03461A460B4B1A800B48FFF785
:1013700003F9094B1B881846FFF7DAF90848FFF70D
:10138000FBF840F6B830FFF743FFE5E7241D0008FF
:10139000002801400C1D000890010020181D0008C5
:1013A000201D000880B586B000AF7860144A154B48
:1013B000D31A7B617B693B61134B1B68002B02D105
:1013C000114B124A1A60104B1A687B6813443A6931
:1013D0009A4207D200F046F802460C2313604FF001
:1013E000FF3309E0084B1B68FB60074B1A687B68FA
:1013F0001344054A1360FB6818461837BD4680BD84
:10140000002800200004000038010020980100207E
:101410000D488546AFF300800C480D490D4A002366
:1014200002E0D458C4500433C4188C42F9D30A4A99
:101430000A4C002301E013600432A242FBD300F007
:1014400017F8FFF767FFFEE70028002000000020E4
:1014500068000020781D0008680000209801002026
:10146000FEE70000014B1868704700BF0400002031
:1014700070B500250C4E0D4CA41BA410A54209D13B
:1014800000F02CFC00250A4E0A4CA41BA410A54217
:1014900005D170BD56F8253098470135EEE756F86E
:1014A000253098470135F2E7701D0008701D0008CF
:1014B000701D0008741D00080EB46FF0004100B5E7
:1014C0009CB01DAB02900690079104910848094911
:1014D00053F8042B0591006802A9019300F066F807
:1014E0000022029B1A701CB05DF804EB03B0704739
:1014F000040000200802FFFF2DE9F0478E688246B5
:101500009E420C469046994637D88A8912F4906FCD
:1015100031D00223256809696F1A656905EB450515
:1015200095FBF3F509F101033B449D4238BF1D468D
:10153000530530D5294600F037FB064650B90C2339
:101540004FF0FF30CAF80030A38943F04003A38175
:10155000BDE8F0873A46216900F0B6FAA38923F482
:10156000906343F08003A38126613E4426604E468B
:101570006561ED1BA5604E4500D94E463246414699
:10158000206800F0ACFAA36800209B1BA3602368CE
:101590001E442660DCE72A4600F060FB0646002871
:1015A000E2D12169504600F0B3FAC8E72DE9F04FC7
:1015B0001D468B899DB01F0680460C4616460FD5EA
:1015C0000B696BB9402100F0EFFA2060206128B967
:1015D0000C23C8F800304FF0FF30C8E040236361AF
:1015E0000023099320238DF8293030234FF0010B7D
:1015F0008DF82A30039537463D4615F8013B0BB16F
:10160000252B3ED1B7EB060A0BD053463246214676
:101610004046FFF771FF013000F0A480099B53445E
:1016200009933B78002B00F09D8000234FF0FF32A0
:10163000CDE90523049307938DF853301A932F4671
:10164000052217F8011B504800F030FA049BD0B96E
:10165000D90644BF20228DF853201A0744BF2B22FD
:101660008DF853202A782A2A15D02F4600200A25E3
:10167000079A394611F8013B303B092B4DD9B8B1D7
:101680000FE02F46B8E7404A3D46801A0BFA00F0BB
:1016900018430490D3E7039A111D12680391002A9E
:1016A00001DB079204E0524243F0020307920493E5
:1016B0003B782E2B0CD17B782A2B33D1039B02371E
:1016C0001A1D1B680392002BB8BF4FF0FF33059320
:1016D0002E4D03223978284600F0E8F938B140232E
:1016E000401B03FA00F0049B01370343049339784D
:1016F000062227487E1C8DF8281000F0D7F9002814
:1017000038D0244B13BB039B073323F00703083364
:101710000393099B4B4409936DE705FB02320120BB
:101720000F46A6E700230A251946013705933846D8
:1017300010F8012B303A092A03D9002BC8D00591A3
:10174000C6E705FB012101230746F0E703AB009341
:101750002246114B04A94046AFF30080B0F1FF3F91
:101760008146D6D1A3895B063FF535AF09981DB0F8
:10177000BDE8F08F03AB00932246074B04A9404617
:1017800000F082F8EAE700BF3C1D0008421D000897
:10179000461D000800000000F91400082DE9F0477C
:1017A00091461F468A680B6906469342B8BF1346A6
:1017B000C9F8003091F843200C46DDF8208012B1C2
:1017C0000133C9F800302368990642BFD9F80030C8
:1017D0000233C9F80030256815F0060507D104F179
:1017E000190AE368D9F800209B1AAB4229DC94F867
:1017F00043302268003318BF012392062ED404F12F
:10180000430239463046C047013021D02368E5689D
:1018100003F00603042B18BF0025D9F800204FF071
:10182000000908BFAD1AA368226908BF25EAE5755B
:101830009342C4BF9B1AED181A344D451AD10020AB
:1018400008E00123524639463046C047013003D1F3
:101850004FF0FF30BDE8F0870135C2E73020E118D6
:1018600081F843005A1C94F845102244023382F850
:101870004310C4E70123224639463046C0470130B1
:10188000E6D009F10109D8E72DE9F04301F1430C55
:101890000C46097E85B06E291746064698460C9A76
:1018A00000F0B38022D8632936D00AD8002900F08E
:1018B000B980582900F0838004F1420584F8421071
:1018C00032E0642901D06929F6D120681368050641
:1018D00003F104012AD51B681160002B03DA2D22C5
:1018E0005B4284F843206F480A2239E0732900F0F4
:1018F0009D8008D86F2920D07029DDD1236843F05E
:101900002003236003E0752917D07829D4D17823E8
:10191000654884F8453055E0136804F14205191D07
:101920001B68116084F8423001238CE01B6810F0C2
:10193000400F116018BF1BB2CFE713682568181D50
:101940001060280601D51B6802E06806FBD51B88DD
:101950006F2914BF0A2208225248002184F843103C
:101960006568002DA560C0F29580216821F0040112
:101970002160002B3DD1002D40F08E806546082A65
:101980000BD12368DB0708D5236962689A42DEBF62
:10199000302305F8013C05F1FF35ACEB050323616D
:1019A000CDF800803B4603AA21463046FFF7F6FEFD
:1019B00001304DD14FF0FF3005B0BDE8F08339481C
:1019C00084F84510136821681D1D1B6815600A0600
:1019D0000BD5CA0744BF41F0200121601BB9226822
:1019E00022F0200222601022B7E74D0648BF9BB2CA
:1019F000EFE76546B3FBF2F102FB1133C35C05F878
:101A0000013D0B460029F5D1B9E713682568181D7B
:101A10006169106028061B6801D5196002E06A063A
:101A2000FBD51980002365462361B9E71368191DAA
:101A300011601D6862680021284600F037F808B17F
:101A4000401B606063682361002384F84330A7E78C
:101A500023692A4639463046C0470130AAD0236858
:101A60009B0713D4E068039B9842B8BF1846A3E7CE
:101A700001234A4639463046C04701309AD00135E5
:101A8000E368039A9B1AAB42F2DCEBE7002504F112
:101A90001909F5E7002BACD1037804F1420584F86D
:101AA00042306CE74D1D00085E1D000810B5C9B23C
:101AB00002449042034601D1002303E01C78013028
:101AC0008C42F6D1184610BD10B5431E0A4491420F
:101AD00000D110BD11F8014B03F8014FF7E7884220
:101AE00010B501EB020307D8421E99420AD011F843
:101AF000014B02F8014FF8E78342F5D98118D21A59
:101B0000D34200D110BD13F8014D01F8014DF7E7A4
:101B100038B50546002943D051F8043C0C1F002B72
:101B2000B8BFE41800F0D0F81E4A1368104633B965
:101B3000636014602846BDE8384000F0C6B8A34290
:101B40000BD921686218934201BF1A685B6852186A
:101B5000226063600460EDE713465A680AB1A2424E
:101B6000FAD919685818A0420BD1206801445818B6
:101B700082421960DED110685268014419605A60CF
:101B8000D8E702D90C232B60D4E7206821188A42B9
:101B900001BF116852680918216062605C60C9E782
:101BA00038BD00BF3C01002070B5CD1C25F00305F9
:101BB00008350C2D38BF0C25002D064601DBA94247
:101BC00003D90C233360002070BD00F07DF8214A5A
:101BD0001468214691B9204C23681BB9304600F0A7
:101BE00063F820602946304600F05EF8431C24D19B
:101BF0000C233046336000F068F8E4E70B685B1BA9
:101C000018D40B2B0FD90B60CC18CD50304600F0F8
:101C10005CF804F10B00231D20F00700C31AD3D099
:101C20005A42E250D0E74B688C4216BF63601360A3
:101C30000C46EBE70C464968CCE7C41C24F00304CF
:101C4000A04205D0211A304600F02EF80130CFD046
:101C50002560DBE73C01002040010020F8B5074685
:101C600014460E4621B9BDE8F8401146FFF79CBF67
:101C700022B9FFF74DFF25462846F8BD00F026F8AB
:101C8000A0420FD221463846FFF78EFF05460028B6
:101C9000F2D031462246FFF717FF31463846FFF7AC
:101CA00037FFE9E73546E7E738B50023054C054639
:101CB00008462360FFF776FB431C02D1236803B17B
:101CC0002B6038BD940100207047704751F8043CE8
:101CD000181F002BBCBF0B58C0187047F8B500BFC9
:101CE000F8BC08BC9E467047F8B500BFF8BC08BCFD
:041CF0009E46704755
:101CF40025640000000000002D0000002573256409
:101D04002E253034640000004C4D33352054657367
:101D14007400000054656D70203D200020430000D5
:101D24000000000000080140000801400400080011
:101D34001000200040008000232D302B2000686C10
:101D44004C006566674546470030313233343536DA
:101D54003738394142434445460030313233343513
:0C1D640036373839616263646566000040
:041D70005501000811
:041D74003101000831
:101D78001002000008000020000000000000000021
:101D8800000000000000000000000000000000004B
:101D9800000000000000000000000000000000003B
:101DA800000000000000000000000000000000002B
:101DB800000000000000000000000000000000001B
:101DC800000000000000000000000000000000000B
:081DD800000000000000000003
:0400000508001411CA
:00000001FF
