:020000040800F2
:1000000000280020C1170008111800081118000866
:10001000111800081118000811180008000000004D
:10002000000000000000000000000000111800089F
:1000300011180008000000001118000899160008A7
:1000400011180008111800081118000811180008EC
:1000500011180008111800086D0800089108000820
:10006000B5080008D9080008FD08000811180008A4
:1000700011180008111800081118000811180008BC
:1000800011180008111800081118000811180008AC
:10009000111800081118000811180008210900089B
:1000A000111800081118000811180008111800088C
:1000B000111800081118000811180008251200086E
:1000C000111800081118000811180008411500083F
:1000D00099150008E5160008F91600080D17000824
:1000E000D1090008111800080000000011180008CC
:1000F000111800081118000811180008111800083C
:10010000111800081118000811180008111800082B
:10011000111800081118000811180008111800081B
:10012000111800081118000811180008111800080B
:1001300010B5054C237833B9044B13B10448AFF321
:1001400000800123237010BD20000020000000006B
:100150008818000808B5034B1BB103490348AFF3E7
:10016000008008BD0000000024000020881800085E
:1001700080B582B000AF03460A46FB711346BB71DF
:1001800027220021782000F051FB00220021782056
:1001900000F04CFBFB791A460021782000F046FB6A
:1001A00000220021782000F041FBBB791A46002193
:1001B000782000F03BFB00220021782000F036FB85
:1001C000FF220021782000F031FB2F22002178202F
:1001D00000F02CFB00BF0837BD4680BD80B500AFE6
:1001E0002E220021782000F021FB00BF80BD80B5C9
:1001F00086B000AFBA601A460346FB810B46BB814E
:100200001346FB80B7F906300733002B00DA0733BB
:10021000DB103B820023FB750023BB8244E00023FC
:100220007B822FE07B8A03F00703002B03D0FB7D4A
:100230005B00FB7512E0B7F91430B7F9102003FB2F
:1002400002F2B7F91230002B00DA0733DB101BB2D1
:1002500013441A46BB6813441B78FB7597F9173093
:10026000002B09DAFA897B8A13449BB2B989BA8CCC
:10027000D2B2184600F01EF9B7F912309BB2013322
:100280009BB27B82B7F91220B7F906309A42C9DBDC
:10029000B7F914309BB201339BB2BB82B7F90C3073
:1002A0009BB201339BB2BB81B7F91420B7F9203060
:1002B0009A42B4DB00BF00BF1837BD4680BD0000C6
:1002C00080B582B000AF7860554A7B68136000F05B
:1002D00013FA322001F0A0F9AE220021782000F0BC
:1002E000A5FA20220021782000F0A0FA1022002197
:1002F000782000F09BFAB0220021782000F096FAD6
:10030000C8220021782000F091FA002200217820F4
:1003100000F08CFA10220021782000F087FA4022A9
:100320000021782000F082FA81220021782000F05C
:100330007DFAFF220021782000F078FAA122002126
:10034000782000F073FAA6220021782000F06EFADF
:10035000A8220021782000F069FA3F2200217820AD
:1003600000F064FAA4220021782000F05FFAD32282
:100370000021782000F05AFA00220021782000F0B5
:1003800055FAD5220021782000F050FAF022002101
:10039000782000F04BFAD9220021782000F046FAAC
:1003A00022220021782000F041FADA220021782070
:1003B00000F03CFA12220021782000F037FADB220C
:1003C0000021782000F032FA20220021782000F06D
:1003D0002DFA8D220021782000F028FA1422002125
:1003E000782000F023FAAF220021782000F01EFAD6
:1003F0002E220021782000F019FA002000F042F8A7
:1004000000F012F8074B00221A80064B00225A8097
:10041000044B01225A71012318460837BD4680BD9E
:100420003C0400204004002080B582B000AF0023CF
:10043000FB711DE0FB79503BDBB21A4600217820AE
:1004400000F0F4F900220021782000F0EFF91022EA
:100450000021782000F0EAF9FB79DB01084A1A4410
:1004600080234021782000F077F9FB790133FB717C
:10047000FB79072BDED900BF00BF0837BD4680BD22
:100480003C00002080B582B000AF0346FB71FB79D1
:10049000002B01D1002300E0FF234FF480621946B6
:1004A000034801F0B6F900BF0837BD4680BD00BF64
:1004B0003C00002080B483B000AF0346FB800B46B5
:1004C000BB801346FB70FB887F2B48D8BB883F2B33
:1004D00045D8254B1B79002B06D0FB78002B0CBF91
:1004E00001230023DBB2FB70FB78012B1AD1FA88C1
:1004F000BB88DB0898B20346DB0113441B4AD35C7C
:100500005AB2BB8803F00703012101FA03F35BB27F
:10051000134359B2FA880346DB011344C9B2134AA4
:10052000D1541DE0FA88BB88DB0898B20346DB0192
:1005300013440E4AD35C5AB2BB8803F0070301216F
:1005400001FA03F35BB2DB435BB2134059B2FA88A2
:100550000346DB011344C9B2044AD15400E000BF92
:100560000C37BD4680BC7047400400203C00002092
:1005700080B483B000AF03460A46FB801346BB80BD
:10058000054AFB881380044ABB88538000BF0C37A0
:10059000BD4680BC704700BF4004002080B586B0D7
:1005A00000AF03463960FB711346BB713A4B1B88A1
:1005B0001A463B681B7813447F2B07DC364B5B885D
:1005C0001A463B685B7813443F2B01DD00235EE055
:1005D00000237B614BE03B685A68FB79203B39681C
:1005E000497801FB03F319467B690B445B00134414
:1005F0001B88FB6000233B6130E0FA683B6902FA2C
:1006000003F303F40043002B10D0234B1A883B69FB
:100610009BB2134498B2204B5A887B699BB2134417
:100620009BB2BA791946FFF745FF14E01A4B1A88B6
:100630003B699BB2134498B2174B5A887B699BB2B3
:10064000134499B2BB79002B0CBF01230023DBB20A
:100650001A46FFF72FFF3B6901333B613B681B786C
:100660001A463B699342C8D37B6901337B613B687F
:100670005B781A467B699342ADD3074B1A883B6877
:100680001B789BB213449AB2034B1A80FB7918462D
:100690001837BD4680BD00BF4004002080B584B03F
:1006A00000AFF860B9601346FB7112E0FB681B787D
:1006B000FA79B9681846FFF771FF03461A46FB68D6
:1006C0001B789A4202D0FB681B7808E0FB68013374
:1006D000FB60FB681B78002BE8D1FB681B78184691
:1006E0001037BD4680BD80B500AF0020FFF7CAFEC1
:1006F000FFF79AFE00BF80BD80B588B000AF144BF5
:100700003B600023BB6000237B604FF48063BB61D0
:100710000023FB6100237B610023FB810023BB815D
:1007200000F066FF0B4B1B68184600F0FDFB0A202B
:1007300000F072FF074B1A683B461146184600F05E
:10074000F9FA322000F068FF00BF2037BD4680BDB7
:10075000A08601003C04002090B5C7B002AF04465B
:10076000084607F58871A1F588710A60194607F5F2
:100770008873A3F2091322461A7007F58873A3F54C
:10078000857302461A7007F58873A3F586730A46C7
:100790001A8007F58873A3F5827307F58872A2F5AE
:1007A000857212781A70002387F80F3115E097F8D8
:1007B0000F3107F58872A2F5887212681A4497F80B
:1007C0000F310133117807F58872A2F58272D15486
:1007D00097F80F31013387F80F3197F80F319BB23B
:1007E00007F58872A2F5867212889A42DFD80E4BFE
:1007F000186807F58873A3F209131B7899B207F5F7
:100800008873A3F586731B8801331C4607F10C021D
:100810000023019301230093234600F0C7FB00BF90
:1008200007F58A77BD4690BD3C04002080B586B0B0
:1008300002AF0346FB710B46BB7113467B71BB795C
:100840003B737B797B73084B1868FB7999B207F18E
:100850000C020023019301230093022300F0A6FB66
:1008600000BF1037BD4680BD3C04002080B500AFFE
:10087000054B5B69044A43F001035361034B1B685A
:10088000984700BF80BD00BF00040140480400201D
:1008900080B500AF054B5B69044A43F00203536126
:1008A000034B5B68984700BF80BD00BF0004014058
:1008B0004804002080B500AF054B5B69044A43F053
:1008C00004035361034B9B68984700BF80BD00BF82
:1008D000000401404804002080B500AF054B5B696F
:1008E000044A43F008035361034BDB68984700BF99
:1008F00080BD00BF000401404804002080B500AF67
:10090000054B5B69044A43F010035361034B1B69B9
:10091000984700BF80BD00BF00040140480400208C
:1009200080B500AF284B5B6903F02003002B09D092
:10093000254B5B69244A43F020035361234B5B69D9
:1009400098473EE0204B5B6903F04003002B09D041
:100950001D4B5B691C4A43F0400353611B4B9B6971
:1009600098472EE0184B5B6903F08003002B09D0F9
:10097000154B5B69144A43F080035361134BDB69E9
:1009800098471EE0104B5B6903F48073002B09D07D
:100990000D4B5B690C4A43F4807353610B4B1B6A2C
:1009A00098470EE0084B5B6903F40073002B08D0F6
:1009B000054B5B69044A43F400735361034B5B6A64
:1009C000984700BF80BD00BF0004014048040020DC
:1009D00080B500AF304B5B6903F48063002B09D016
:1009E0002D4B5B692C4A43F4806353612B4B9B6A0C
:1009F00098474EE0284B5B6903F40063002B09D055
:100A0000254B5B69244A43F400635361234BDB6A43
:100A100098473EE0204B5B6903F48053002B09D0DC
:100A20001D4B5B691C4A43F4805353611B4B1B6B8A
:100A300098472EE0184B5B6903F40053002B09D054
:100A4000154B5B69144A43F400535361134B5B6BC2
:100A500098471EE0104B5B6903F48043002B09D0DC
:100A60000D4B5B690C4A43F4804353610B4B9B6B0A
:100A700098470EE0084B5B6903F40043002B08D055
:100A8000054B5B69044A43F400435361034BDB6B42
:100A9000984700BF80BD00BF00040140480400200B
:100AA00080B485B000AF0346FB800023FB73FB8856
:100AB000B3F5004F00F0B880B3F5004F00F3B780F6
:100AC000B3F5804F00F0AD80B3F5804F00F3AF80F9
:100AD000B3F5005F00F0A280B3F5005F00F3A780DC
:100AE000B3F5805F00F09780B3F5805F00F39F80DF
:100AF000B3F5006F00F08C80B3F5006F00F39780C2
:100B0000B3F5806F00F08180B3F5806F00F38F80C4
:100B1000B3F5007F76D0B3F5007F00F38880B3F59E
:100B2000807F6CD0B3F5807F00F38180802B63D011
:100B3000802B7CDC202B47DC002B78DD013B1F2B3E
:100B400075D801A252F823F0CF0B0008D50B00088E
:100B50002F0C0008DB0B00082F0C00082F0C0008DE
:100B60002F0C0008E10B00082F0C00082F0C0008C8
:100B70002F0C00082F0C00082F0C00082F0C000869
:100B80002F0C0008E70B00082F0C00082F0C0008A2
:100B90002F0C00082F0C00082F0C00082F0C000849
:100BA0002F0C00082F0C00082F0C00082F0C000839
:100BB0002F0C00082F0C00082F0C00082F0C000829
:100BC0002F0C0008ED0B0008402B12D02FE0002363
:100BD000FB732CE00423FB7329E00823FB7326E05E
:100BE0000C23FB7323E01023FB7320E01423FB731F
:100BF0001DE01823FB731AE01C23FB7317E000238E
:100C0000FB7314E00423FB7311E00823FB730EE075
:100C10000C23FB730BE01023FB7308E01423FB731E
:100C200005E01823FB7302E01C23FB7300BFFB7B72
:100C300018461437BD4680BC704700BF80B586B0EB
:100C400000AF7860396000233B613B681B88FF2B55
:100C500001D87B6801E07B6804333B613B681B88FB
:100C60001846FFF71DFF0346FB733B691B68FA7BC1
:100C70000F2101FA02F2D2431A403B691A600023A5
:100C8000FB753B689B78072B0BD03B689B78062B4A
:100C900007D03B689B78042B03D03B689B78052BDF
:100CA0000ED13B689B78043B9B005AB23B68DB78D3
:100CB0005BB213435BB2DBB203F00F03FB752CE0B6
:100CC0003B689B78012B03D03B689B78002B07D1B6
:100CD0003B689B789B00DBB203F00F03FB751CE0C5
:100CE0003B689B78102B02D10423FB7515E0082389
:100CF000FB753B689B78022B07D17B68DB683A6801
:100D000012881A437B68DA6007E07B68DB683A6820
:100D10001288D2431A407B68DA603B691B68F97D10
:100D2000FA7B01FA02F21A433B691A6000BF1837D6
:100D3000BD4680BDB0B586B000AF78603960002395
:100D4000FB820023BB8200237B82714BFB603B68EC
:100D500000221A603B6800225A603B680022DA6178
:100D60003B6800229A603B680022DA603B68694A6F
:100D700093420ED1684A7B6814461D460FCD0FC4BE
:100D800095E80F0084E80F001521002000F09EFB7D
:100D900012E03B68614A93420ED15F4B7A6803F1DF
:100DA000200415460FCD0FC495E80F0084E80F000E
:100DB0001621002000F08AFB7B689B68002B7DD108
:100DC0003B685B68FB82FB8A23F03F03FB8200F0F9
:100DD00055FBF860FB68524AA2FB03239B0CBB82C5
:100DE000FA8ABB8A1343FB82FA8A3B685A603B68E3
:100DF0001B6823F001023B681A600023FB827B68BA
:100E00001B68484A934204D07B681B68B3F5A02F47
:100E100012D17B681B685B00FA68B2FBF3F37B823C
:100E2000FA8A7B8A1343FB82FA8A3B68DA61BB8ABF
:100E300001331A463B681A620023FB823B681B6839
:100E4000FB827B689B699AB27B685B689BB21343A9
:100E50009AB27B689B689BB213439AB2FB8A134396
:100E6000FB82FA8A3B681A600023FB827B689B89BD
:100E7000002B0FD0FB8A43F00103FB827B681B8AA7
:100E80005B001AB2B7F9163013431BB2FB82FA8A21
:100E90003B68DA600023FB827B68DB895B001AB267
:100EA000B7F9163013431BB2FB827B685B699AB2B9
:100EB000FB8A1343FB82FA8A3B689A607B68DB6992
:100EC000002B1AD03B685B6843F4E0623B685A60D1
:100ED0003B68104A934206D11F2000F07DFA202083
:100EE00000F07AFA09E03B680C4A934205D11F20D2
:100EF00000F072FA202000F06FFA3B681B6843F0A4
:100F000001023B681A6000BF1837BD46B0BD00BF84
:100F100000127A000054004088040020005800406D
:100F200083DE1B43A086010080B584B000AF7860EB
:100F30007B681B4A934214D10723BB730123FB73C5
:100F40004023BB8107F10C0319461648FFF776FED4
:100F50008023BB8107F10C0319461248FFF76EFE90
:100F600019E07B68104A934215D10723BB73012314
:100F7000FB734FF40063BB8107F10C03194609486A
:100F8000FFF75CFE4FF48063BB8107F10C03194649
:100F90000448FFF753FE00BF1037BD4680BD00BFB9
:100FA00000540040000C01400058004080B586B05D
:100FB00000AFF8607A603B600B467B8197F8243085
:100FC00000221946F86800F043F800BF0121F868D4
:100FD00000F080F80346002BF8D07B8900221946E8
:100FE000F86800F0EFF800BF0221F86800F072F82E
:100FF0000346002BF8D000BF0621F86800F06AF81D
:101000000346002BF8D00023FB7511E0FB7D7A68C6
:1010100013441B781A46FB681A6100BF0421F86864
:1010200000F058F80346002BF8D0FB7D0133FB7528
:10103000FB7D3A689A42E9D897F82030012B03D11A
:101040000021F86800F02BF800BF1837BD4680BDBE
:1010500080B582B000AF78600B46FB701346BB7062
:10106000FB78012B07D000BF0021786800F032F830
:101070000346002BF8D1BB78012B06D07B681B6898
:1010800043F480727B681A6005E07B681B6823F478
:1010900080727B681A6000BF0837BD4680BD80B48F
:1010A00083B000AF78600B46FB70FB78012B06D055
:1010B0007B681B6843F400727B681A6005E07B68FC
:1010C0001B6823F400727B681A6000BF0C37BD46B2
:1010D00080BC704780B485B000AF78600B46FB7071
:1010E0000023FB730023BB60FB78062B64D801A2AE
:1010F00052F823F011110008271100083D110008D3
:101100005311000853110008A311000869110008C9
:101110007B689B6903F00203002B14BF01230023AB
:10112000DBB2FB7348E07B685B6903F00103002BD3
:1011300014BF01230023DBB2FB733DE07B685B69D6
:1011400003F00203002B14BF01230023DBB2FB7367
:1011500032E07B685B6903F08003002B14BF01233E
:101160000023DBB2FB7327E07B685B6903F080033D
:10117000002B13D07B689B6903F00203002B0DD07A
:101180007B689B6903F00103002B07D07B689B6998
:1011900003F00403002B01D0012300E00023FB73C4
:1011A0000AE07B685B6903F04003002B14BF012356
:1011B0000023DBB2FB7300BFFB7B18461437BD4630
:1011C00080BC704780B485B000AF78600B467B80F0
:1011D00013467B707B68114A934214BF012300239E
:1011E000DBB2FB73FB7B0E4A5B01134414331B68B9
:1011F000002B0ED17B78002B04D17B8803F0FE03FB
:101200007B8003E07B8843F001037B807A887B68E6
:101210001A6100BF1437BD4680BC704700540040BF
:101220008804002080B586B000AF00237B60374B78
:101230007B617B695B6803F400733B617B695B687E
:1012400003F48063FB607B695B6903F48073BB60BC
:101250003B69002B0AD0BB68002B07D07B691A685A
:101260007B691A600021786900F052F87B695B693C
:1012700003F00203BB603B69002B12D0BB68002B5C
:101280000FD07B699B6903F00103002B09D17B69B7
:101290005B697B607B699B697B600221786900F0F8
:1012A00037F87B695B6903F08003BB603B69002B07
:1012B0000FD0FB68002B0CD0BB68002B09D07B69DA
:1012C0009B6903F00103002B03D10321786900F02F
:1012D0001FF87B695B6903F04003BB603B69002B2F
:1012E0000FD0FB68002B0CD0BB68002B09D07B69AA
:1012F0009B6903F00103002B03D10421786900F0FE
:1013000007F800BF1837BD4680BD00BF005400403D
:1013100080B584B000AF78600B46FB707B682C4AC8
:10132000934214BF01230023DBB2FB73FB78042B31
:101330004AD801A252F823F0531300084D130008B5
:101340007113000883130008A11300087B689B69D0
:101350003AE07B689B6903F00403002B2FD0FB7BF2
:101360001C4A5B0113441C331B680020984726E08D
:10137000FB7B184A5B0113441C331B68022098470F
:1013800022E07B689B6903F00403002B19D0FB7BF0
:10139000104A5B0113441C331B680320984710E07C
:1013A0007B689B6903F00403002B0CD1FB7B094A8B
:1013B0005B0113441C331B680420984703E000BF03
:1013C00002E000BF00E000BF00BF1037BD4680BD97
:1013D000005400408804002080B483B000AF03466E
:1013E000FB71FB791F2B09D80F4B1A68FB79012180
:1013F00001FA03F30C4913430B600FE0FB791F2B39
:101400000CD9FB793B2B09D8084B1A68FB79203B98
:10141000012101FA03F3054913430B6000BF0C37A8
:10142000BD4680BC704700BF00E100E004E100E081
:1014300080B483B000AF0E4B5B689B08DBB203F057
:101440000303FB71FB79022B0AD0022B0ADC002B71
:1014500002D0012B02D005E0064B04E0064B02E06F
:10146000054B00E0002318460C37BD4680BC704792
:101470000010024000127A000024F40080B500AF92
:1014800000F010F80246054B5B681B0A03F00703E7
:101490000349CB5C22FA03F3184680BD00100240DA
:1014A0000800002080B500AFFFF7C2FF0246054BE1
:1014B0005B681B0903F00F030349CB5C22FA03F3BB
:1014C000184680BD001002401000002080B483B098
:1014D00000AF03460A46FB711346BB71FB79022B32
:1014E0001CD0022B25DC002B02D0012B0BD020E0DE
:1014F000124BDB69BA79012101FA02F211460F4A57
:101500000B43D36115E00D4B9B69BA79012101FAB8
:1015100002F21146094A0B4393610AE0074B5B69EB
:10152000BA79012101FA02F21146044A0B435361D0
:1015300000BF00BF0C37BD4680BC704700100240A2
:1015400080B582B000AF124B9B685B0803F00103CB
:10155000DAB23B7962F300033B710D4B9B6803F0F9
:101560000103DAB23B7962F341033B71084B9B689C
:101570001B0903F00103DAB23B7962F382033B718A
:10158000044B5B693879984700BF0837BD4680BD7A
:1015900000300140C804002080B582B000AF124B7B
:1015A0009B685B0803F00103DAB23B7962F3000346
:1015B0003B710D4B9B6803F00103DAB23B7962F398
:1015C00041033B71084B9B681B0903F00103DAB22E
:1015D0003B7962F382033B71044BDB6A38799847AD
:1015E00000BF0837BD4680BD00380040C804002059
:1015F00080B400AF064B1B68054A23F00403136058
:10160000044B01221A6000BFBD4680BC704700BF7A
:1016100010E000E0F804002080B485B000AF7860EE
:101620000023FB6029E01A4B1B681A4A4FF47A71B9
:1016300001FB03F35360174B1B68164A23F00203A8
:101640001360144B1B68134A43F00103136000BF7F
:10165000104B1B6803F48033002BF9D00D4B002294
:101660005A600C4B00229A600A4B1B68094A23F00F
:1016700001031360FB680133FB60FA687B689A42E0
:10168000D1D300BF00BF1437BD4680BC704700BF38
:10169000F804002010E000E080B582B000AF002325
:1016A000FB710E4B00225A600C4B00229A600B4BD0
:1016B0001B680A4A23F001031360084B1B68074AA2
:1016C00023F002031360064B1B689847034B1B680B
:1016D0000023FB7100BF0837BD4680BD10E000E06D
:1016E000FC04002080B500AF024B1B69984700BF87
:1016F00080BD00BF0005002080B500AF024B5B6AD3
:10170000984700BF80BD00BF0005002080B500AF36
:10171000024B9B6B984700BF80BD00BF00050020B7
:1017200080B5ADF5816D02AF07F58063A3F58063E9
:101730001F4A184611464FF480631A4600F096F887
:1017400003210120FFF7C2FE1A48FEF7B9FDFFF79B
:101750004FFF03210520FEF70BFF01221649174812
:10176000FEF79CFFFEF760FE4FF47A70FFF754FF20
:1017700007210020FEF7FCFC4FF47A70FFF74CFFC6
:10178000FEF72CFDFEF7AFFF3A46012301934023FD
:10179000009380230A210A20FEF729FDFEF744FE6C
:1017A0004FF47A70FFF738FFFEF79DFFEAE700BFBE
:1017B000AC1800080054004000000020A0180008E9
:1017C0000D488546AFF300800C480D490D4A0023B3
:1017D00002E0D458C4500433C4188C42F9D30A4AE6
:1017E0000A4C002301E013600432A242FBD300F054
:1017F00019F8FFF795FFFEE7002800200000002001
:1018000020000020102A0008200000203C050020B5
:10181000FEE703460244934200D1704703F8011BE0
:10182000F9E7000070B500260C4D0D4C641BA410A8
:10183000A64209D100F028F800260A4D0A4C641B84
:10184000A410A64205D170BD55F8043B9847013657
:10185000EEE755F8043B98470136F2E7082A0008FE
:10186000082A0008082A00080C2A00080A449142A5
:1018700000F1FF3300D1704710B511F8014B9142D0
:1018800003F8014FF9D110BDF8B500BFF8BC08BC92
:101890009E467047F8B500BFF8BC08BC9E4670472E
:1018A00048656C6C6F20576F726C6400000000001C
:1018B0000000000000000000000000000000000028
:1018C0000000000000000000000000000000000018
:1018D0000000000000000000000000000000000008
:1018E00000000000000000000000000000000000F8
:1018F00000000000000000000000000000000000E8
:1019000000000000000000000000000000000000D7
:1019100000000000000000000000000000000000C7
:1019200000000000000000000000000000000000B7
:1019300000000000000000000000000000000000A7
:101940000000000000000000000000000000000097
:101950000000000000000000000000000000000087
:101960000000000000000000000000000000000077
:101970000000000000000000000000000000000067
:10198000FF800000000000000000000000F00007E1
:10199000C1F000000000000000000000018FF01CFA
:1019A000001C0000000000000000000001807F70AB
:1019B00000060003800000000000000000C207E0F5
:1019C0000003FFFFC0000000000000000060600096
:1019D00080000000400000000000000000301C00FB
:1019E00049000070C0000000000000000018060060
:1019F00008000F81800000000000000000080301C3
:101A0000007C30030000000000000000000C013FDB
:101A1000007E600600000000000000000006017F5C
:101A200080FE400C00000000000000000002013FAA
:101A300089FE400C00000000000000000003003F91
:101A400091FE001800000000000000000001C01F0F
:101A500081F800700000000000000000000070002D
:101A6000000081C0000000000000000000003C00F9
:101A700000019F000000000000000000000003C003
:101A8000003FF00000000000000000000000013FE7
:101A9000FFF0780000000000000000000000011EC0
:101AA000E000F800000000000000000000000180DD
:101AB000000198000000000000000000000000C0CD
:101AC00000078C000000000000000000000000E0A3
:101AD000001D0C0000000000000000000000019844
:101AE00000CD3C0000000000000000000000038F5B
:101AF0008199F00000000000000000000000034B8E
:101B00009F19300000000000000000000000037278
:101B1000682C60000000000000000000000003923C
:101B2000484CC0000000000000000000000001D090
:101B300048DFC00000000000000000000000037C3F
:101B4000099E00000000000000000000000001F8F5
:101B50000B1C0000000000000000000000000060FE
:101B6000880C0000000000000000000000000020C1
:101B7000880C0000000000000000000000000020B1
:101B8000880E00000000000000000000000000704F
:101B9000880E00000000000000000000000000604F
:101BA000880E00000000000000000000000000603F
:101BB000880E000000000000000000000000007817
:101BC000C81E000000000000000000000000003FF0
:101BD000FFFC00000000000000000000000000000A
:101BE00000000000000000000000000000000000F5
:101BF00000000000000000000000000000000000E5
:101C000000000000000000000000000000000000D4
:101C100000000000000000000000000000000000C4
:101C200000000000000000000000000000000000B4
:101C300000000000000000000000000000000000A4
:101C40000000000000000000000000000000000094
:101C50000000000000000000000000000000000084
:101C60000000000000000000000000000000000074
:101C70000000000000000000000000000000000064
:101C80000000000000000000000000000000000054
:101C90000000000000000000000000000000000044
:101CA0000000000000000000000000000000000034
:101CB0000000000000000000000000000000000024
:101CC0000000000000000000000000000000000014
:101CD0000000000C000C000C000C000C000C000CB0
:101CE000000C000C000C000C0000000C000C0000AC
:101CF000000000000000001B001B001B001B001B5D
:101D000000000000000000000000000000000000D3
:101D100000000000000000000000801980198019F8
:101D20008019C07FC07F80190033C07FC07F00331F
:101D30000033003300330000000000000000001EEC
:101D4000003F807580650074003C001E0007800520
:101D5000806580658075003F001E0004000400005F
:101D60000000007000D840D8C0D880D900730006A9
:101D7000000C801BC036C066C046C0068003000051
:101D8000000000000000001E003F0033003300335D
:101D9000001E000CC03CC066806380618063C03E52
:101DA000801C0000000000000000000C000C000C73
:101DB000000C000C0000000000000000000000000B
:101DC0000000000000000000000000008000000192
:101DD0000003000600060004000C000C000C000CC0
:101DE000000C000C00040006000600030001800047
:101DF000002000100018000C000C00040006000673
:101E000000060006000600060004000C000C001886
:101E1000001000200000000C002D003F001E0033C9
:101E200000000000000000000000000000000000B2
:101E30000000000000000000000000000000000C96
:101E4000000C000C000CC0FFC0FF000C000C000CCC
:101E5000000C000000000000000000000000000076
:101E60000000000000000000000000000000000072
:101E7000000000000000000C000C0004000400083A
:101E80000000000000000000000000000000000052
:101E90000000001E001E0000000000000000000006
:101EA0000000000000000000000000000000000032
:101EB0000000000000000000000000000000000C16
:101EC000000C0000000000000000000300030003FD
:101ED0000006000600060006000C000C000C000CBA
:101EE0000018001800180000000000000000001E8C
:101EF000003F0033806180618061806D806D806112
:101F0000806180610033003F001E0000000000007F
:101F100000000006000E001E003600260006000627
:101F20000006000600060006000600060006000087
:101F3000000000000000001E003F8073806180618F
:101F4000800100030006000C001800300060807F54
:101F5000807F0000000000000000001C003E0063C5
:101F600000630003000E000E000380018001806109
:101F70008073003F001E000000000000000000060B
:101F8000000E000E001E001E001600360036006611
:101F9000807F807F00060006000600000000000031
:101FA0000000007F007F006000600060006E007F26
:101FB00080638001800180618073003F001E00000B
:101FC000000000000000001E003F803380610060C0
:101FD000006E007F80738061806180618033003F8C
:101FE000001E0000000000000000807F807F800154
:101FF0000003000300060006000C000C000C0008A3
:102000000018001800180000000000000000001E6A
:10201000003F8063806180610021001E003F80617D
:10202000806180618061003F001E000000000000B0
:102030000000001E003F007380618061806180733A
:10204000803F801D800180610073003F001E000002
:102050000000000000000000000000000000000C74
:10206000000C000000000000000000000000000C58
:10207000000C000000000000000000000000000054
:1020800000000000000C000C000000000000000038
:102090000000000C000C0004000400080000000018
:1020A0000000000080008003000E0038006000384F
:1020B000000E80038000000000000000000000000F
:1020C00000000000000000000000807F807F000012
:1020D0000000807F807F0000000000000000000002
:1020E0000000000000000000000000000040007040
:1020F000001C000780010007001C00700040000069
:1021000000000000000000000000001F803FC071C0
:10211000C060C000C00180030007000E000C000C6E
:102120000000000C000C0000000000000000001E79
:10213000003F803180718063806F806D806D806F23
:10214000806700600032003E001C000000000000BC
:102150000000000E000E001B001B001B001B803146
:102160008031803F803F8031C060C060C06000002F
:10217000000000000000007C007E0063006300633C
:102180000063007E007E0063806180618063007F69
:10219000007E0000000000000000001E003F8031B3
:1021A000806100600060006000600060006080612D
:1021B0008031003F001E0000000000000000007C95
:1021C000007F0063806380618061806180618061E5
:1021D000806100630063007E007C0000000000005E
:1021E0000000807F807F0060006000600060007FF2
:1021F000007F0060006000600060807F807F0000E2
:10220000000000000000807F807F006000600060B0
:102210000060007F007F0060006000600060006080
:1022200000600000000000000000001E003F803140
:102230008061006000600060806380638061806115
:102240008031803F001E000000000000000080611F
:1022500080618061806180618061807F807F80613A
:102260008061806180618061806100000000000009
:102270000000003F003F000C000C000C000C000CA4
:10228000000C000C000C000C000C003F003F000094
:1022900000000000000080018001800180018001B9
:1022A0008001800180018001806180618073003F36
:1022B000001E0000000000000000C060806100639C
:1022C00000660066006C0078007C006600660063B3
:1022D00080618061C06000000000000000000060BC
:1022E00000600060006000600060006000600060EE
:1022F000006000600060807F807F000000000000C0
:102300000000C071C071C07BC07AC06AC06AC06E74
:10231000C064C060C060C060C060C060C0600000D9
:1023200000000000000080718071807980798079E0
:10233000806D806D806D8065806780678067806359
:1023400080630000000000000000001E003F00331A
:102350008061806180618061806180618061806175
:102360000033003F001E0000000000000000007E5F
:10237000007F80638061806180618063007F007E78
:10238000006000600060006000600000000000006D
:102390000000001E003F0033806180618061806129
:1023A00080618061806580670033803F401E00004F
:1023B000000000000000007E007F8063806180617B
:1023C0008063007F007E006600630063806180613F
:1023D000C0600000000000000000000E001F8031FF
:1023E000803100300038001E00078003806180616A
:1023F0008031003F001E0000000000000000C0FF10
:10240000C0FF000C000C000C000C000C000C000CB9
:10241000000C000C000C000C000C00000000000080
:102420000000806180618061806180618061806185
:1024300080618061806180618073003F001E0000C8
:10244000000000000000C060C060C06080318031CA
:102450008031001B001B001B001B000E000E000E35
:1024600000040000000000000000C0C0C0C0C0C0E8
:10247000C0C0C0C0C0CC804C804C805E80528052B6
:102480008073806180610000000000000000C0C017
:10249000806080610033003B001E000C000C001EB9
:1024A000001F003B80718061C0C000000000000080
:1024B0000000C0C08061806100330033001E001E38
:1024C000000C000C000C000C000C000C000C0000B8
:1024D000000000000000803F803F800100030003F7
:1024E0000006000C000C0018001800300060807F0F
:1024F000807F000000000000000F000F000C000CA7
:10250000000C000C000C000C000C000C000C000C6B
:10251000000C000C000C000C000F000F0000001855
:1025200000180018000C000C000C000C000600063F
:102530000006000600030003000300000000000086
:10254000001E001E0006000600060006000600062B
:10255000000600060006000600060006000600064B
:10256000001E001E0000000C000C001E00120033B4
:102570000033806180610000000000000000000066
:10258000000000000000000000000000000000004B
:10259000000000000000000000000000000000003B
:1025A0000000000000000000E0FF00000000003814
:1025B0000018000C000000000000000000000000F7
:1025C000000000000000000000000000000000000B
:1025D00000000000000000000000001F803F80613C
:1025E0008001801F803F80618063807FC038000051
:1025F0000000000000000060006000600060006EED
:10260000007F807380618061806180618073007F62
:10261000006E00000000000000000000000000004C
:102620000000001E003F80738061006000608061D8
:102630008073003F001E00000000000000008001C9
:10264000800180018001801D803F807380618061F6
:10265000806180618073803F801D00000000000069
:1026600000000000000000000000001E003F00739A
:102670008061807F807F00608071003F001E0000CD
:10268000000000000000C007C00F000C000C807F9D
:10269000807F000C000C000C000C000C000C000CE7
:1026A000000C00000000000000000000000000001E
:1026B000801D803F80738061806180618061807354
:1026C000803F801D80018063007F003E000000602D
:1026D000006000600060006F807F807180618061B9
:1026E0008061806180618061806100000000000085
:1026F00000000006000600000000003E003E00064C
:10270000000600060006000600060006000600009F
:10271000000000000006000600000000003E003E31
:102720000006000600060006000600060006000679
:1027300000060046007E003C000000600060006073
:102740000060806100630066006C007C00760063BE
:1027500000638061C0600000000000000000003ED7
:10276000003E000600060006000600060006000601
:10277000000600060006000600060000000000003B
:102780000000000000000000000080DDC0FFC0CE9F
:10279000C0CCC0CCC0CCC0CCC0CCC0CCC0CC000065
:1027A0000000000000000000000000000000006FBA
:1027B000807F8071806180618061806180618061E3
:1027C0008061000000000000000000000000000028
:1027D0000000001E003F8073806180618061806125
:1027E0008073003F001E0000000000000000000099
:1027F00000000000006E007F807380618061806156
:1028000080618073007F006E006000600060006087
:102810000000000000000000801D803F8073806188
:102820008061806180618073803F801D80018001B4
:10283000800180010000000000000000000000672F
:10284000803F003900300030003000300030003070
:102850000030000000000000000000000000000048
:102860000000001E803F80610060007F803F80018B
:102870008061007F001E00000000000000000000DA
:10288000000800180018007F007F001800180018CA
:10289000001800180018801F800F000000000000C2
:1028A0000000000000000000000080618061806185
:1028B00080618061806180618063807F803D0000F5
:1028C0000000000000000000000000000000C060E8
:1028D000803180318031001B001B001B000E000E78
:1028E00000060000000000000000000000000000E2
:1028F000000080DD80DD80DD00550055005500774B
:10290000007700220022000000000000000000000C
:10291000000000000000806100330033001E000C46
:10292000000C001E00330033806100000000000036
:1029300000000000000000008061806180310033F1
:102940000033001B001B001B000E000E000E001CBD
:10295000007C007000000000000000000000C07F4C
:10296000C07F800100030006000C00180030C07F0B
:10297000C07F000000000000800380070006000602
:10298000000600060006000E001C001C000E0006DB
:102990000006000600060006800780030006000609
:1029A00000060006000600060006000600060006F7
:1029B00000060006000600060006000600060006E7
:1029C0000038003C000C000C000C000C000C000E49
:1029D00000070007000E000C000C000C000C000C9F
:1029E000003C003800000000000000000000000073
:1029F00000008038807F00470000000000000000D9
:082A00000000000000000000CE
:042A0800550100086C
:042A0C00310100088C
:102A10000B120000AC1C00080000000001020304BF
:102A2000000000000000000001020304060708097E
:04000005080017C117
:00000001FF
