:020000040800F2
:100000000028002095110008E5110008E5110008FE
:10001000E5110008E5110008E511000800000000E6
:10002000000000000000000000000000E5110008D2
:10003000E511000800000000E51100087910000833
:10004000E5110008E5110008E5110008E5110008B8
:10005000E5110008E511000881080008A50800085E
:10006000C9080008ED08000811090008E51100089A
:10007000E5110008E5110008E5110008E511000888
:10008000E5110008E5110008E5110008E511000878
:10009000E5110008E5110008E51100083509000820
:1000A000E5110008E5110008E5110008E511000858
:1000B000E5110008E5110008E5110008010D000830
:1000C000E5110008E5110008E5110008250F0008FA
:1000D0007D0F0008C5100008D9100008ED100008B9
:1000E000E5090008E511000800000000E51100081E
:1000F000E5110008E5110008E5110008E511000808
:10010000E5110008E5110008E5110008E5110008F7
:10011000E5110008E5110008E5110008E5110008E7
:10012000E5110008E5110008E5110008E5110008D7
:1001300010B5054C237833B9044B13B10448AFF321
:1001400000800123237010BD00000020000000008B
:100150003012000808B5034B1BB103490348AFF345
:10016000008008BD000000000400002030120008DC
:1001700080B588B000AF78607B681B891A46424B17
:100180001A607B685B891A463F4B5A607B689B8983
:100190001A463D4B9A607B681B881A463B4B1A6097
:1001A0007B685B881A46394B5A607B689B881A4685
:1001B000364B9A607B68DB881A46344BDA607B6882
:1001C0001B69334A13600023FB6114E00423BB73F3
:1001D0000123FB732C4AFB6952F823309BB2BB818D
:1001E0007B681B6907F10C021146184600F0D7FC2A
:1001F000FB690133FB61FB69022BE7DD0023BB6177
:1002000012E00323BB73214ABB6952F823309BB22F
:10021000BB817B681B6907F10C021146184600F090
:10022000BEFCBB690133BB61BB69032BE9DD002365
:100230007B610DE07B681869144A7B6952F82330B2
:100240009BB20022194600F03DFD7B6901337B61C2
:100250007B69032BEEDD00233B610DE07B681869B1
:10026000094A3B6952F823309BB20022194600F03C
:1002700029FD3B6901333B613B69022BEEDD00BF89
:100280002037BD4680BD00BFD0000020E000002028
:10029000DC00002080B584B000AF4123FB71002357
:1002A000FB6046E0274B1868274AFB6852F823306A
:1002B0009BB20122194600F005FD0023BB6027E038
:1002C000204B1868214ABB6852F823309BB219466C
:1002D00000F0E1FC0346002B17D000BF194B186853
:1002E0001A4ABB6852F823309BB2194600F0D3FC7F
:1002F0000346002BF2D11649BA6813465B0013443B
:10030000CA18FB6813441B78FB71BB680133BB60E0
:10031000BB68032BD4DD0B4B18680B4AFB6852F803
:1003200023309BB20022194600F0CCFCFB6801335D
:10033000FB60FB68022BB5DDFB7918461037BD4624
:1003400080BD00BFDC000020D0000020E0000020C5
:100350008012000880B584B000AF7860394A7B68AD
:100360001360142000F04AFE0023FB6017E0354BB9
:100370001B68FA68083233F81220334B1A80324B6C
:1003800004229A70304B0122DA702E4B1B685B6896
:100390002D49184600F003FCFB680133FB60FB6845
:1003A000032BE4DD284B04229A70264B1B689A89A4
:1003B000254B1A80244B0122DA70224B1B689B6864
:1003C0002149184600F0EBFB1E4B1B6898681D4B3B
:1003D0001B689B890022194600F074FC1A4B04220A
:1003E0009A70184B1B68DA89174B1A80164B01223A
:1003F000DA70144B1B689B681349184600F0CFFB5A
:10040000104B1B6898680F4B1B68DB89002219464C
:1004100000F058FC0F2000F0F1FD00F00BFA022074
:1004200000F014F8282000F011F8062000F00EF873
:10043000802000F00BF80F2000F008F800BF103704
:10044000BD4680BDF4000020F000002080B582B0E1
:1004500000AF0346FB71404B1B6898683E4B1B681E
:10046000DB890022194600F02DFC3B4B1B685868C5
:10047000394B1B68198AFB7903F01003DBB21A466B
:1004800000F020FC344B1B685868334B1B68598ABA
:10049000FB7903F02003DBB21A4600F013FC2E4B6D
:1004A0001B6858682C4B1B68998AFB7903F0400342
:1004B000DBB21A4600F006FC274B1B685868264B37
:1004C0001B68D98AFB7923F07F03DBB21A4600F060
:1004D000F9FB012000F092FD00F0B4F91E4B1B68FF
:1004E00058681D4B1B68198AFB7903F00103DBB2C6
:1004F0001A4600F0E7FB184B1B685868164B1B6840
:10050000598AFB7903F00203DBB21A4600F0DAFBEA
:10051000114B1B685868104B1B68998AFB7903F0D4
:100520000403DBB21A4600F0CDFB0B4B1B68586886
:10053000094B1B68D98AFB7903F00803DBB21A4622
:1005400000F0C0FB012000F059FD00F07BF900BF76
:100550000837BD4680BD00BFF400002080B582B0E2
:1005600000AF0346FB715B4B1B689868594B1B68D7
:10057000DB890122194600F0A5FB564B1B68586821
:10058000544B1B68198AFB7903F01003DBB21A463F
:1005900000F098FB4F4B1B6858684E4B1B68598AFC
:1005A000FB7903F02003DBB21A4600F08BFB494BCA
:1005B0001B685868474B1B68998AFB7903F0400316
:1005C000DBB21A4600F07EFB424B1B685868414B79
:1005D0001B68D98AFB7923F07F03DBB21A4600F04F
:1005E00071FB012000F00AFD00F02CF9394B1B686B
:1005F0005868384B1B68198AFB7903F00103DBB29A
:100600001A4600F05FFB334B1B685868314B1B6880
:10061000598AFB7903F00203DBB21A4600F052FB61
:100620002C4B1B6858682B4B1B68998AFB7903F08D
:100630000403DBB21A4600F045FB264B1B685868E2
:10064000244B1B68D98AFB7903F00803DBB21A46F6
:1006500000F038FB012000F0D1FC00F0F3F81E4B55
:100660001B68102B04D10021012000F07FF80CE062
:10067000194B1B68402B08D100F0DCF8002100204A
:1006800000F074F8144B00221A60124B1B681B78A0
:10069000012B04D00F4B1B681B78022B10D10E4B83
:1006A0001B68202B04D10021022000F05FF807E036
:1006B000094B1B68302B03D10021032000F056F8B2
:1006C000054B1B680133044A136000BF0837BD4661
:1006D00080BD00BFF40000201C00002080B584B065
:1006E00000AF78600023FB6035E0FB680133FB60FE
:1006F0007B685A1C7A601B781846FFF72FFFFB684F
:10070000102B04D10021012000F030F80AE0FB6832
:10071000402B07D100F08EF80021002000F026F8D1
:100720000023FB60104B1B681B78012B04D00E4B81
:100730001B681B78022B0ED1FB68202B04D10021F3
:10074000022000F013F806E0FB68302B03D10021F3
:10075000032000F00BF87B681B78002BC5D100BF8D
:100760001037BD4680BD00BFF400002080B582B0C8
:1007700000AF03460A46FB711346BB71FB79002BA1
:1007800009D1BB790F2B12D8BB79803BDBB218465D
:10079000FFF75CFE0BE0FB79012B08D1BB790F2B37
:1007A00005D8BB79403BDBB21846FFF74FFE204B24
:1007B0001B681B78012B19D1FB79022B09D1BB795E
:1007C0000F2B31D8BB796C3BDBB21846FFF73EFEEE
:1007D0002AE0FB79032B27D1BB790F2B24D8BB79D7
:1007E0002C3BDBB21846FFF731FE1DE0104B1B68B7
:1007F0001B78022B18D1FB79022B09D1BB790F2B67
:1008000012D8BB79703BDBB21846FFF71FFE0BE036
:10081000FB79032B08D1BB790F2B05D8BB79303B73
:10082000DBB21846FFF712FE00BF0837BD4680BD99
:10083000F400002080B500AF0120FFF707FE00BFE5
:1008400080BD000080B500AF0C4B1B6898680B4B57
:100850001B689B890122194600F034FA322000F00F
:10086000CDFB064B1B689868044B1B689B890022D4
:10087000194600F027FA00BF80BD00BFF400002039
:1008800080B500AF054B5B69044A43F00103536137
:10089000034B1B68984700BF80BD00BF00040140A8
:1008A000F800002080B500AF054B5B69044A43F0B7
:1008B00002035361034B5B68984700BF80BD00BFD4
:1008C00000040140F800002080B500AF054B5B69D3
:1008D000044A43F004035361034B9B68984700BFED
:1008E00080BD00BF00040140F800002080B500AFCB
:1008F000054B5B69044A43F008035361034BDB6813
:10090000984700BF80BD00BF00040140F8000020F0
:1009100080B500AF054B5B69044A43F01003536197
:10092000034B1B69984700BF80BD00BF0004014016
:10093000F800002080B500AF284B5B6903F020036E
:10094000002B09D0254B5B69244A43F020035361F7
:10095000234B5B6998473EE0204B5B6903F0400303
:10096000002B09D01D4B5B691C4A43F040035361C7
:100970001B4B9B6998472EE0184B5B6903F0800383
:10098000002B09D0154B5B69144A43F08003536177
:10099000134BDB6998471EE0104B5B6903F48073CF
:1009A000002B09D00D4B5B690C4A43F480735361F3
:1009B0000B4B1B6A98470EE0084B5B6903F400730E
:1009C000002B08D0054B5B69044A43F40073536164
:1009D000034B5B6A984700BF80BD00BF0004014025
:1009E000F800002080B500AF304B5B6903F48063F2
:1009F000002B09D02D4B5B692C4A43F48063536173
:100A00002B4B9B6A98474EE0284B5B6903F40063CD
:100A1000002B09D0254B5B69244A43F400635361E2
:100A2000234BDB6A98473EE0204B5B6903F480531D
:100A3000002B09D01D4B5B691C4A43F48053536162
:100A40001B4B1B6B98472EE0184B5B6903F400535C
:100A5000002B09D0154B5B69144A43F400535361D2
:100A6000134B5B6B98471EE0104B5B6903F48043AC
:100A7000002B09D00D4B5B690C4A43F48043536152
:100A80000B4B9B6B98470EE0084B5B6903F40043EC
:100A9000002B08D0054B5B69044A43F400435361C3
:100AA000034BDB6B984700BF80BD00BF00040140D3
:100AB000F800002080B485B000AF0346FB8000231F
:100AC000FB73FB88802B49D0802B11DC082B39D09D
:100AD000082B06DC022B2FD0042B30D0012B28D082
:100AE00057E0202B34D0402B35D0102B2DD050E0A8
:100AF000B3F5006F3ED0B3F5006F09DCB3F5007FAE
:100B000032D0B3F5806F32D0B3F5807F29D040E08A
:100B1000B3F5005F34D0B3F5005F03DCB3F5805F5D
:100B20002BD036E0B3F5804F2DD0B3F5004F2DD04C
:100B30002FE00023FB732CE00423FB7329E0082340
:100B4000FB7326E00C23FB7323E01023FB7320E0F0
:100B50001423FB731DE01823FB731AE01C23FB73A3
:100B600017E00023FB7314E00423FB7311E0082358
:100B7000FB730EE00C23FB730BE01023FB7308E008
:100B80001423FB7305E01823FB7302E01C23FB73A3
:100B900000BFFB7B18461437BD4680BC704780B54C
:100BA00086B000AF7860396000233B613B681B88EA
:100BB000FF2B01D87B6801E07B6804333B613B6815
:100BC0001B881846FFF776FF0346FB733B691B68DB
:100BD000FA7B0F2101FA02F2D2431A403B691A60F4
:100BE0000023FB753B689B78072B0BD03B689B78F9
:100BF000062B07D03B689B78042B03D03B689B787F
:100C0000052B0ED13B689B78043B9B005AB23B6896
:100C1000DB785BB213435BB2DBB203F00F03FB750F
:100C20002CE03B689B78012B03D03B689B78002B22
:100C300007D13B689B789B00DBB203F00F03FB7589
:100C40001CE03B689B78102B02D10423FB7515E058
:100C50000823FB753B689B78022B07D17B68DB6818
:100C60003A6812881A437B68DA6007E07B68DB68C1
:100C70003A681288D2431A407B68DA603B691B6885
:100C8000F97DFA7B01FA02F21A433B691A6000BF50
:100C90001837BD4680BD80B485B000AF78600B4684
:100CA0007B807B689A687B881340002B02D00123ED
:100CB000FB7301E00023FB73FB7B18461437BD4632
:100CC00080BC704780B483B000AF78600B467B80F7
:100CD00013467B707B78002B06D07B68DA687B88B4
:100CE0001A437B68DA6006E07B68DA687B88DB435E
:100CF0001A407B68DA6000BF0C37BD4680BC704785
:100D000080B586B000AF00237B60374B7B617B6989
:100D10005B6803F400733B617B695B6803F4806389
:100D2000FB607B695B6903F48073BB603B69002BEC
:100D30000AD0BB68002B07D07B691A687B691A60F0
:100D40000021786900F052F87B695B6903F00203C7
:100D5000BB603B69002B12D0BB68002B0FD07B69B6
:100D60009B6903F00103002B09D17B695B697B6000
:100D70007B699B697B600221786900F037F87B69A9
:100D80005B6903F08003BB603B69002B0FD0FB68FD
:100D9000002B0CD0BB68002B09D07B699B6903F04A
:100DA0000103002B03D10321786900F01FF87B6950
:100DB0005B6903F04003BB603B69002B0FD0FB680D
:100DC000002B0CD0BB68002B09D07B699B6903F01A
:100DD0000103002B03D10421786900F007F800BF5C
:100DE0001837BD4680BD00BF0054004080B584B0B8
:100DF00000AF78600B46FB707B682C4A934214BFAF
:100E000001230023DBB2FB73FB78042B4AD801A239
:100E100052F823F02F0E0008290E00084D0E00088E
:100E20005F0E00087D0E00087B689B693AE07B68D6
:100E30009B6903F00403002B2FD0FB7B1C4A5B0152
:100E400013441C331B680020984726E0FB7B184A9C
:100E50005B0113441C331B680220984722E07B6827
:100E60009B6903F00403002B19D0FB7B104A5B0144
:100E700013441C331B680320984710E07B689B6970
:100E800003F00403002B0CD1FB7B094A5B011344E4
:100E90001C331B680420984703E000BF02E000BF3A
:100EA00000E000BF00BF1037BD4680BD00540040C9
:100EB0002000002080B483B000AF03460A46FB71D7
:100EC0001346BB71FB79012B0FD0022B18D0002BDE
:100ED00000D020E0124BDB69BA79012101FA02F25D
:100EE00011460F4A0B43D36115E00D4B9B69BA794C
:100EF000012101FA02F21146094A0B4393610AE00B
:100F0000074B5B69BA79012101FA02F21146044AE2
:100F10000B43536100BF00BF0C37BD4680BC704718
:100F20000010024080B582B000AF124B9B685B0896
:100F300003F00103DAB23B7962F300033B710D4B1E
:100F40009B6803F00103DAB23B7962F341033B7122
:100F5000084B9B681B0903F00103DAB23B7962F38B
:100F600082033B71044B5B693879984700BF0837AF
:100F7000BD4680BD003001406000002080B582B0D9
:100F800000AF124B9B685B0803F00103DAB23B79B8
:100F900062F300033B710D4B9B6803F00103DAB26F
:100FA0003B7962F341033B71084B9B681B0903F0DB
:100FB0000103DAB23B7962F382033B71044BDB6AD3
:100FC0003879984700BF0837BD4680BD00380040DB
:100FD0006000002080B400AF064B1B68054A23F078
:100FE00004031360044B01221A6000BFBD4680BC9D
:100FF000704700BF10E000E09000002080B485B092
:1010000000AF78600023FB6029E0194B1B68194A88
:101010004FF47A7101FB03F35360164B1B68154ABA
:1010200023F002031360134B1B68124A43F00103C1
:10103000136000BF0F4B1B6803F48033002BF9D003
:101040000C4B00225A600B4B00229A60094B1B6824
:10105000084A23F001031360FB680133FB60FA6860
:101060007B689A42D1D300BF1437BD4680BC70471D
:101070009000002010E000E080B582B000AF0023B7
:10108000FB710E4B00225A600C4B00229A600B4BF6
:101090001B680A4A23F001031360084B1B68074AC8
:1010A00023F002031360064B1B689847034B1B6831
:1010B0000023FB7100BF0837BD4680BD10E000E093
:1010C0003801002080B500AF024B1B69984700BF74
:1010D00080BD00BF9400002080B500AF024B5B6A6A
:1010E000984700BF80BD00BF9400002080B500AFCE
:1010F000024B9B6B984700BF80BD00BF940000204F
:10110000B0B58CB000AF03210120FFF7D3FE022160
:101110000120FFF7CFFE1B4B07F118041D460FCD32
:101120000FC495E8030084E8030007F1180318468C
:10113000FFF710F9144B3C1D1D460FCD0FC42B6853
:1011400023603B1D1846FFF713F8FFF743FFFFF737
:1011500071FB0E48FFF7C2FA4FF47A70FFF74EFFAB
:10116000FFF768FBFFF796F803461A46084B1A701C
:10117000074B1B78412BF5D0054B1B781846FFF722
:10118000EDF9EFE7541200086C120008481200084D
:101190003C0100200D488546AFF300800C480D4906
:1011A0000D4A002302E0D458C4500433C4188C42C2
:1011B000F9D30A4A0A4C002301E013600432A24228
:1011C000FBD300F011F8FFF79BFFFEE7002800209B
:1011D0000000002000000020941200080000002001
:1011E00040010020FEE7000070B500250C4E0D4CBC
:1011F000A41BA410A54209D100F01AF800250A4E3C
:101200000A4CA41BA410A54205D170BD56F8253088
:1012100098470135EEE756F8253098470135F2E753
:101220008C1200088C1200088C1200089012000822
:10123000F8B500BFF8BC08BC9E467047F8B500BFC3
:08124000F8BC08BC9E46704793
:101248004B65797061645F4C4344210000000000E5
:1012580000080140000801400400080010002000B8
:1012680040008000080010002000400080000001BD
:1012780000020000000C0140313233343536373873
:04128800392A3023AC
:04128C005501000800
:041290003101000820
:040000050800119549
:00000001FF
