:020000040800F2
:1000000000280020F50D0008450E0008450E0008E8
:10001000450E0008450E0008450E000800000000CF
:10002000000000000000000000000000450E000875
:10003000450E000800000000450E0008290A0008CF
:10004000450E0008450E0008450E0008450E000844
:10005000450E0008450E000881010008A5010008B2
:10006000C9010008ED01000811020008450E000852
:10007000450E0008450E0008450E0008450E000814
:10008000450E0008450E0008450E0008450E000804
:10009000450E0008450E0008450E00083502000810
:1000A000450E0008450E0008450E0008450E0008E4
:1000B000450E0008450E0008450E00089905000889
:1000C000450E0008450E0008450E0008D50800083A
:1000D0002D090008690D00087D0D0008910D00082C
:1000E000E5020008450E000800000000450E00086B
:1000F000450E0008450E0008450E0008450E000894
:10010000450E0008450E0008450E0008450E000883
:10011000450E0008450E0008450E0008450E000873
:10012000450E0008450E0008450E0008450E000863
:1001300010B5054C237833B9044B13B10448AFF321
:1001400000800123237010BD180000200000000073
:10015000900E000808B5034B1BB103490348AFF3E9
:10016000008008BD000000001C000020900E000868
:10017000034613F8012B002AFBD1181A01387047E7
:1001800080B500AF054B5B69044A43F0010353613E
:10019000034B1B68984700BF80BD00BF00040140AF
:1001A000E400002080B500AF054B5B69044A43F0D2
:1001B00002035361034B5B68984700BF80BD00BFDB
:1001C00000040140E400002080B500AF054B5B69EE
:1001D000044A43F004035361034B9B68984700BFF4
:1001E00080BD00BF00040140E400002080B500AFE6
:1001F000054B5B69044A43F008035361034BDB681A
:10020000984700BF80BD00BF00040140E40000200B
:1002100080B500AF054B5B69044A43F0100353619E
:10022000034B1B69984700BF80BD00BF000401401D
:10023000E400002080B500AF284B5B6903F0200389
:10024000002B09D0254B5B69244A43F020035361FE
:10025000234B5B6998473EE0204B5B6903F040030A
:10026000002B09D01D4B5B691C4A43F040035361CE
:100270001B4B9B6998472EE0184B5B6903F080038A
:10028000002B09D0154B5B69144A43F0800353617E
:10029000134BDB6998471EE0104B5B6903F48073D6
:1002A000002B09D00D4B5B690C4A43F480735361FA
:1002B0000B4B1B6A98470EE0084B5B6903F4007315
:1002C000002B08D0054B5B69044A43F4007353616B
:1002D000034B5B6A984700BF80BD00BF000401402C
:1002E000E400002080B500AF304B5B6903F480630D
:1002F000002B09D02D4B5B692C4A43F4806353617A
:100300002B4B9B6A98474EE0284B5B6903F40063D4
:10031000002B09D0254B5B69244A43F400635361E9
:10032000234BDB6A98473EE0204B5B6903F4805324
:10033000002B09D01D4B5B691C4A43F48053536169
:100340001B4B1B6B98472EE0184B5B6903F4005363
:10035000002B09D0154B5B69144A43F400535361D9
:10036000134B5B6B98471EE0104B5B6903F48043B3
:10037000002B09D00D4B5B690C4A43F48043536159
:100380000B4B9B6B98470EE0084B5B6903F40043F3
:10039000002B08D0054B5B69044A43F400435361CA
:1003A000034BDB6B984700BF80BD00BF00040140DA
:1003B000E400002080B485B000AF0346FB8000233A
:1003C000FB73FB88802B49D0802B11DC082B39D0A4
:1003D000082B06DC022B2FD0042B30D0012B28D089
:1003E00057E0202B34D0402B35D0102B2DD050E0AF
:1003F000B3F5006F3ED0B3F5006F09DCB3F5007FB5
:1004000032D0B3F5806F32D0B3F5807F29D040E091
:10041000B3F5005F34D0B3F5005F03DCB3F5805F64
:100420002BD036E0B3F5804F2DD0B3F5004F2DD053
:100430002FE00023FB732CE00423FB7329E0082347
:10044000FB7326E00C23FB7323E01023FB7320E0F7
:100450001423FB731DE01823FB731AE01C23FB73AA
:1004600017E00023FB7314E00423FB7311E008235F
:10047000FB730EE00C23FB730BE01023FB7308E00F
:100480001423FB7305E01823FB7302E01C23FB73AA
:1004900000BFFB7B18461437BD4680BC704780B553
:1004A00086B000AF7860396000233B613B681B88F1
:1004B000FF2B01D87B6801E07B6804333B613B681C
:1004C0001B881846FFF776FF0346FB733B691B68E2
:1004D000FA7B0F2101FA02F2D2431A403B691A60FB
:1004E0000023FB753B689B78072B0BD03B689B7800
:1004F000062B07D03B689B78042B03D03B689B7886
:10050000052B0ED13B689B78043B9B005AB23B689D
:10051000DB785BB213435BB2DBB203F00F03FB7516
:100520002CE03B689B78012B03D03B689B78002B29
:1005300007D13B689B789B00DBB203F00F03FB7590
:100540001CE03B689B78102B02D10423FB7515E05F
:100550000823FB753B689B78022B07D17B68DB681F
:100560003A6812881A437B68DA6007E07B68DB68C8
:100570003A681288D2431A407B68DA603B691B688C
:10058000F97DFA7B01FA02F21A433B691A6000BF57
:100590001837BD4680BD000080B586B000AF00238F
:1005A0007B60374B7B617B695B6803F400733B6165
:1005B0007B695B6803F48063FB607B695B6903F4C0
:1005C0008073BB603B69002B0AD0BB68002B07D04F
:1005D0007B691A687B691A600021786900F052F81B
:1005E0007B695B6903F00203BB603B69002B12D09F
:1005F000BB68002B0FD07B699B6903F00103002BC4
:1006000009D17B695B697B607B699B697B600221A7
:10061000786900F037F87B695B6903F08003BB60A1
:100620003B69002B0FD0FB68002B0CD0BB68002B64
:1006300009D07B699B6903F00103002B03D10321DF
:10064000786900F01FF87B695B6903F04003BB60C9
:100650003B69002B0FD0FB68002B0CD0BB68002B34
:1006600009D07B699B6903F00103002B03D10421AE
:10067000786900F007F800BF1837BD4680BD00BF9D
:100680000054004080B584B000AF78600B46FB702A
:100690007B682C4A934214BF01230023DBB2FB7317
:1006A000FB78042B4AD801A252F823F0C7060008B1
:1006B000C1060008E5060008F7060008150700084F
:1006C0007B689B693AE07B689B6903F00403002B1D
:1006D0002FD0FB7B1C4A5B0113441C331B6800209A
:1006E000984726E0FB7B184A5B0113441C331B68C8
:1006F0000220984722E07B689B6903F00403002BEB
:1007000019D0FB7B104A5B0113441C331B68032088
:10071000984710E07B689B6903F00403002B0CD121
:10072000FB7B094A5B0113441C331B680420984778
:1007300003E000BF02E000BF00E000BF00BF1037D1
:10074000BD4680BD005400403400002080B483B01A
:1007500000AF0346FB71FB791F2B09D80F4B1A68BA
:10076000FB79012101FA03F30C4913430B600FE0FD
:10077000FB791F2B0CD9FB793B2B09D8084B1A6846
:10078000FB79203B012101FA03F3054913430B6078
:1007900000BF0C37BD4680BC704700BF00E100E0E1
:1007A00004E100E080B483B000AF0D4B5B689B08B0
:1007B000DBB203F00303FB71FB79012B05D0022BA5
:1007C00005D0002B05D1074B04E0074B02E0064B98
:1007D00000E0002318460C37BD4680BC704700BFC0
:1007E0000010024000127A000024F40080B500AF2F
:1007F00000F024F80146054B5B681B0A03F0070371
:10080000034AD35C21FA03F3184680BD001002406E
:100810000000002080B500AF00F010F80146054B45
:100820005B68DB0A03F00703034AD35C21FA03F396
:10083000184680BD001002400000002080B500AFC7
:10084000FFF7B0FF0146054B5B681B0903F00F0380
:10085000034AD35C21FA03F3184680BD001002401E
:100860000800002080B483B000AF03460A46FB7145
:100870001346BB71FB79012B0FD0022B18D0002B34
:1008800000D020E0124BDB69BA79012101FA02F2B3
:1008900011460F4A0B43D36115E00D4B9B69BA79A2
:1008A000012101FA02F21146094A0B4393610AE061
:1008B000074B5B69BA79012101FA02F21146044A39
:1008C0000B43536100BF00BF0C37BD4680BC70476F
:1008D0000010024080B582B000AF124B9B685B08ED
:1008E00003F00103DAB23B7962F300033B710D4B75
:1008F0009B6803F00103DAB23B7962F341033B7179
:10090000084B9B681B0903F00103DAB23B7962F3E1
:1009100082033B71044B5B693879984700BF083705
:10092000BD4680BD003001407400002080B582B01B
:1009300000AF124B9B685B0803F00103DAB23B790E
:1009400062F300033B710D4B9B6803F00103DAB2C5
:100950003B7962F341033B71084B9B681B0903F031
:100960000103DAB23B7962F382033B71044BDB6A29
:100970003879984700BF0837BD4680BD0038004031
:100980007400002080B400AF064B1B68054A23F0BA
:1009900004031360044B01221A6000BFBD4680BCF3
:1009A000704700BF10E000E0A400002080B485B0D4
:1009B00000AF78600023FB6029E0194B1B68194ADF
:1009C0004FF47A7101FB03F35360164B1B68154A11
:1009D00023F002031360134B1B68124A43F0010318
:1009E000136000BF0F4B1B6803F48033002BF9D05A
:1009F0000C4B00225A600B4B00229A60094B1B687B
:100A0000084A23F001031360FB680133FB60FA68B6
:100A10007B689A42D1D300BF1437BD4680BC704773
:100A2000A400002010E000E080B582B000AF0023F9
:100A3000FB710E4B00225A600C4B00229A600B4B4C
:100A40001B680A4A23F001031360084B1B68074A1E
:100A500023F002031360064B1B689847034B1B6887
:100A60000023FB7100BF0837BD4680BD10E000E0E9
:100A700024010020B0B584B000AF786039603B68D5
:100A8000594A93420BD1594A7B6814461D460FCDF3
:100A90000FC42B6823600E210120FFF7E3FE3B68A3
:100AA000534A93420DD1514B7A6803F11404154611
:100AB0000FCD0FC42B68236011210020FFF7D2FE59
:100AC00010E03B684B4A93420CD1484B7A6803F1E3
:100AD000280415460FCD0FC42B6823601221002077
:100AE000FFF7C0FE3B68DB6843F400523B68DA6006
:100AF0003B68DB687A6812781A433B68DA603B68C7
:100B00001B697A68127A1A433B681A613B68DB6892
:100B10007A68527A1A433B68DA603B68DB687A6825
:100B2000927A1A433B68DA603B685B697A68D27AEA
:100B30001A433B685A613B682B4A934203D1FFF743
:100B400069FEF86002E0FFF751FEF8607B685B68C1
:100B50001B01FA68B2FBF3F31901FA6813469B0014
:100B600013449A001A447B685B689B00B2FBF3F263
:100B70007B685B681B01F868B0FBF3F3642000FB43
:100B800003F3D31A1B011C4AA2FB03235B0903F0E6
:100B90000F030B43BB603B68BA689A607B681B7BA2
:100BA000002B1DD03B68DB687A68127B1A433B68D8
:100BB000DA603B680C4A934203D12520FFF7C6FD5B
:100BC0000EE03B680A4A934203D12620FFF7BEFDA0
:100BD00006E03B68074A934202D12720FFF7B6FDA3
:100BE00000BF1037BD46B0BD00380140A80000204E
:100BF00000440040004800401F85EB5180B584B0A0
:100C000000AF78607B682B4A934218D10623BB73F0
:100C10000123FB734FF40073BB8107F10C031946EA
:100C20002548FFF73CFC1023BB734FF48063BB8166
:100C300007F10C0319462048FFF731FC36E07B68CA
:100C40001E4A934216D10623BB730123FB73042370
:100C5000BB8107F10C0319461748FFF720FC10234E
:100C6000BB730823BB8107F10C0319461248FFF739
:100C700016FC1BE07B68124A934217D10623BB7314
:100C80000123FB734FF48063BB8107F10C0319460A
:100C90000C48FFF704FC1023BB734FF40063BB81C7
:100CA00007F10C0319460748FFF7F9FB00BF10379F
:100CB000BD4680BD003801400008014000440040AE
:100CC00000480040000C014080B487B000AFF860DD
:100CD000B9601346FB710023FB75FB68104A934211
:100CE00007D0FB680F4A934201D1012302E002239F
:100CF00000E00023FB75FB79002B06D100BFFB68E9
:100D00001B6803F08003002BF9D0BB681B88DAB2A4
:100D1000FB685A6000BF1C37BD4680BC704700BFEF
:100D2000003801400044004080B584B000AF7860D6
:100D300039603868FFF71CFAB8600023FB600AE0EE
:100D40003A68FB681344002219467868FFF7BCFF35
:100D5000FB680133FB60FA68BB689A42F0D300BFBE
:100D60001037BD4680BD000080B500AF024B1B6947
:100D7000984700BF80BD00BFA800002080B500AF2D
:100D8000024B5B6A984700BF80BD00BFA8000020EF
:100D900080B500AF024B9B6B984700BF80BD00BF82
:100DA000A8000020B0B586B000AF02210120FFF7F7
:100DB00059FD0D4B3C1D1D460FCD0FC42B68236004
:100DC0003B1D0A491846FFF755FE0848FFF716FF76
:100DD000FFF7D8FD06490548FFF7A6FF4FF47A70E4
:100DE000FFF7E4FDFAE700BFB40E00080038014049
:100DF000A80E00080D488546AFF300800C480D4949
:100E00000D4A002302E0D458C4500433C4188C4265
:100E1000F9D30A4A0A4C002301E013600432A242CB
:100E2000FBD300F011F8FFF7BDFFFEE7002800201C
:100E30000000002018000020D00E0008180000203C
:100E400028010020FEE7000070B500250C4E0D4C77
:100E5000A41BA410A54209D100F01AF800250A4EDF
:100E60000A4CA41BA410A54205D170BD56F825302C
:100E700098470135EEE756F8253098470135F2E7F7
:100E8000C80E0008C80E0008C80E0008CC0E0008E6
:100E9000F8B500BFF8BC08BC9E467047F8B500BF67
:080EA000F8BC08BC9E46704737
:100EA80048656C6C6F20416C616100000C000000AB
:100EB8008025000000000000010000000000000084
:040EC80055010008C8
:040ECC0031010008E8
:100ED0000000000001020304000000000000000008
:080EE0000102030406070809E2
:0400000508000DF5ED
:00000001FF
