:020000040800F2
:100000000028002055130008A5130008A5130008B8
:10001000A5130008A5130008A513000800000000A0
:10002000000000000000000000000000A513000810
:10003000A513000800000000A513000835120008F1
:10004000A5130008A5130008A5130008A5130008B0
:10005000A5130008A513000881090008A5090008D8
:10006000C9090008ED090008110A0008A5130008D5
:10007000A5130008A5130008A5130008A513000880
:10008000A5130008A5130008A5130008A513000870
:10009000A5130008A5130008A5130008350A0008D9
:1000A000A5130008A5130008A5130008A513000850
:1000B000A5130008A5130008A5130008B50E000835
:1000C000A5130008A5130008A5130008DD100008FB
:1000D000351100088112000895120008A9120008C5
:1000E000E50A0008A513000800000000A513000899
:1000F000A5130008A5130008A5130008A513000800
:10010000A5130008A5130008A5130008A5130008EF
:10011000A5130008A5130008A5130008A5130008DF
:10012000A5130008A5130008A5130008A5130008CF
:1001300010B5054C237833B9044B13B10448AFF321
:1001400000800123237010BD040000200000000087
:10015000F013000808B5034B1BB103490348AFF384
:10016000008008BD0000000008000020F013000817
:1001700080B588B000AF78607B681B891A464A4B0F
:100180001A607B685B891A46474B5A607B689B897B
:100190001A46454B9A607B68DB891A46424BDA6007
:1001A0007B681B881A46414B1A607B685B881A463D
:1001B0003E4B5A607B689B881A463C4B9A607B6832
:1001C000DB881A46394BDA607B685B69384A136012
:1001D0007B681A8A374B1A800023FB6114E00423E2
:1001E000BB730123FB73304AFB6952F823309BB287
:1001F000BB817B685B6907F10C021146184600F071
:10020000A7FDFB690133FB612A4B1B881A46FB697A
:100210009342E4DB0023BB6112E00323BB73234A58
:10022000BB6952F823309BB2BB817B685B6907F1E5
:100230000C021146184600F08BFDBB690133BB610F
:10024000BB69032BE9DD00237B610DE07B68586906
:10025000164A7B6952F823309BB20022194600F0FF
:100260000AFE7B6901337B617B69032BEEDD002392
:100270003B610DE07B6858690B4A3B6952F82330BB
:100280009BB20022194600F0F6FD3B6901333B6149
:10029000084B1B881A463B699342EBDB00BF00BF4B
:1002A0002037BD4680BD00BF200000203000002068
:1002B000440000204000002080B584B000AF4E23F1
:1002C000FB710023FB6046E0284B1868284AFB6856
:1002D00052F823309BB20122194600F0CCFD0023D6
:1002E000BB6027E0214B1A682249BB6851F82330D4
:1002F0009BB21946104600F0A7FD0346002B16D00E
:1003000000BF1A4B1A681B49BB6851F823309BB2D7
:100310001946104600F098FD0346002BF1D1164A0D
:10032000BB689B001A44FB6813441B78FB71BB68D5
:100330000133BB60BB68032BD4DD0C4B18680C4A3F
:10034000FB6852F823309BB20022194600F093FD5F
:10035000FB680133FB60094B1B881A46FB6893421C
:10036000B2DBFB7918461037BD4680BD4400002043
:10037000200000203000002044140008400000202D
:1003800080B584B000AF78604C4A7B6813604B4BFB
:100390001B681B78002B06D1494B10221A70494B61
:1003A00002221A7016E0454B1B681B78022B06D1FF
:1003B000434B10221A70434B04221A700AE03F4B41
:1003C0001B681B78012B05D13D4B14221A703D4B45
:1003D00004221A7000F0DAFE142000F0EBFE002375
:1003E000FB6017E0354B1B68FA68083233F81220BF
:1003F000354B1A80344B04229A70334B0122DA7049
:100400002E4B1B685B683049184600F0A1FCFB6866
:100410000133FB60FB68032BE4DD2B4B04229A7055
:10042000264B1B689A89284B1A80274B0122DA70C9
:10043000224B1B689B682449184600F089FC1F4B1F
:100440001B6898681D4B1B689B890022194600F0A9
:1004500012FD1D4B04229A70184B1B68DA891A4B47
:100460001A80194B0122DA70144B1B689B681649DD
:10047000184600F06DFC114B1B6898680F4B1B6809
:10048000DB890022194600F0F6FC0F2000F092FEF6
:1004900000F04CFA022000F019F8282000F016F8BD
:1004A000062000F013F8802000F010F80F2000F074
:1004B0000DF800BF1037BD4680BD00BF4C000020C6
:1004C00000000020010000204800002080B582B01C
:1004D00000AF0346FB71404B1B6898683E4B1B689E
:1004E000DB890022194600F0C6FC3B4B1B685868AC
:1004F000394B1B68198AFB7903F01003DBB21A46EB
:1005000000F0B9FC344B1B685868334B1B68598AA0
:10051000FB7903F02003DBB21A4600F0ACFC2E4B53
:100520001B6858682C4B1B68998AFB7903F04003C1
:10053000DBB21A4600F09FFC274B1B685868264B1D
:100540001B68D98AFB7923F07F03DBB21A4600F0DF
:1005500092FC012000F02EFE00F0F4F91E4B1B6807
:1005600058681D4B1B68198AFB7903F00103DBB245
:100570001A4600F080FC184B1B685868164B1B6825
:10058000598AFB7903F00203DBB21A4600F073FCD0
:10059000114B1B685868104B1B68998AFB7903F054
:1005A0000403DBB21A4600F066FC0B4B1B6858686C
:1005B000094B1B68D98AFB7903F00803DBB21A46A2
:1005C00000F059FC012000F0F5FD00F0BBF900BF80
:1005D0000837BD4680BD00BF4C00002080B582B00A
:1005E00000AF0346FB71644B1B689868624B1B6845
:1005F000DB890122194600F03EFC5F4B1B685868FE
:100600005D4B1B68198AFB7903F01003DBB21A46B5
:1006100000F031FC584B1B685868574B1B68598ACF
:10062000FB7903F02003DBB21A4600F024FC524BA6
:100630001B685868504B1B68998AFB7903F040038C
:10064000DBB21A4600F017FC4B4B1B6858684A4B4C
:100650001B68D98AFB7923F07F03DBB21A4600F0CE
:100660000AFC012000F0A6FD00F06CF9424B1B686B
:100670005868414B1B68198AFB7903F00103DBB210
:100680001A4600F0F8FB3C4B1B6858683A4B1B6855
:10069000598AFB7903F00203DBB21A4600F0EBFB48
:1006A000354B1B685868344B1B68998AFB7903F0FB
:1006B0000403DBB21A4600F0DEFB2F4B1B685868C0
:1006C0002D4B1B68D98AFB7903F00803DBB21A466D
:1006D00000F0D1FB012000F06DFD00F033F9274B55
:1006E0001B781A46264B1B689A4204D10021012030
:1006F00000F0AAF813E0214B1B781A46214B1B7817
:1007000003FB02F21E4B1B689A4208D100F00EF95F
:100710000021002000F098F8194B00221A60164BB7
:100720001B681B78012B04D0134B1B681B78022B12
:1007300019D1124B1B785A00114B1B689A4204D1F5
:100740000021022000F080F80DE00C4B1B781A46C7
:1007500013465B001A440A4B1B689A4203D10021DE
:10076000032000F071F8064B1B680133044A136044
:1007700000BF0837BD4680BD4C00002000000020AF
:10078000500000200100002080B584B000AF7860E8
:100790000023FB6048E0FB680133FB607B685A1C68
:1007A0007A601B781846FFF719FF244B1B781A460E
:1007B000FB68934204D10021012000F045F811E0CC
:1007C0001E4B1B781A461E4B1B7802FB03F3FA687C
:1007D0009A4207D100F0AAF80021002000F034F876
:1007E0000023FB60174B1B681B78012B04D0154BB3
:1007F0001B681B78022B17D1104B1B785B00FA6823
:100800009A4204D10021022000F01EF80CE00B4BAC
:100810001B781A4613465B001344FA689A4203D1C8
:100820000021032000F010F87B681B78002BB2D168
:1008300000BF00BF1037BD4680BD00BF00000020D4
:10084000010000204C00002080B582B000AF0346BC
:100850000A46FB711346BB71FB79002B0BD1314B60
:100860001B78BA799A4214D2BB79803BDBB2184626
:10087000FFF72CFE0DE0FB79012B0AD1294B1B78E9
:10088000BA799A4205D2BB79403BDBB21846FFF7F2
:100890001DFE254B1B681B78012B1DD1FB79022BFC
:1008A0000BD1204B1B78BA799A4237D2BB796C3B7B
:1008B000DBB21846FFF70AFE30E0FB79032B2DD19F
:1008C000184B1B78BA799A4228D2BB792C3BDBB201
:1008D0001846FFF7FBFD21E0134B1B681B78022B2A
:1008E0001CD1FB79022B0BD10E4B1B78BA799A42A3
:1008F00014D2BB79703BDBB21846FFF7E7FD0DE081
:10090000FB79032B0AD1074B1B78BA799A4205D29F
:10091000BB79303BDBB21846FFF7D8FD00BF083784
:10092000BD4680BD000000204C00002080B500AF17
:100930000120FFF7CBFD024B00221A6000BF80BDF3
:100940005000002080B500AF0C4B1B6898680B4B23
:100950001B689B890122194600F08DFA322000F0B5
:1009600029FC064B1B689868044B1B689B89002276
:10097000194600F080FA00BF80BD00BF4C00002087
:1009800080B500AF054B5B69044A43F00103536136
:10099000034B1B68984700BF80BD00BF00040140A7
:1009A0005400002080B500AF054B5B69044A43F05A
:1009B00002035361034B5B68984700BF80BD00BFD3
:1009C000000401405400002080B500AF054B5B6976
:1009D000044A43F004035361034B9B68984700BFEC
:1009E00080BD00BF000401405400002080B500AF6E
:1009F000054B5B69044A43F008035361034BDB6812
:100A0000984700BF80BD00BF000401405400002093
:100A100080B500AF054B5B69044A43F01003536196
:100A2000034B1B69984700BF80BD00BF0004014015
:100A30005400002080B500AF284B5B6903F0200311
:100A4000002B09D0254B5B69244A43F020035361F6
:100A5000234B5B6998473EE0204B5B6903F0400302
:100A6000002B09D01D4B5B691C4A43F040035361C6
:100A70001B4B9B6998472EE0184B5B6903F0800382
:100A8000002B09D0154B5B69144A43F08003536176
:100A9000134BDB6998471EE0104B5B6903F48073CE
:100AA000002B09D00D4B5B690C4A43F480735361F2
:100AB0000B4B1B6A98470EE0084B5B6903F400730D
:100AC000002B08D0054B5B69044A43F40073536163
:100AD000034B5B6A984700BF80BD00BF0004014024
:100AE0005400002080B500AF304B5B6903F4806395
:100AF000002B09D02D4B5B692C4A43F48063536172
:100B00002B4B9B6A98474EE0284B5B6903F40063CC
:100B1000002B09D0254B5B69244A43F400635361E1
:100B2000234BDB6A98473EE0204B5B6903F480531C
:100B3000002B09D01D4B5B691C4A43F48053536161
:100B40001B4B1B6B98472EE0184B5B6903F400535B
:100B5000002B09D0154B5B69144A43F400535361D1
:100B6000134B5B6B98471EE0104B5B6903F48043AB
:100B7000002B09D00D4B5B690C4A43F48043536151
:100B80000B4B9B6B98470EE0084B5B6903F40043EB
:100B9000002B08D0054B5B69044A43F400435361C2
:100BA000034BDB6B984700BF80BD00BF00040140D2
:100BB0005400002080B485B000AF0346FB800023C2
:100BC000FB73FB88B3F5004F00F0B880B3F5004F1E
:100BD00000F3B780B3F5804F00F0AD80B3F5804FE0
:100BE00000F3AF80B3F5005F00F0A280B3F5005FC3
:100BF00000F3A780B3F5805F00F09780B3F5805FC6
:100C000000F39F80B3F5006F00F08C80B3F5006FA8
:100C100000F39780B3F5806F00F08180B3F5806FAB
:100C200000F38F80B3F5007F76D0B3F5007F00F33B
:100C30008880B3F5807F6CD0B3F5807F00F381802E
:100C4000802B63D0802B7CDC202B47DC002B78DDD5
:100C5000013B1F2B75D801A252F823F0E30C0008CA
:100C6000E90C0008430D0008EF0C0008430D0008D4
:100C7000430D0008430D0008F50C0008430D000863
:100C8000430D0008430D0008430D0008430D000804
:100C9000430D0008430D0008FB0C0008430D00083D
:100CA000430D0008430D0008430D0008430D0008E4
:100CB000430D0008430D0008430D0008430D0008D4
:100CC000430D0008430D0008430D0008430D0008C4
:100CD000430D0008430D0008010D0008402B12D001
:100CE0002FE00023FB732CE00423FB7329E008238F
:100CF000FB7326E00C23FB7323E01023FB7320E03F
:100D00001423FB731DE01823FB731AE01C23FB73F1
:100D100017E00023FB7314E00423FB7311E00823A6
:100D2000FB730EE00C23FB730BE01023FB7308E056
:100D30001423FB7305E01823FB7302E01C23FB73F1
:100D400000BFFB7B18461437BD4680BC704700BF10
:100D500080B586B000AF7860396000233B613B68A6
:100D60001B88FF2B01D87B6801E07B6804333B6163
:100D70003B681B881846FFF71DFF0346FB733B6962
:100D80001B68FA7B0F2101FA02F2D2431A403B6939
:100D90001A600023FB753B689B78072B0BD03B68E0
:100DA0009B78062B07D03B689B78042B03D03B68CD
:100DB0009B78052B0ED13B689B78043B9B005AB275
:100DC0003B68DB785BB213435BB2DBB203F00F032B
:100DD000FB752CE03B689B78012B03D03B689B782C
:100DE000002B07D13B689B789B00DBB203F00F031D
:100DF000FB751CE03B689B78102B02D10423FB752C
:100E000015E00823FB753B689B78022B07D17B68B4
:100E1000DB683A6812881A437B68DA6007E07B680F
:100E2000DB683A681288D2431A407B68DA603B6913
:100E30001B68F97DFA7B01FA02F21A433B691A60DA
:100E400000BF1837BD4680BD80B485B000AF786064
:100E50000B467B807B689A687B881340002B02D00E
:100E60000123FB7301E00023FB73FB7B184614375F
:100E7000BD4680BC704780B483B000AF78600B463D
:100E80007B8013467B707B78002B06D07B68DA680A
:100E90007B881A437B68DA6006E07B68DA687B88C7
:100EA000DB431A407B68DA6000BF0C37BD4680BC6C
:100EB0007047000080B586B000AF00237B60374BE1
:100EC0007B617B695B6803F400733B617B695B68F2
:100ED00003F48063FB607B695B6903F48073BB6030
:100EE0003B69002B0AD0BB68002B07D07B691A68CE
:100EF0007B691A600021786900F052F87B695B69B0
:100F000003F00203BB603B69002B12D0BB68002BCF
:100F10000FD07B699B6903F00103002B09D17B692A
:100F20005B697B607B699B697B600221786900F06B
:100F300037F87B695B6903F08003BB603B69002B7A
:100F40000FD0FB68002B0CD0BB68002B09D07B694D
:100F50009B6903F00103002B03D10321786900F0A2
:100F60001FF87B695B6903F04003BB603B69002BA2
:100F70000FD0FB68002B0CD0BB68002B09D07B691D
:100F80009B6903F00103002B03D10421786900F071
:100F900007F800BF1837BD4680BD00BF00540040B1
:100FA00080B584B000AF78600B46FB707B682C4A3C
:100FB000934214BF01230023DBB2FB73FB78042BA5
:100FC0004AD801A252F823F0E30F0008DD0F000811
:100FD0000110000813100008311000087B689B699D
:100FE0003AE07B689B6903F00403002B2FD0FB7B66
:100FF0001C4A5B0113441C331B680020984726E001
:10100000FB7B184A5B0113441C331B680220984782
:1010100022E07B689B6903F00403002B19D0FB7B63
:10102000104A5B0113441C331B680320984710E0EF
:101030007B689B6903F00403002B0CD1FB7B094AFE
:101040005B0113441C331B680420984703E000BF76
:1010500002E000BF00E000BF00BF1037BD4680BD0A
:10106000005400409400002080B483B000AF0346D9
:101070000A46FB711346BB71FB79022B1CD0022B75
:1010800025DC002B02D0012B0BD020E0124BDB69BA
:10109000BA79012101FA02F211460F4A0B43D361DA
:1010A00015E00D4B9B69BA79012101FA02F2114654
:1010B000094A0B4393610AE0074B5B69BA79012146
:1010C00001FA02F21146044A0B43536100BF00BF0C
:1010D0000C37BD4680BC70470010024080B582B01E
:1010E00000AF124B9B685B0803F00103DAB23B7957
:1010F00062F300033B710D4B9B6803F00103DAB20E
:101100003B7962F341033B71084B9B681B0903F079
:101110000103DAB23B7962F382033B71044B5B69F2
:101120003879984700BF0837BD4680BD0030014080
:10113000D400002080B582B000AF124B9B685B08E2
:1011400003F00103DAB23B7962F300033B710D4B0C
:101150009B6803F00103DAB23B7962F341033B7110
:10116000084B9B681B0903F00103DAB23B7962F379
:1011700082033B71044BDB6A3879984700BF08371C
:10118000BD4680BD00380040D400002080B400AFD0
:10119000064B1B68054A23F004031360044B01222D
:1011A0001A6000BFBD4680BC704700BF10E000E081
:1011B0000401002080B485B000AF78600023FB609C
:1011C00029E01A4B1B681A4A4FF47A7101FB03F3AA
:1011D0005360174B1B68164A23F002031360144B2D
:1011E0001B68134A43F00103136000BF104B1B68D8
:1011F00003F48033002BF9D00D4B00225A600C4BC6
:1012000000229A600A4B1B68094A23F0010313600D
:10121000FB680133FB60FA687B689A42D1D300BF58
:1012200000BF1437BD4680BC704700BF04010020DA
:1012300010E000E080B582B000AF0023FB710E4BE0
:1012400000225A600C4B00229A600B4B1B680A4A22
:1012500023F001031360084B1B68074A23F00203C5
:101260001360064B1B689847034B1B680023FB71F8
:1012700000BF0837BD4680BD10E000E00801002037
:1012800080B500AF024B1B69984700BF80BD00BF0F
:101290000C01002080B500AF024B5B6A984700BF8D
:1012A00080BD00BF0C01002080B500AF024B9B6BDE
:1012B000984700BF80BD00BF0C010020B0B58CB0C6
:1012C00000AF03210120FFF7CFFE02210120FFF72D
:1012D000CBFE1C4B07F118041D460FCD0FC495E83B
:1012E000030084E8030007F118031846FFF748F8E5
:1012F000154B3C461D460FCD0FC495E8030084E80E
:1013000003003B461846FEF733FFFFF73FFFFFF7AA
:101310000DFB0E48FFF738FA4FF47A70FFF74AFFDB
:10132000FFF704FBFEF7C8FF03461A46084B1A7086
:10133000074B1B784E2BF5D0054B1B781846FFF753
:101340004DF9EFE7141400082C14000808140008E5
:10135000480100200D488546AFF300800C480D4938
:101360000D4A002302E0D458C4500433C4188C4200
:10137000F9D30A4A0A4C002301E013600432A24266
:10138000FBD300F011F8FFF799FFFEE700280020DB
:1013900000000020040000205C140008040000206D
:1013A0004C010020FEE7000070B500260C4D0D4CEE
:1013B000641BA410A64209D100F01AF800260A4DB9
:1013C0000A4C641BA410A64205D170BD55F8043B1D
:1013D00098470136EEE755F8043B98470136F2E7A7
:1013E0005414000854140008541400085814000839
:1013F000F8B500BFF8BC08BC9E467047F8B500BF02
:08140000F8BC08BC9E467047D1
:101408004B65797061645F4C434421000000000023
:1014180000080140000801400400080010002000F6
:1014280040008000080010002000400080000001FB
:101438000002000404000000000C01403132334176
:0C14480034353642373839432A3023440B
:041454005501000836
:041458003101000856
:04145C00100200007A
:040000050800135587
:00000001FF
