:020000040800F2
:10000000002800205D120008AD120008AD120008A3
:10001000AD120008AD120008AD120008000000008B
:10002000000000000000000000000000AD12000809
:10003000AD12000800000000AD12000841110008D8
:10004000AD120008AD120008AD120008AD12000894
:10005000AD120008AD120008490900086D0900083A
:1000600091090008B5090008D9090008AD12000877
:10007000AD120008AD120008AD120008AD12000864
:10008000AD120008AD120008AD120008AD12000854
:10009000AD120008AD120008AD120008FD090008FD
:1000A000AD120008AD120008AD120008AD12000834
:1000B000AD120008AD120008AD120008C90D00080D
:1000C000AD120008AD120008AD120008ED0F0008D7
:1000D000451000088D110008A1110008B511000895
:1000E000AD0A0008AD12000800000000AD120008C3
:1000F000AD120008AD120008AD120008AD120008E4
:10010000AD120008AD120008AD120008AD120008D3
:10011000AD120008AD120008AD120008AD120008C3
:10012000AD120008AD120008AD120008AD120008B3
:1001300010B5054C237833B9044B13B10448AFF321
:1001400000800123237010BD040000200000000087
:10015000F812000808B5034B1BB103490348AFF37D
:10016000008008BD0000000008000020F812000810
:1001700080B588B000AF78607B681B891A46424B17
:100180001A607B685B891A463F4B5A607B689B8983
:100190001A463D4B9A607B681B881A463B4B1A6097
:1001A0007B685B881A46394B5A607B689B881A4685
:1001B000364B9A607B68DB881A46344BDA607B6882
:1001C0001B69334A13600023FB6114E00423BB73F3
:1001D0000123FB732C4AFB6952F823309BB2BB818D
:1001E0007B681B6907F10C021146184600F03BFDC5
:1001F000FB690133FB61FB69022BE7DD0023BB6177
:1002000012E00323BB73214ABB6952F823309BB22F
:10021000BB817B681B6907F10C021146184600F090
:1002200022FDBB690133BB61BB69032BE9DD002300
:100230007B610DE07B681869144A7B6952F82330B2
:100240009BB20022194600F0A1FD7B6901337B615E
:100250007B69032BEEDD00233B610DE07B681869B1
:10026000094A3B6952F823309BB20022194600F03C
:100270008DFD3B6901333B613B69022BEEDD00BF25
:100280002037BD4680BD00BFD4000020E400002020
:10029000E000002080B584B000AF4123FB71002353
:1002A000FB6046E0274B1868274AFB6852F823306A
:1002B0009BB20122194600F069FD0023BB6027E0D4
:1002C000204B1868214ABB6852F823309BB219466C
:1002D00000F045FD0346002B17D000BF194B1868EE
:1002E0001A4ABB6852F823309BB2194600F037FD1A
:1002F0000346002BF2D11649BA6813465B0013443B
:10030000CA18FB6813441B78FB71BB680133BB60E0
:10031000BB68032BD4DD0B4B18680B4AFB6852F803
:1003200023309BB20022194600F030FDFB680133F8
:10033000FB60FB68022BB5DDFB7918461037BD4624
:1003400080BD00BFE0000020D4000020E4000020B9
:100350004813000880B584B000AF78604C4A7B68D1
:1003600013604B4B1B681B78002B06D1494B1022A6
:100370001A70494B02221A7016E0454B1B681B7815
:10038000022B06D1434B10221A70434B04221A70E1
:100390000AE03F4B1B681B78012B05D13D4B142213
:1003A0001A703D4B04221A7000F078FE142000F001
:1003B00089FE0023FB6017E0354B1B68FA680832A2
:1003C00033F81220354B1A80344B04229A70334B89
:1003D0000122DA702E4B1B685B683049184600F02A
:1003E00042FCFB680133FB60FB68032BE4DD2B4B15
:1003F00004229A70264B1B689A89284B1A80274B37
:100400000122DA70224B1B689B682449184600F0D1
:100410002AFC1F4B1B6898681D4B1B689B89002298
:10042000194600F0B3FC1D4B04229A70184B1B6850
:10043000DA891A4B1A80194B0122DA70144B1B68A7
:100440009B681649184600F00EFC114B1B68986813
:100450000F4B1B68DB890022194600F097FC0F2028
:1004600000F030FE00F04AFA022000F019F82820CF
:1004700000F016F8062000F013F8802000F010F8C5
:100480000F2000F00DF800BF1037BD4680BD00BF43
:10049000F80000200000002001000020F4000020EF
:1004A00080B582B000AF0346FB71404B1B68986873
:1004B0003E4B1B68DB890022194600F067FC3B4B72
:1004C0001B685868394B1B68198AFB7903F01003C5
:1004D000DBB21A4600F05AFC344B1B685868334BA9
:1004E0001B68598AFB7903F02003DBB21A4600F03F
:1004F0004DFC2E4B1B6858682C4B1B68998AFB7966
:1005000003F04003DBB21A4600F040FC274B1B68A7
:100510005868264B1B68D98AFB7923F07F03DBB22E
:100520001A4600F033FC012000F0CCFD00F0EEF99B
:100530001E4B1B6858681D4B1B68198AFB7903F01A
:100540000103DBB21A4600F021FC184B1B68586807
:10055000164B1B68598AFB7903F00203DBB21A467B
:1005600000F014FC114B1B685868104B1B68998AEB
:10057000FB7903F00403DBB21A4600F007FC0B4BD7
:100580001B685868094B1B68D98AFB7903F008037C
:10059000DBB21A4600F0FAFB012000F093FD00F0F8
:1005A000B5F900BF0837BD4680BD00BFF800002088
:1005B00080B582B000AF0346FB71644B1B6898683E
:1005C000624B1B68DB890122194600F0DFFB5F4BA1
:1005D0001B6858685D4B1B68198AFB7903F0100390
:1005E000DBB21A4600F0D2FB584B1B685868574BD9
:1005F0001B68598AFB7903F02003DBB21A4600F02E
:10060000C5FB524B1B685868504B1B68998AFB7995
:1006100003F04003DBB21A4600F0B8FB4B4B1B68FB
:1006200058684A4B1B68D98AFB7923F07F03DBB2F9
:100630001A4600F0ABFB012000F044FD00F066F923
:10064000424B1B685868414B1B68198AFB7903F0C1
:100650000103DBB21A4600F099FB3C4B1B6858685B
:100660003A4B1B68598AFB7903F00203DBB21A4646
:1006700000F08CFB354B1B685868344B1B68998A1B
:10068000FB7903F00403DBB21A4600F07FFB2F4B2B
:100690001B6858682D4B1B68D98AFB7903F0080347
:1006A000DBB21A4600F072FB012000F00BFD00F0F7
:1006B0002DF9274B1B781A46264B1B689A4204D10A
:1006C0000021012000F0A8F813E0214B1B781A4606
:1006D000214B1B7803FB02F21E4B1B689A4208D188
:1006E00000F00CF90021002000F096F8194B0022D0
:1006F0001A60164B1B681B78012B04D0134B1B6828
:100700001B78022B19D1124B1B785A00114B1B6816
:100710009A4204D10021022000F07EF80DE00C4B3B
:100720001B781A4613465B001A440A4B1B689A4210
:1007300003D10021032000F06FF8064B1B68013342
:10074000044A136000BF0837BD4680BDF800002092
:1007500000000020200000200100002080B584B0AF
:1007600000AF78600023FB6048E0FB680133FB606A
:100770007B685A1C7A601B781846FFF719FF234BD9
:100780001B781A46FB68934204D10021012000F037
:1007900043F811E01D4B1B781A461D4B1B7803FBD9
:1007A00002F3FA689A4207D100F0A8F8002100206D
:1007B00000F032F80023FB60164B1B681B78012BFE
:1007C00004D0144B1B681B78022B17D10F4B1B78DE
:1007D0005B00FA689A4204D10021022000F01CF864
:1007E0000CE00A4B1B781A4613465B001344FA6868
:1007F0009A4203D10021032000F00EF87B681B7899
:10080000002BB2D100BF1037BD4680BD00000020D4
:1008100001000020F800002080B582B000AF034640
:100820000A46FB711346BB71FB79002B0BD1314B90
:100830001B78BA799A4214D2BB79803BDBB2184656
:10084000FFF72EFE0DE0FB79012B0AD1294B1B7817
:10085000BA799A4205D2BB79403BDBB21846FFF722
:100860001FFE254B1B681B78012B1DD1FB79022B2A
:100870000BD1204B1B78BA799A4237D2BB796C3BAB
:10088000DBB21846FFF70CFE30E0FB79032B2DD1CD
:10089000184B1B78BA799A4228D2BB792C3BDBB231
:1008A0001846FFF7FDFD21E0134B1B681B78022B58
:1008B0001CD1FB79022B0BD10E4B1B78BA799A42D3
:1008C00014D2BB79703BDBB21846FFF7E9FD0DE0AF
:1008D000FB79032B0AD1074B1B78BA799A4205D2D0
:1008E000BB79303BDBB21846FFF7DAFD00BF0837B3
:1008F000BD4680BD00000020F800002080B500AF9C
:100900000120FFF7CDFD00BF80BD000080B500AF26
:100910000C4B1B6898680B4B1B689B89012219467E
:1009200000F034FA322000F0CDFB064B1B689868CB
:10093000044B1B689B890022194600F027FA00BF70
:1009400080BD00BFF800002080B500AF054B5B699B
:10095000044A43F001035361034B1B68984700BFEF
:1009600080BD00BF00040140FC00002080B500AF46
:10097000054B5B69044A43F002035361034B5B6818
:10098000984700BF80BD00BF00040140FC0000206C
:1009900080B500AF054B5B69044A43F00403536123
:1009A000034B9B68984700BF80BD00BF0004014017
:1009B000FC00002080B500AF054B5B69044A43F0A2
:1009C00008035361034BDB68984700BF80BD00BF3D
:1009D00000040140FC00002080B500AF054B5B69BE
:1009E000044A43F010035361034B1B69984700BF4F
:1009F00080BD00BF00040140FC00002080B500AFB6
:100A0000284B5B6903F02003002B09D0254B5B6961
:100A1000244A43F020035361234B5B6998473EE02F
:100A2000204B5B6903F04003002B09D01D4B5B6931
:100A30001C4A43F0400353611B4B9B6998472EE0CF
:100A4000184B5B6903F08003002B09D0154B5B69E1
:100A5000144A43F080035361134BDB6998471EE04F
:100A6000104B5B6903F48073002B09D00D4B5B695D
:100A70000C4A43F4807353610B4B1B6A98470EE09A
:100A8000084B5B6903F40073002B08D0054B5B69CE
:100A9000044A43F400735361034B5B6A984700BFF9
:100AA00080BD00BF00040140FC00002080B500AF05
:100AB000304B5B6903F48063002B09D02D4B5B69DD
:100AC0002C4A43F4806353612B4B9B6A98474EE05A
:100AD000284B5B6903F40063002B09D0254B5B694D
:100AE000244A43F400635361234BDB6A98473EE09A
:100AF000204B5B6903F48053002B09D01D4B5B69CD
:100B00001C4A43F4805353611B4B1B6B98472EE0E8
:100B1000184B5B6903F40053002B09D0154B5B693C
:100B2000144A43F400535361134B5B6B98471EE028
:100B3000104B5B6903F48043002B09D00D4B5B69BC
:100B40000C4A43F4804353610B4B9B6B98470EE078
:100B5000084B5B6903F40043002B08D0054B5B692D
:100B6000044A43F400435361034BDB6B984700BFD7
:100B700080BD00BF00040140FC00002080B485B0AF
:100B800000AF0346FB800023FB73FB88802B49D01A
:100B9000802B11DC082B39D0082B06DC022B2FD040
:100BA000042B30D0012B28D057E0202B34D0402B01
:100BB00035D0102B2DD050E0B3F5006F3ED0B3F5FB
:100BC000006F09DCB3F5007F32D0B3F5806F32D00F
:100BD000B3F5807F29D040E0B3F5005F34D0B3F5A2
:100BE000005F03DCB3F5805F2BD036E0B3F5804FB8
:100BF0002DD0B3F5004F2DD02FE00023FB732CE058
:100C00000423FB7329E00823FB7326E00C23FB730A
:100C100023E01023FB7320E01423FB731DE0182353
:100C2000FB731AE01C23FB7317E00023FB7314E033
:100C30000423FB7311E00823FB730EE00C23FB730A
:100C40000BE01023FB7308E01423FB7305E018236B
:100C5000FB7302E01C23FB7300BFFB7B18461437B9
:100C6000BD4680BC704780B586B000AF7860396003
:100C700000233B613B681B88FF2B01D87B6801E0A8
:100C80007B6804333B613B681B881846FFF776FF9F
:100C90000346FB733B691B68FA7B0F2101FA02F2E2
:100CA000D2431A403B691A600023FB753B689B786E
:100CB000072B0BD03B689B78062B07D03B689B78B3
:100CC000042B03D03B689B78052B0ED13B689B78A7
:100CD000043B9B005AB23B68DB785BB213435BB2C8
:100CE000DBB203F00F03FB752CE03B689B78012B14
:100CF00003D03B689B78002B07D13B689B789B0017
:100D0000DBB203F00F03FB751CE03B689B78102BF4
:100D100002D10423FB7515E00823FB753B689B7823
:100D2000022B07D17B68DB683A6812881A437B681C
:100D3000DA6007E07B68DB683A681288D2431A40C1
:100D40007B68DA603B691B68F97DFA7B01FA02F285
:100D50001A433B691A6000BF1837BD4680BD80B496
:100D600085B000AF78600B467B807B689A687B8893
:100D70001340002B02D00123FB7301E00023FB731F
:100D8000FB7B18461437BD4680BC704780B483B0E7
:100D900000AF78600B467B8013467B707B78002B1E
:100DA00006D07B68DA687B881A437B68DA6006E0E5
:100DB0007B68DA687B88DB431A407B68DA6000BFB7
:100DC0000C37BD4680BC704780B586B000AF0023AD
:100DD0007B60374B7B617B695B6803F400733B612D
:100DE0007B695B6803F48063FB607B695B6903F488
:100DF0008073BB603B69002B0AD0BB68002B07D017
:100E00007B691A687B691A600021786900F052F8E2
:100E10007B695B6903F00203BB603B69002B12D066
:100E2000BB68002B0FD07B699B6903F00103002B8B
:100E300009D17B695B697B607B699B697B6002216F
:100E4000786900F037F87B695B6903F08003BB6069
:100E50003B69002B0FD0FB68002B0CD0BB68002B2C
:100E600009D07B699B6903F00103002B03D10321A7
:100E7000786900F01FF87B695B6903F04003BB6091
:100E80003B69002B0FD0FB68002B0CD0BB68002BFC
:100E900009D07B699B6903F00103002B03D1042176
:100EA000786900F007F800BF1837BD4680BD00BF65
:100EB0000054004080B584B000AF78600B46FB70F2
:100EC0007B682C4A934214BF01230023DBB2FB73DF
:100ED000FB78042B4AD801A252F823F0F70E000841
:100EE000F10E0008150F0008270F0008450F000835
:100EF0007B689B693AE07B689B6903F00403002BE5
:100F00002FD0FB7B1C4A5B0113441C331B68002061
:100F1000984726E0FB7B184A5B0113441C331B688F
:100F20000220984722E07B689B6903F00403002BB2
:100F300019D0FB7B104A5B0113441C331B68032050
:100F4000984710E07B689B6903F00403002B0CD1E9
:100F5000FB7B094A5B0113441C331B680420984740
:100F600003E000BF02E000BF00E000BF00BF103799
:100F7000BD4680BD005400402400002080B483B0F2
:100F800000AF03460A46FB711346BB71FB79012B88
:100F90000FD0022B18D0002B00D020E0124BDB69C1
:100FA000BA79012101FA02F211460F4A0B43D361CB
:100FB00015E00D4B9B69BA79012101FA02F2114645
:100FC000094A0B4393610AE0074B5B69BA79012137
:100FD00001FA02F21146044A0B43536100BF00BFFD
:100FE0000C37BD4680BC70470010024080B582B00F
:100FF00000AF124B9B685B0803F00103DAB23B7948
:1010000062F300033B710D4B9B6803F00103DAB2FE
:101010003B7962F341033B71084B9B681B0903F06A
:101020000103DAB23B7962F382033B71044B5B69E3
:101030003879984700BF0837BD4680BD0030014071
:101040006400002080B582B000AF124B9B685B0843
:1010500003F00103DAB23B7962F300033B710D4BFD
:101060009B6803F00103DAB23B7962F341033B7101
:10107000084B9B681B0903F00103DAB23B7962F36A
:1010800082033B71044BDB6A3879984700BF08370D
:10109000BD4680BD003800406400002080B400AF31
:1010A000064B1B68054A23F004031360044B01221E
:1010B0001A6000BFBD4680BC704700BF10E000E072
:1010C0009400002080B485B000AF78600023FB60FE
:1010D00029E0194B1B68194A4FF47A7101FB03F39D
:1010E0005360164B1B68154A23F002031360134B21
:1010F0001B68124A43F00103136000BF0F4B1B68CB
:1011000003F48033002BF9D00C4B00225A600B4BB8
:1011100000229A60094B1B68084A23F00103136000
:10112000FB680133FB60FA687B689A42D1D300BF49
:101130001437BD4680BC70479400002010E000E0EA
:1011400080B582B000AF0023FB710E4B00225A60C5
:101150000C4B00229A600B4B1B680A4A23F00103D8
:101160001360084B1B68074A23F002031360064B09
:101170001B689847034B1B680023FB7100BF0837AF
:10118000BD4680BD10E000E03C01002080B500AF0E
:10119000024B1B69984700BF80BD00BF980000202C
:1011A00080B500AF024B5B6A984700BF80BD00BFAF
:1011B0009800002080B500AF024B9B6B984700BFA2
:1011C00080BD00BF98000020B0B58CB000AF0321F7
:1011D0000120FFF7D3FE02210120FFF7CFFE1B4BBA
:1011E00007F118041D460FCD0FC495E8030084E8ED
:1011F000030007F118031846FFF7ACF8144B3C1D29
:101200001D460FCD0FC42B6823603B1D1846FEF70B
:10121000AFFFFFF743FFFFF771FB0E48FFF79EFAA2
:101220004FF47A70FFF74EFFFFF768FBFFF732F8D5
:1012300003461A46084B1A70074B1B78412BF5D012
:10124000054B1B781846FFF7B3F9EFE71C130008AE
:101250003413000810130008400100200D48854693
:10126000AFF300800C480D490D4A002302E0D4582A
:10127000C4500433C4188C42F9D30A4A0A4C0023E0
:1012800001E013600432A242FBD300F011F8FFF733
:101290009BFFFEE700280020000000200400002043
:1012A0005C1300080400002044010020FEE7000059
:1012B00070B500250C4E0D4CA41BA410A54209D1FD
:1012C00000F01AF800250A4E0A4CA41BA410A542EF
:1012D00005D170BD56F8253098470135EEE756F830
:1012E000253098470135F2E75413000854130008DD
:1012F0005413000858130008F8B500BFF8BC08BC28
:101300009E467047F8B500BFF8BC08BC9E467047C3
:101310004B65797061645F4C43442100000000001C
:1013200000080140000801400400080010002000EF
:1013300040008000080010002000400080000001F4
:1013400000020000000C01403132333435363738AA
:04135000392A3023E3
:041354005501000837
:041358003101000857
:04135C00100200007B
:040000050800125D80
:00000001FF
