:020000040800F2
:100000000028002055090008A5090008A5090008D6
:10001000A5090008A5090008A509000800000000BE
:10002000000000000000000000000000A50900081A
:10003000A509000800000000A5090008A50900089E
:10004000A5090008A5090008A5090008A5090008D8
:10005000A5090008A509000871010008950100081C
:10006000B9010008DD01000801020008A509000827
:10007000A5090008A5090008A5090008A5090008A8
:10008000A5090008A5090008A5090008A509000898
:10009000A5090008A5090008A5090008250200080F
:1000A000A5090008A5090008A5090008A509000878
:1000B000A5090008A5090008A509000811060008FF
:1000C000A5090008A5090008A509000835080008C9
:1000D0008D080008E5080008F90800080D09000867
:1000E000D5020008A509000800000000A5090008C5
:1000F000A5090008A5090008A5090008A509000828
:10010000A5090008A5090008A5090008A509000817
:10011000A5090008A5090008A5090008A509000807
:10012000A5090008A5090008A5090008A5090008F7
:1001300010B5054C237833B9044B13B10448AFF321
:1001400000800123237010BD00000020000000008B
:10015000F009000808B5034B1BB103490348AFF38E
:10016000008008BD0000000004000020F009000825
:1001700080B500AF054B5B69044A43F0010353614E
:10018000034B1B68984700BF80BD00BF00040140BF
:10019000C800002080B500AF054B5B69044A43F0FE
:1001A00002035361034B5B68984700BF80BD00BFEB
:1001B00000040140C800002080B500AF054B5B691A
:1001C000044A43F004035361034B9B68984700BF04
:1001D00080BD00BF00040140C800002080B500AF12
:1001E000054B5B69044A43F008035361034BDB682A
:1001F000984700BF80BD00BF00040140C800002038
:1002000080B500AF054B5B69044A43F010035361AE
:10021000034B1B69984700BF80BD00BF000401402D
:10022000C800002080B500AF284B5B6903F02003B5
:10023000002B09D0254B5B69244A43F0200353610E
:10024000234B5B6998473EE0204B5B6903F040031A
:10025000002B09D01D4B5B691C4A43F040035361DE
:100260001B4B9B6998472EE0184B5B6903F080039A
:10027000002B09D0154B5B69144A43F0800353618E
:10028000134BDB6998471EE0104B5B6903F48073E6
:10029000002B09D00D4B5B690C4A43F4807353610A
:1002A0000B4B1B6A98470EE0084B5B6903F4007325
:1002B000002B08D0054B5B69044A43F4007353617B
:1002C000034B5B6A984700BF80BD00BF000401403C
:1002D000C800002080B500AF304B5B6903F4806339
:1002E000002B09D02D4B5B692C4A43F4806353618A
:1002F0002B4B9B6A98474EE0284B5B6903F40063E5
:10030000002B09D0254B5B69244A43F400635361F9
:10031000234BDB6A98473EE0204B5B6903F4805334
:10032000002B09D01D4B5B691C4A43F48053536179
:100330001B4B1B6B98472EE0184B5B6903F4005373
:10034000002B09D0154B5B69144A43F400535361E9
:10035000134B5B6B98471EE0104B5B6903F48043C3
:10036000002B09D00D4B5B690C4A43F48043536169
:100370000B4B9B6B98470EE0084B5B6903F4004303
:10038000002B08D0054B5B69044A43F400435361DA
:10039000034BDB6B984700BF80BD00BF00040140EA
:1003A000C800002080B485B000AF0346FB80002366
:1003B000FB73FB88802B49D0802B11DC082B39D0B4
:1003C000082B06DC022B2FD0042B30D0012B28D099
:1003D00057E0202B34D0402B35D0102B2DD050E0BF
:1003E000B3F5006F3ED0B3F5006F09DCB3F5007FC5
:1003F00032D0B3F5806F32D0B3F5807F29D040E0A2
:10040000B3F5005F34D0B3F5005F03DCB3F5805F74
:100410002BD036E0B3F5804F2DD0B3F5004F2DD063
:100420002FE00023FB732CE00423FB7329E0082357
:10043000FB7326E00C23FB7323E01023FB7320E007
:100440001423FB731DE01823FB731AE01C23FB73BA
:1004500017E00023FB7314E00423FB7311E008236F
:10046000FB730EE00C23FB730BE01023FB7308E01F
:100470001423FB7305E01823FB7302E01C23FB73BA
:1004800000BFFB7B18461437BD4680BC704780B563
:1004900086B000AF7860396000233B613B681B8801
:1004A000FF2B01D87B6801E07B6804333B613B682C
:1004B0001B881846FFF776FF0346FB733B691B68F2
:1004C000FA7B0F2101FA02F2D2431A403B691A600B
:1004D0000023FB753B689B78072B0BD03B689B7810
:1004E000062B07D03B689B78042B03D03B689B7896
:1004F000052B0ED13B689B78043B9B005AB23B68AE
:10050000DB785BB213435BB2DBB203F00F03FB7526
:100510002CE03B689B78012B03D03B689B78002B39
:1005200007D13B689B789B00DBB203F00F03FB75A0
:100530001CE03B689B78102B02D10423FB7515E06F
:100540000823FB753B689B78022B07D17B68DB682F
:100550003A6812881A437B68DA6007E07B68DB68D8
:100560003A681288D2431A407B68DA603B691B689C
:10057000F97DFA7B01FA02F21A433B691A6000BF67
:100580001837BD4680BD0000B0B58CB000AF7860B4
:100590003960102387F82E30154B07F10C041D46E7
:1005A0000FCD0FC495E80F0084E80F00002387F8F3
:1005B0002F3012E097F82F305B0007F13002134420
:1005C00033F8242C3B681A8039687868FFF75FFF9E
:1005D00097F82F30013387F82F3097F82F2097F8AE
:1005E0002E309A42E6D300BF3037BD46B0BD00BFC3
:1005F000080A000880B483B000AF78600B467B80A7
:100600007A887B68DA6000BF0C37BD4680BC7047D3
:1006100080B586B000AF00237B60374B7B617B6980
:100620005B6803F400733B617B695B6803F4806380
:10063000FB607B695B6903F48073BB603B69002BE3
:100640000AD0BB68002B07D07B691A687B691A60E7
:100650000021786900F052F87B695B6903F00203BE
:10066000BB603B69002B12D0BB68002B0FD07B69AD
:100670009B6903F00103002B09D17B695B697B60F7
:100680007B699B697B600221786900F037F87B69A0
:100690005B6903F08003BB603B69002B0FD0FB68F4
:1006A000002B0CD0BB68002B09D07B699B6903F041
:1006B0000103002B03D10321786900F01FF87B6947
:1006C0005B6903F04003BB603B69002B0FD0FB6804
:1006D000002B0CD0BB68002B09D07B699B6903F011
:1006E0000103002B03D10421786900F007F800BF53
:1006F0001837BD4680BD00BF0054004080B584B0AF
:1007000000AF78600B46FB707B682C4A934214BFA5
:1007100001230023DBB2FB73FB78042B4AD801A230
:1007200052F823F03F070008390700085D0700086A
:100730006F0700088D0700087B689B693AE07B68BB
:100740009B6903F00403002B2FD0FB7B1C4A5B0149
:1007500013441C331B680020984726E0FB7B184A93
:100760005B0113441C331B680220984722E07B681E
:100770009B6903F00403002B19D0FB7B104A5B013B
:1007800013441C331B680320984710E07B689B6967
:1007900003F00403002B0CD1FB7B094A5B011344DB
:1007A0001C331B680420984703E000BF02E000BF31
:1007B00000E000BF00BF1037BD4680BD00540040C0
:1007C0001C00002080B483B000AF03460A46FB71D2
:1007D0001346BB71FB79012B0FD0022B18D0002BD5
:1007E00000D020E0124BDB69BA79012101FA02F254
:1007F00011460F4A0B43D36115E00D4B9B69BA7943
:10080000012101FA02F21146094A0B4393610AE001
:10081000074B5B69BA79012101FA02F21146044AD9
:100820000B43536100BF00BF0C37BD4680BC70470F
:100830000010024080B582B000AF124B9B685B088D
:1008400003F00103DAB23B7962F300033B710D4B15
:100850009B6803F00103DAB23B7962F341033B7119
:10086000084B9B681B0903F00103DAB23B7962F382
:1008700082033B71044B5B693879984700BF0837A6
:10088000BD4680BD003001405C00002080B582B0D4
:1008900000AF124B9B685B0803F00103DAB23B79AF
:1008A00062F300033B710D4B9B6803F00103DAB266
:1008B0003B7962F341033B71084B9B681B0903F0D2
:1008C0000103DAB23B7962F382033B71044BDB6ACA
:1008D0003879984700BF0837BD4680BD00380040D2
:1008E0005C00002080B500AF024B1B69984700BF39
:1008F00080BD00BF8C00002080B500AF024B5B6A5A
:10090000984700BF80BD00BF8C00002080B500AFBD
:10091000024B9B6B984700BF80BD00BF8C0000203E
:1009200080B500AF02210120FFF74CFF074B0422E6
:100930009A70064B0122DA7004490548FFF724FE3D
:1009400000210348FFF756FEFAE700BF0801002028
:10095000000801400D488546AFF300800C480D4962
:100960000D4A002302E0D458C4500433C4188C420A
:10097000F9D30A4A0A4C002301E013600432A24270
:10098000FBD300F011F8FFF7CBFFFEE700280020B3
:100990000000002000000020300A000800000020B5
:1009A0000C010020FEE7000070B500250C4E0D4C38
:1009B000A41BA410A54209D100F01AF800250A4E84
:1009C0000A4CA41BA410A54205D170BD56F82530D1
:1009D00098470135EEE756F8253098470135F2E79C
:1009E000280A0008280A0008280A00082C0A00081B
:1009F000F8B500BFF8BC08BC9E467047F8B500BF0C
:080A0000F8BC08BC9E467047DB
:100A080001000200040008001000200040008000DF
:100A180000010002000400080010002000400080CF
:040A2800550100086C
:040A2C00310100088C
:040000050800095591
:00000001FF
