:020000040800F2
:10000000002800209D0C0008ED0C0008ED0C0008F5
:10001000ED0C0008ED0C0008ED0C000800000000DD
:10002000000000000000000000000000ED0C0008CF
:10003000ED0C000800000000ED0C0008ED0C0008BD
:10004000ED0C0008ED0C0008ED0C0008ED0C0008AC
:10005000ED0C0008ED0C0008F90400081D0500086F
:10006000410500086505000889050008ED0C000839
:10007000ED0C0008ED0C0008ED0C0008ED0C00087C
:10008000ED0C0008ED0C0008ED0C0008ED0C00086C
:10009000ED0C0008ED0C0008ED0C0008AD050008A3
:1000A000ED0C0008ED0C0008ED0C0008ED0C00084C
:1000B000ED0C0008ED0C0008ED0C00084D090008DF
:1000C000ED0C0008ED0C0008ED0C0008710B0008A9
:1000D000C90B0008210C0008350C0008490C000869
:1000E0005D060008ED0C000800000000ED0C0008A3
:1000F000ED0C0008ED0C0008ED0C0008ED0C0008FC
:10010000ED0C0008ED0C0008ED0C0008ED0C0008EB
:10011000ED0C0008ED0C0008ED0C0008ED0C0008DB
:10012000ED0C0008ED0C0008ED0C0008ED0C0008CB
:1001300010B5054C237833B9044B13B10448AFF321
:1001400000800123237010BD00000020000000008B
:10015000380D000808B5034B1BB103490348AFF342
:10016000008008BD0000000004000020380D0008D9
:1001700080B485B000AF78600023FB600BE0002303
:10018000BB6002E0BB680133BB60BB68FE2BF9D9E2
:10019000FB680133FB60FA687B689A42EFD300BFCB
:1001A0001437BD4680BC704780B500AF1420FFF700
:1001B000DFFF374B10221A80354B04229A70344BE4
:1001C0000122DA703249334800F025FB304B2022FF
:1001D0001A802F4B04229A702D4B0122DA702C4981
:1001E0002C4800F018FB2A4B40221A80284B04228E
:1001F0009A70274B0122DA702549264800F00BFB44
:10020000234B80221A80224B04229A70204B012219
:10021000DA701F491F4800F0FEFA1D4B04229A7045
:100220001B4B04221A801A4B0122DA701849194814
:1002300000F0F1FA00220421164800F068FB144B8C
:1002400004229A70124B08221A80114B0122DA7094
:100250000F49104800F0DFFA002208210D4800F095
:1002600056FB0F20FFF784FF00F02BF9022000F06F
:1002700013F8282000F010F8062000F00DF8802078
:1002800000F00AF80F2000F007F800BF80BD00BFA3
:10029000C80000200008014080B582B000AF0346CE
:1002A000FB71002208212C4800F031FBFB7903F0A0
:1002B0001003DBB21A461021274800F028FBFB7917
:1002C00003F02003DBB21A462021234800F01FFB75
:1002D000FB7903F04003DBB21A4640211E4800F0D0
:1002E00016FBFB7923F07F03DBB21A4680211A4804
:1002F00000F00DFB0120FFF73BFF00F0E9F8FB7970
:1003000003F00103DBB21A461021134800F0FFFA94
:10031000FB7903F00203DBB21A4620210E4800F0FD
:10032000F6FAFB7903F00403DBB21A4640210A48CF
:1003300000F0EDFAFB7903F00803DBB21A468021E6
:10034000054800F0E4FA0120FFF712FF00F0C0F8C2
:1003500000BF0837BD4680BD0008014080B582B0AF
:1003600000AF0346FB71012208212C4800F0CFFAB0
:10037000FB7903F01003DBB21A461021274800F086
:10038000C6FAFB7903F02003DBB21A46202123488A
:1003900000F0BDFAFB7903F04003DBB21A464021BE
:1003A0001E4800F0B4FAFB7923F07F03DBB21A4653
:1003B00080211A4800F0ABFA0120FFF7D9FE00F0C7
:1003C00087F8FB7903F00103DBB21A4610211348CA
:1003D00000F09DFAFB7903F00203DBB21A462021FC
:1003E0000E4800F094FAFB7903F00403DBB21A46DE
:1003F00040210A4800F08BFAFB7903F00803DBB2D6
:100400001A468021054800F082FA0120FFF7B0FE6D
:1004100000F05EF800BF0837BD4680BD000801400F
:1004200080B584B000AF78600023FB601CE0FB68FF
:100430000133FB607B685A1C7A601B781846FFF713
:100440008DFFFB68102B04D10021012000F014F86F
:100450000AE0FB68402B07D100F033F800210020B0
:1004600000F00AF80023FB607B681B78002BDED1CC
:1004700000BF1037BD4680BD80B582B000AF0346D7
:100480000A46FB711346BB71FB79002B09D1BB797E
:100490000F2B12D8BB79803BDBB21846FFF7FCFE6E
:1004A0000BE0FB79012B08D1BB790F2B05D8BB7969
:1004B000403BDBB21846FFF7EFFE00BF0837BD46F2
:1004C00080BD80B500AF0120FFF7E6FE00BF80BD14
:1004D00080B500AF01220421064800F018FA32204E
:1004E000FFF746FE00220421024800F010FA00BF88
:1004F00080BD00BF0008014080B500AF054B5B69BF
:10050000044A43F001035361034B1B68984700BF43
:1005100080BD00BF00040140CC00002080B500AFCA
:10052000054B5B69044A43F002035361034B5B686C
:10053000984700BF80BD00BF00040140CC000020F0
:1005400080B500AF054B5B69044A43F00403536177
:10055000034B9B68984700BF80BD00BF000401406B
:10056000CC00002080B500AF054B5B69044A43F026
:1005700008035361034BDB68984700BF80BD00BF91
:1005800000040140CC00002080B500AF054B5B6942
:10059000044A43F010035361034B1B69984700BFA3
:1005A00080BD00BF00040140CC00002080B500AF3A
:1005B000284B5B6903F02003002B09D0254B5B69B6
:1005C000244A43F020035361234B5B6998473EE084
:1005D000204B5B6903F04003002B09D01D4B5B6986
:1005E0001C4A43F0400353611B4B9B6998472EE024
:1005F000184B5B6903F08003002B09D0154B5B6936
:10060000144A43F080035361134BDB6998471EE0A3
:10061000104B5B6903F48073002B09D00D4B5B69B1
:100620000C4A43F4807353610B4B1B6A98470EE0EE
:10063000084B5B6903F40073002B08D0054B5B6922
:10064000044A43F400735361034B5B6A984700BF4D
:1006500080BD00BF00040140CC00002080B500AF89
:10066000304B5B6903F48063002B09D02D4B5B6931
:100670002C4A43F4806353612B4B9B6A98474EE0AE
:10068000284B5B6903F40063002B09D0254B5B69A1
:10069000244A43F400635361234BDB6A98473EE0EE
:1006A000204B5B6903F48053002B09D01D4B5B6921
:1006B0001C4A43F4805353611B4B1B6B98472EE03D
:1006C000184B5B6903F40053002B09D0154B5B6991
:1006D000144A43F400535361134B5B6B98471EE07D
:1006E000104B5B6903F48043002B09D00D4B5B6911
:1006F0000C4A43F4804353610B4B9B6B98470EE0CD
:10070000084B5B6903F40043002B08D0054B5B6981
:10071000044A43F400435361034BDB6B984700BF2B
:1007200080BD00BF00040140CC00002080B485B033
:1007300000AF0346FB800023FB73FB88802B49D06E
:10074000802B11DC082B39D0082B06DC022B2FD094
:10075000042B30D0012B28D057E0202B34D0402B55
:1007600035D0102B2DD050E0B3F5006F3ED0B3F54F
:10077000006F09DCB3F5007F32D0B3F5806F32D063
:10078000B3F5807F29D040E0B3F5005F34D0B3F5F6
:10079000005F03DCB3F5805F2BD036E0B3F5804F0C
:1007A0002DD0B3F5004F2DD02FE00023FB732CE0AC
:1007B0000423FB7329E00823FB7326E00C23FB735F
:1007C00023E01023FB7320E01423FB731DE01823A8
:1007D000FB731AE01C23FB7317E00023FB7314E088
:1007E0000423FB7311E00823FB730EE00C23FB735F
:1007F0000BE01023FB7308E01423FB7305E01823C0
:10080000FB7302E01C23FB7300BFFB7B184614370D
:10081000BD4680BC704780B586B000AF7860396057
:1008200000233B613B681B88FF2B01D87B6801E0FC
:100830007B6804333B613B681B881846FFF776FFF3
:100840000346FB733B691B68FA7B0F2101FA02F236
:10085000D2431A403B691A600023FB753B689B78C2
:10086000072B0BD03B689B78062B07D03B689B7807
:10087000042B03D03B689B78052B0ED13B689B78FB
:10088000043B9B005AB23B68DB785BB213435BB21C
:10089000DBB203F00F03FB752CE03B689B78012B68
:1008A00003D03B689B78002B07D13B689B789B006B
:1008B000DBB203F00F03FB751CE03B689B78102B49
:1008C00002D10423FB7515E00823FB753B689B7878
:1008D000022B07D17B68DB683A6812881A437B6871
:1008E000DA6007E07B68DB683A681288D2431A4016
:1008F0007B68DA603B691B68F97DFA7B01FA02F2DA
:100900001A433B691A6000BF1837BD4680BD80B4EA
:1009100083B000AF78600B467B8013467B707B789A
:10092000002B06D07B68DA687B881A437B68DA6024
:1009300006E07B68DA687B88DB431A407B68DA6014
:1009400000BF0C37BD4680BC7047000080B586B044
:1009500000AF00237B60374B7B617B695B6803F4EE
:1009600000733B617B695B6803F48063FB607B69B8
:100970005B6903F48073BB603B69002B0AD0BB68E2
:10098000002B07D07B691A687B691A60002178699F
:1009900000F052F87B695B6903F00203BB603B69BE
:1009A000002B12D0BB68002B0FD07B699B6903F032
:1009B0000103002B09D17B695B697B607B699B69C3
:1009C0007B600221786900F037F87B695B6903F08E
:1009D0008003BB603B69002B0FD0FB68002B0CD061
:1009E000BB68002B09D07B699B6903F00103002BD6
:1009F00003D10321786900F01FF87B695B6903F07C
:100A00004003BB603B69002B0FD0FB68002B0CD070
:100A1000BB68002B09D07B699B6903F00103002BA5
:100A200003D10421786900F007F800BF1837BD46EC
:100A300080BD00BF0054004080B584B000AF786036
:100A40000B46FB707B682C4A934214BF01230023A2
:100A5000DBB2FB73FB78042B4AD801A252F823F0D7
:100A60007B0A0008750A0008990A0008AB0A00080A
:100A7000C90A00087B689B693AE07B689B6903F0C0
:100A80000403002B2FD0FB7B1C4A5B0113441C3357
:100A90001B680020984726E0FB7B184A5B01134443
:100AA0001C331B680220984722E07B689B6903F097
:100AB0000403002B19D0FB7B104A5B0113441C3349
:100AC0001B680320984710E07B689B6903F00403D0
:100AD000002B0CD1FB7B094A5B0113441C331B68C0
:100AE0000420984703E000BF02E000BF00E000BF21
:100AF00000BF1037BD4680BD005400401C000020E0
:100B000080B483B000AF03460A46FB711346BB7145
:100B1000FB79012B0FD0022B18D0002B00D020E046
:100B2000124BDB69BA79012101FA02F211460F4A30
:100B30000B43D36115E00D4B9B69BA79012101FA92
:100B400002F21146094A0B4393610AE0074B5B69C5
:100B5000BA79012101FA02F21146044A0B435361AA
:100B600000BF00BF0C37BD4680BC7047001002407C
:100B700080B582B000AF124B9B685B0803F00103A5
:100B8000DAB23B7962F300033B710D4B9B6803F0D3
:100B90000103DAB23B7962F341033B71084B9B6876
:100BA0001B0903F00103DAB23B7962F382033B7164
:100BB000044B5B693879984700BF0837BD4680BD54
:100BC000003001405C00002080B582B000AF124BC5
:100BD0009B685B0803F00103DAB23B7962F3000320
:100BE0003B710D4B9B6803F00103DAB23B7962F372
:100BF00041033B71084B9B681B0903F00103DAB208
:100C00003B7962F382033B71044BDB6A3879984786
:100C100000BF0837BD4680BD003800405C000020A2
:100C200080B500AF024B1B69984700BF80BD00BF75
:100C30008C00002080B500AF024B5B6A984700BF74
:100C400080BD00BF8C00002080B500AF024B9B6BC5
:100C5000984700BF80BD00BF8C00002080B500AF6A
:100C600002210120FFF74CFFFFF79EFA0948FFF72A
:100C7000D7FBFFF726FC01210120FFF7FDFB4120F8
:100C8000FFF76CFB01210020FFF7F6FB0248FFF79E
:100C9000C7FBEEE7500D0008600D00080D488546C3
:100CA000AFF300800C480D490D4A002302E0D458F0
:100CB000C4500433C4188C42F9D30A4A0A4C0023A6
:100CC00001E013600432A242FBD300F011F8FFF7F9
:100CD000C5FFFEE7002800200000002000000020E3
:100CE000740D0008000000200C010020FEE7000049
:100CF00070B500250C4E0D4CA41BA410A54209D1C3
:100D000000F01AF800250A4E0A4CA41BA410A542B4
:100D100005D170BD56F8253098470135EEE756F8F5
:100D2000253098470135F2E76C0D00086C0D00087E
:100D30006C0D0008700D0008F8B500BFF8BC08BCC9
:100D40009E467047F8B500BFF8BC08BC9E46704789
:100D500048656C6C6F20576F726C64210000000056
:0C0D600048656C6C6F20416C61612100E3
:040D6C005501000825
:040D70003101000845
:0400000508000C9D46
:00000001FF
