:020000040800F2
:1000000000280020C9100008191100081911000863
:10001000191100081911000819110008000000004A
:10002000000000000000000000000000191100089E
:10003000191100080000000019110008151000082F
:1000400019110008191100081911000819110008E8
:100050001911000819110008B1030008D5030008A0
:10006000F90300081D0400084104000819110008E4
:1000700019110008191100081911000819110008B8
:1000800019110008191100081911000819110008A8
:100090001911000819110008191100086504000859
:1000A0001911000819110008191100081911000888
:1000B000191100081911000819110008B5080008E5
:1000C000191100081911000819110008BD0E0008C7
:1000D000150F00086110000875100008891000084D
:1000E000150500081911000800000000191100088A
:1000F0001911000819110008191100081911000838
:100100001911000819110008191100081911000827
:100110001911000819110008191100081911000817
:100120001911000819110008191100081911000807
:1001300010B5054C237833B9044B13B10448AFF321
:1001400000800123237010BD00000020000000008B
:100150006411000808B5034B1BB103490348AFF312
:10016000008008BD000000000400002064110008A9
:1001700080B58CB000AFF8600B467A607B8100F0F0
:10018000F5FE0221012000F0C7FC384A7B8913806C
:10019000374A7B681360FB68364A934209D1364B75
:1001A00080221A80354B20221A80354B354A1A603E
:1001B0000EE0FB68344A93420AD12F4B4FF40042C1
:1001C0001A802E4B4FF400521A802D4B2F4A1A6082
:1001D000042387F82E30012387F82F307B89BB85D5
:1001E000234B1B6807F12C021146184600F0C8FA91
:1001F0001F4B1B6879890122184600F03DFB002344
:10020000FB8200233B8300237B833823BB830023B3
:100210003B8400237B840423BB824FF44073FB8325
:100220000023BB840023BB6207F11403F96818465E
:1002300000F0ACFCF86800F051FD0021092000F04E
:100240005FF803210A2000F05BF807210B2000F083
:1002500057F801210C2000F053F800210F2000F086
:100260004FF800BF3037BD4680BD00BF1C000020E6
:1002700028000020003001401E0000202000002047
:10028000240000200008014000380040000C01401C
:1002900080B584B000AF0346FB710023FB6020E013
:1002A000144B1B68144A11880022184600F0E4FA27
:1002B000104B1868114B1988FB7923F07F03DBB2D0
:1002C0001A4600F0D9FAFB795B00FB71094B1B68F9
:1002D000094A11880122184600F0CEFAFB68013362
:1002E000FB60FB68072BDBDD00BF00BF1037BD469E
:1002F00080BD00BF24000020200000201E00002040
:1003000080B582B000AF03460A46FB711346BB714D
:100310000D4B1B680D4A11880022184600F0ACFAFC
:10032000FB791846FFF7B4FFBB791846FFF7B0FF1B
:10033000054B1B68054A11880122184600F09CFAFB
:1003400000BF0837BD4680BD280000201C000020EB
:1003500080B584B000AF78601FE00123FB6012E03D
:10036000FB68D8B27B681B78A3F13002FB68013BC5
:100370000E49D2000A4413441B781946FFF7C0FF08
:10038000FB680133FB60FB68082BE9DD7B68013308
:100390007B6044F6206000F0FDFD7B681B78002B3D
:1003A000DBD100BF00BF1037BD4680BD84110008FF
:1003B00080B500AF054B5B69044A43F0010353610C
:1003C000034B1B68984700BF80BD00BF000401407D
:1003D0002C00002080B500AF054B5B69044A43F058
:1003E00002035361034B5B68984700BF80BD00BFA9
:1003F000000401402C00002080B500AF054B5B6974
:10040000044A43F004035361034B9B68984700BFC1
:1004100080BD00BF000401402C00002080B500AF6B
:10042000054B5B69044A43F008035361034BDB68E7
:10043000984700BF80BD00BF000401402C00002091
:1004400080B500AF054B5B69044A43F0100353616C
:10045000034B1B69984700BF80BD00BF00040140EB
:100460002C00002080B500AF284B5B6903F020030F
:10047000002B09D0254B5B69244A43F020035361CC
:10048000234B5B6998473EE0204B5B6903F04003D8
:10049000002B09D01D4B5B691C4A43F0400353619C
:1004A0001B4B9B6998472EE0184B5B6903F0800358
:1004B000002B09D0154B5B69144A43F0800353614C
:1004C000134BDB6998471EE0104B5B6903F48073A4
:1004D000002B09D00D4B5B690C4A43F480735361C8
:1004E0000B4B1B6A98470EE0084B5B6903F40073E3
:1004F000002B08D0054B5B69044A43F40073536139
:10050000034B5B6A984700BF80BD00BF00040140F9
:100510002C00002080B500AF304B5B6903F4806392
:10052000002B09D02D4B5B692C4A43F48063536147
:100530002B4B9B6A98474EE0284B5B6903F40063A2
:10054000002B09D0254B5B69244A43F400635361B7
:10055000234BDB6A98473EE0204B5B6903F48053F2
:10056000002B09D01D4B5B691C4A43F48053536137
:100570001B4B1B6B98472EE0184B5B6903F4005331
:10058000002B09D0154B5B69144A43F400535361A7
:10059000134B5B6B98471EE0104B5B6903F4804381
:1005A000002B09D00D4B5B690C4A43F48043536127
:1005B0000B4B9B6B98470EE0084B5B6903F40043C1
:1005C000002B08D0054B5B69044A43F40043536198
:1005D000034BDB6B984700BF80BD00BF00040140A8
:1005E0002C00002080B485B000AF0346FB800023C0
:1005F000FB73FB88B3F5004F00F0B880B3F5004FF4
:1006000000F3B780B3F5804F00F0AD80B3F5804FB5
:1006100000F3AF80B3F5005F00F0A280B3F5005F98
:1006200000F3A780B3F5805F00F09780B3F5805F9B
:1006300000F39F80B3F5006F00F08C80B3F5006F7E
:1006400000F39780B3F5806F00F08180B3F5806F81
:1006500000F38F80B3F5007F76D0B3F5007F00F311
:100660008880B3F5807F6CD0B3F5807F00F3818004
:10067000802B63D0802B7CDC202B47DC002B78DDAB
:10068000013B1F2B75D801A252F823F01307000875
:1006900019070008730700081F0700087307000800
:1006A0007307000873070008250700087307000890
:1006B0007307000873070008730700087307000832
:1006C00073070008730700082B070008730700086A
:1006D0007307000873070008730700087307000812
:1006E0007307000873070008730700087307000802
:1006F00073070008730700087307000873070008F2
:10070000730700087307000831070008402B12D058
:100710002FE00023FB732CE00423FB7329E0082364
:10072000FB7326E00C23FB7323E01023FB7320E014
:100730001423FB731DE01823FB731AE01C23FB73C7
:1007400017E00023FB7314E00423FB7311E008237C
:10075000FB730EE00C23FB730BE01023FB7308E02C
:100760001423FB7305E01823FB7302E01C23FB73C7
:1007700000BFFB7B18461437BD4680BC704700BFE6
:1007800080B586B000AF7860396000233B613B687C
:100790001B88FF2B01D87B6801E07B6804333B6139
:1007A0003B681B881846FFF71DFF0346FB733B6938
:1007B0001B68FA7B0F2101FA02F2D2431A403B690F
:1007C0001A600023FB753B689B78072B0BD03B68B6
:1007D0009B78062B07D03B689B78042B03D03B68A3
:1007E0009B78052B0ED13B689B78043B9B005AB24B
:1007F0003B68DB785BB213435BB2DBB203F00F0301
:10080000FB752CE03B689B78012B03D03B689B7801
:10081000002B07D13B689B789B00DBB203F00F03F2
:10082000FB751CE03B689B78102B02D10423FB7501
:1008300015E00823FB753B689B78022B07D17B688A
:10084000DB683A6812881A437B68DA6007E07B68E5
:10085000DB683A681288D2431A407B68DA603B69E9
:100860001B68F97DFA7B01FA02F21A433B691A60B0
:1008700000BF1837BD4680BD80B483B000AF78603C
:100880000B467B8013467B707B78002B06D07B6801
:10089000DA687B881A437B68DA6006E07B68DA688E
:1008A0007B88DB431A407B68DA6000BF0C37BD46AB
:1008B00080BC704780B586B000AF00237B60374BAB
:1008C0007B617B695B6803F400733B617B695B68F8
:1008D00003F48063FB607B695B6903F48073BB6036
:1008E0003B69002B0AD0BB68002B07D07B691A68D4
:1008F0007B691A600021786900F052F87B695B69B6
:1009000003F00203BB603B69002B12D0BB68002BD5
:100910000FD07B699B6903F00103002B09D17B6930
:100920005B697B607B699B697B600221786900F071
:1009300037F87B695B6903F08003BB603B69002B80
:100940000FD0FB68002B0CD0BB68002B09D07B6953
:100950009B6903F00103002B03D10321786900F0A8
:100960001FF87B695B6903F04003BB603B69002BA8
:100970000FD0FB68002B0CD0BB68002B09D07B6923
:100980009B6903F00103002B03D10421786900F077
:1009900007F800BF1837BD4680BD00BF00540040B7
:1009A00080B584B000AF78600B46FB707B682C4A42
:1009B000934214BF01230023DBB2FB73FB78042BAB
:1009C0004AD801A252F823F0E3090008DD09000823
:1009D000010A0008130A0008310A00087B689B69B5
:1009E0003AE07B689B6903F00403002B2FD0FB7B6C
:1009F0001C4A5B0113441C331B680020984726E007
:100A0000FB7B184A5B0113441C331B680220984788
:100A100022E07B689B6903F00403002B19D0FB7B69
:100A2000104A5B0113441C331B680320984710E0F5
:100A30007B689B6903F00403002B0CD1FB7B094A04
:100A40005B0113441C331B680420984703E000BF7C
:100A500002E000BF00E000BF00BF1037BD4680BD10
:100A6000005400406C00002080B483B000AF034607
:100A7000FB71FB791F2B09D80F4B1A68FB790121F9
:100A800001FA03F30C4913430B600FE0FB791F2BB2
:100A90000CD9FB793B2B09D8084B1A68FB79203B12
:100AA000012101FA03F3054913430B6000BF0C3722
:100AB000BD4680BC704700BF00E100E004E100E0FB
:100AC00080B483B000AF0346FB71FB791F2B09D8BC
:100AD0000F4B1A68FB79012101FA03F30C49134308
:100AE0000B600FE0FB791F2B0CD9FB793B2B09D84E
:100AF000084B1A68FB79203B012101FA03F30549F1
:100B000013430B6000BF0C37BD4680BC704700BF6D
:100B100080E100E084E100E080B483B000AF0346F0
:100B20000A46FB711346BB71FB79022B1CD0022BCA
:100B300025DC002B02D0012B0BD020E0124BDB690F
:100B4000BA79012101FA02F211460F4A0B43D3612F
:100B500015E00D4B9B69BA79012101FA02F21146A9
:100B6000094A0B4393610AE0074B5B69BA7901219B
:100B700001FA02F21146044A0B43536100BF00BF61
:100B80000C37BD4680BC704700100240B0B584B041
:100B900000AF786039600023FB810023BB813B6894
:100BA0004B4A93420ED14B4A7B6814461D460FCDEB
:100BB0000FC495E8030084E803000C210120FFF72F
:100BC000ABFF12E03B68444A93420ED1414B7A6836
:100BD00003F1180415460FCD0FC495E8030084E80F
:100BE00003000E210020FFF797FFFB8943F040032D
:100BF000FB817B681A88FB891343FB817B685A88D9
:100C0000FB891343FB817B689A88FB891343FB8133
:100C10007B68DA88FB891343FB817B681A89FB892F
:100C20001343FB817B685B89042B05D17B685A8960
:100C3000BB891343BB810EE07B685B89002B05D128
:100C40007B685A89BB891340BB8104E07B685A8961
:100C5000FB891343FB817B689A89FB891343FB81E2
:100C60007B68DA89FB891343FB817B681B8A002B35
:100C700014D07B681A8ABB891343BB813B68144A32
:100C8000934203D12320FFF7EFFE16E03B68124AA0
:100C9000934212D12420FFF7E7FE0EE03B680C4A96
:100CA000934203D12320FFF70BFF06E03B680A4A7B
:100CB000934202D12420FFF703FFFA893B681A60B0
:100CC000BA893B685A6000BF1037BD46B0BD00BF4F
:100CD00000300140AC0000200038004080B584B0F6
:100CE00000AF78607B68704A934266D16F4B1B8877
:100CF000042B33D16D4B5B89042B0CD10623BB73C2
:100D00000123FB731023BB8107F10C0319466848CC
:100D1000FFF736FD00BF0423BB730123FB732023C1
:100D2000BB8107F10C0319466148FFF729FD042335
:100D3000BB730123FB738023BB8107F10C031946AE
:100D40005B48FFF71DFD0123BB734023BB8107F107
:100D50000C0319465648FFF713FDA0E0534B1B88C0
:100D6000002B09D10123BB731023BB8107F10C03B6
:100D700019464F48FFF704FD0123BB732023BB81B5
:100D800007F10C0319464A48FFF7FAFC0123BB732D
:100D90008023BB8107F10C0319464548FFF7F0FC9F
:100DA0000623BB730123FB734023BB8107F10C03B4
:100DB00019463F48FFF7E4FC71E07B683D4A9342E7
:100DC0006DD13A4B1B8B042B37D1384B5B8C042BEA
:100DD0000DD10623BB730123FB734FF48053BB81FA
:100DE00007F10C0319463448FFF7CAFC00BF06237D
:100DF000BB730123FB734FF40053BB8107F10C035A
:100E000019462D48FFF7BCFC0623BB730123FB7377
:100E10004FF40043BB8107F10C0319462648FFF746
:100E2000AFFC0123BB734FF48043BB8107F10C037C
:100E300019462148FFF7A4FC31E01C4B1B8B002B0B
:100E40000AD10123BB734FF48053BB8107F10C031C
:100E500019461948FFF794FC0123BB734FF4005364
:100E6000BB8107F10C0319461348FFF789FC0123E6
:100E7000BB734FF40043BB8107F10C0319460E48C6
:100E8000FFF77EFC0623BB730123FB734FF4804303
:100E9000BB8107F10C0319460748FFF771FC00BF3F
:100EA0001037BD4680BD00BF00300140AC000020BF
:100EB0000008014000380040000C014080B582B0BD
:100EC00000AF124B9B685B0803F00103DAB23B7979
:100ED00062F300033B710D4B9B6803F00103DAB230
:100EE0003B7962F341033B71084B9B681B0903F09C
:100EF0000103DAB23B7962F382033B71044B5B6915
:100F00003879984700BF0837BD4680BD00300140A2
:100F1000AC00002080B582B000AF124B9B685B082C
:100F200003F00103DAB23B7962F300033B710D4B2E
:100F30009B6803F00103DAB23B7962F341033B7132
:100F4000084B9B681B0903F00103DAB23B7962F39B
:100F500082033B71044BDB6A3879984700BF08373E
:100F6000BD4680BD00380040AC00002080B400AF1A
:100F7000064B1B68054A23F004031360044B01224F
:100F80001A6000BFBD4680BC704700BF10E000E0A3
:100F9000DC00002080B485B000AF78600023FB60E7
:100FA00029E01A4B1B681A4A4FF47A7101FB03F3CC
:100FB0005360174B1B68164A23F002031360144B4F
:100FC0001B68134A43F00103136000BF104B1B68FA
:100FD00003F48033002BF9D00D4B00225A600C4BE8
:100FE00000229A600A4B1B68094A23F00103136030
:100FF000FB680133FB60FA687B689A42D1D300BF7B
:1010000000BF1437BD4680BC704700BFDC00002025
:1010100010E000E080B582B000AF0023FB710E4B02
:1010200000225A600C4B00229A600B4B1B680A4A44
:1010300023F001031360084B1B68074A23F00203E7
:101040001360064B1B689847034B1B680023FB711A
:1010500000BF0837BD4680BD10E000E0E000002082
:1010600080B500AF024B1B69984700BF80BD00BF31
:10107000E400002080B500AF024B5B6A984700BFD8
:1010800080BD00BFE400002080B500AF024B9B6B29
:10109000984700BF80BD00BFE400002080B500AFCE
:1010A00002210120FFF738FD044A10210448FFF710
:1010B0005FF80448FFF74CF9FBE700BF0008014068
:1010C000003001407C1100080D488546AFF30080D8
:1010D0000C480D490D4A002302E0D458C450043393
:1010E000C4188C42F9D30A4A0A4C002301E0136069
:1010F0000432A242FBD300F011F8FFF7CFFFFEE766
:10110000002800200000002000000020E412000859
:101110000000002020010020FEE7000070B500263E
:101120000C4D0D4C641BA410A64209D100F01AF816
:1011300000260A4D0A4C641BA410A64205D170BDBE
:1011400055F8043B98470136EEE755F8043B9847BD
:101150000136F2E7DC120008DC120008DC1200089D
:10116000E0120008F8B500BFF8BC08BC9E46704706
:0C117000F8B500BFF8BC08BC9E467047F4
:10117C0050495A41000000003C4242424242423C2B
:10118C00103050101010107C7E02027E4040407EC9
:10119C003E02023E02023E0008182848FE080808DB
:1011AC003C20203C04043C003C20203C24243C00FB
:1011BC003E22040808080808003E22223E22223E55
:1011CC003E22223E0202023E0000002400000000EB
:1011DC000008083E08080000000204080402000091
:1011EC0014141414141414000020100810200000FF
:1011FC0002010129050300003E41595559013E00E9
:10120C00182442427E4242423C22223C22223C0092
:10121C003C4040404040403C7C2222222222227C06
:10122C007C40407C4040407C7C40407C4040404086
:10123C003C4040404C44443C4444447C444444443E
:10124C007C1010101010107C3C080808080848305E
:10125C000024283020302824404040404040407C2E
:10126C0081C3A59981818181004262524A46420024
:10127C003C4242424242423C3C2222223C20202020
:10128C001C2222222226221D3C2222223C24222104
:10129C00001E20203E02023C003E080808080808F8
:1012AC00424242424242221C4242424242422418A0
:1012BC0000494949492A1C000041221408142241C2
:1012CC004122140808080808007F02040810207F37
:0412DC0055010008B0
:0412E00031010008D0
:04000005080010C916
:00000001FF
